:100000000C9465000C940E070C9435070C948D002D
:100010000C948D000C948D000C948D000C94DB05D9
:100020000C948D000C948D000C948D000C948D001C
:100030000C948D000C948D000C948D000C948D000C
:100040000C945C070C948D000C949C030C94CE03D0
:100050000C948D000C948D000C948D000C948D00EC
:100060000C948D000C948D00020000000800020129
:10007000000003040700000000000000000102046B
:10008000081020408001020408102001020408101A
:100090002004040404040404040202020202020311
:1000A00003030303030000000023002600290000CF
:1000B000000000250028002B00000000002400277D
:1000C000002A0000A500FE037B0411241FBECFEF11
:1000D000D8E0DEBFCDBF11E0A0E0B1E0EEE5FBE18E
:1000E00002C005900D92A43AB107D9F722E0A4EA24
:1000F000B1E001C01D92AD35B207E1F710E0CAECE6
:10010000D0E004C02297FE010E94D208C43CD1076F
:10011000C9F70E948B040C94AD0D0C9400008091E3
:10012000A4019091A501DC01ED91FC910480F58181
:10013000E02D09948091A4019091A501DC01ED913D
:10014000FC910680F781E02D0994CF93DF9382E044
:1001500090E00E949A04EC01198218820E94C80063
:1001600086E791E099838883D093A501C093A40189
:10017000DF91CF9108952DE331E0FC01318320839D
:1001800008952DE331E0FC01318320830C949C041D
:100190002DE331E0FC0131832083089526E731E02F
:1001A000FC01318320830C94BB00CF93DF93EC01DF
:1001B0000E94CE00CE01DF91CF910C949C04FF925F
:1001C0000F931F93CF93DF93F82EC8E0D0E000E8A1
:1001D00010E060E08BE00E944F08802F8F2111F02B
:1001E00061E001C060E08CE00E944F08110F61E007
:1001F0008BE00E944F088DE00E948508892B09F052
:100200001F5F60E08BE00E944F08069521972097C2
:1002100001F7812FDF91CF911F910F91FF900895EA
:100220001F93CF93DF93182FD62FC42F60E08AE05F
:100230000E944F086C2F812F0E94DF00182F6C2F17
:100240008D2F0E94DF0061E08AE00E944F08812F1D
:10025000DF91CF911F910895AF92BF92DF92EF92FD
:10026000FF920F931F93CF93DF931F92CDB7DEB70B
:10027000F82E062FE42E122F60E08AE079830E9488
:100280004F08612F8F2D0E94DF00F82ED02EA02E58
:100290007981B72E8A2D8D198E1538F4612FF501CD
:1002A00081915F010E94DF00F5CF61E08AE00E944A
:1002B0004F088F2D0F90DF91CF911F910F91FF90DD
:1002C000EF90DF90BF90AF9008951F93CF93DF938F
:1002D000EC01162F60E089E00E944F08212F45E0D5
:1002E0006FE071E08AE20E942C01212F40E2BE0102
:1002F00080EA0E942C0161E089E00E944F0885E3BA
:100300008A95F1F70000DF91CF911F9108950F9327
:100310001F93CF93DF93CDB7DEB7C550D1400FB653
:10032000F894DEBF0FBECDBF66EA71E0CE019395B3
:100330000E948C0560E070E0CE0193950E940B074F
:10034000833769F565E471E086EA91E00E94EF0485
:100350001F928AEA8F9384E591E09F938F938E0199
:100360000F5F1F4F1F930F930E94DC0AB80186EAAC
:1003700091E00E94EF0461E084E191E00E94650158
:100380002FEF87EA91E6215080409040E1F700C0CE
:1003900000000F900F900F900F900F900F90CE01D4
:1003A00093950E943706CB5FDE4F0FB6F894DEBF01
:1003B0000FBECDBFDF91CF911F910F910895CF93C5
:1003C000C82F8FE891E00197F1F700C0000060E0CE
:1003D00089E00E944F0861E08AE00E944F0860E0D7
:1003E0008BE00E944F082C2F45E06FE071E080E326
:1003F0000E942C012C2F45E06AE071E08AE20E9405
:100400002C014C2F61E081E20E9410014C2F61E031
:1004100082E20E9410014C2F60E085E20E941001F0
:100420004C2F60E281E30E9410014C2F67E086E2CE
:100430000E9410014C2F6EE080E2CF910C941001CD
:1004400026E040E855E260E070E086EA91E00E9434
:100450003A0367E571E086EA91E00E94EF0461E00B
:1004600089E00E94160861E08AE00E94160861E0B7
:100470008BE00E94160861E08CE00E94160860E0A4
:100480008DE00E94160860E088E00E94160861E690
:1004900071E086EA91E00E94EF0481E00E94DF01B2
:1004A00061E084E191E00C9465010E94C70AFC01BF
:1004B000818D228D90E0805C9F4F821B91098F730C
:1004C00099270895FC01918D828D981731F0828DC6
:1004D000E80FF11D858D90E008958FEF9FEF08954F
:1004E000FC01918D828D981761F0828DDF01A80F3C
:1004F000B11D5D968C91928D9F5F9F73928F90E05E
:1005000008958FEF9FEF089584EF93E0892B49F0D2
:1005100080E090E0892B29F00E94F40381110C9473
:1005200000000895FC01848DDF01A80FB11DA35ABE
:10053000BF4F2C91848D90E001968F739927848F03
:10054000A689B7892C93A089B1898C9180648C93FA
:10055000938D848D981306C00288F389E02D8081E5
:100560008F7D80830895CF93DF93EC01888D88235E
:10057000C9F0EA89FB89808185FD05C0A889B98910
:100580008C9186FD0FC00FB607FCF5CF808185FFEB
:10059000F2CFA889B9898C9185FFEDCFCE010E9459
:1005A0009202E7CFDF91CF910895CF92DF92FF9231
:1005B0000F931F93CF93DF931F92CDB7DEB76C01DC
:1005C00081E0D60158968C9358975B969C915B97E7
:1005D0005C968C915C97981307C05096ED91FC91B6
:1005E0005197808185FD2EC0F601038D10E00F5FCD
:1005F0001F4F0F731127F02EF601848DF81211C0D2
:100600000FB607FCF9CFD6015096ED91FC915197AA
:10061000808185FFF1CFC60169830E9492026981C2
:10062000EBCF838DE80FF11DE35AFF4F6083D601B6
:100630005B960C935B975296ED91FC91539780815A
:1006400080620CC0D6015696ED91FC91579760835D
:100650005096ED91FC91519780818064808381E078
:1006600090E00F90DF91CF911F910F91FF90DF905D
:10067000CF900895BF92CF92DF92EF92FF92CF93E7
:10068000DF93EC016A017B01B22EE889F98982E0EF
:100690008083411581EE580761057105A1F060E086
:1006A00079E08DE390E0A70196010E94AE08215009
:1006B00031094109510956954795379527952115D7
:1006C00080E1380798F0E889F989108260E874E8D9
:1006D0008EE190E0A70196010E94AE0821503109F9
:1006E000410951095695479537952795EC85FD8524
:1006F0003083EE85FF852083188EEC89FD89B082DA
:10070000EA89FB89808180618083EA89FB89808115
:1007100088608083EA89FB89808180688083EA8998
:10072000FB8980818F7D8083DF91CF91FF90EF9057
:10073000DF90CF90BF9008951F920F920FB60F9247
:1007400011242F938F939F93EF93FF93E091B60122
:10075000F091B7018081E091BC01F091BD0182FD73
:1007600012C090818091BF018F5F8F732091C00173
:10077000821751F0E091BF01F0E0EA55FE4F958FEE
:100780008093BF0101C08081FF91EF919F918F9174
:100790002F910F900FBE0F901F9018951F920F92E0
:1007A0000FB60F9211242F933F934F935F936F9344
:1007B0007F938F939F93AF93BF93EF93FF9386EABB
:1007C00091E00E949202FF91EF91BF91AF919F91B2
:1007D0008F917F916F915F914F913F912F910F90EA
:1007E0000FBE0F901F90189586EA91E00E94570265
:1007F00021E0892B09F420E0822F08951092A901AD
:100800001092A80188EE93E0A0E0B0E08093AA01E6
:100810009093AB01A093AC01B093AD0182E891E05D
:100820009093A7018093A60185EC90E09093B3018B
:100830008093B20184EC90E09093B5018093B40171
:1008400080EC90E09093B7018093B60181EC90E04A
:100850009093B9018093B80182EC90E09093BB0132
:100860008093BA0186EC90E09093BD018093BC0127
:100870001092BF011092C0011092C1011092C201EA
:100880000895AF92BF92CF92DF92EF92FF920F93B3
:100890001F93CF93DF936C017B01C0E0D0E000E0B9
:1008A00010E0F601EC0FFD1F4AE050E06281C70145
:1008B0000E9457055C016EE2C7010E94E4048A0DA4
:1008C0009B1D080F191F2196C330D10551F74AE02F
:1008D00050E0F6016581C7010E945705800F911F06
:1008E000DF91CF911F910F91FF90EF90DF90CF900C
:1008F000BF90AF90089582E991E090934402809375
:100900004302109245021092460210924702109242
:100910004802089508950E94B2070E948A040E9426
:100920008F00C4E8D2E00E949A002097E1F30E9471
:100930008402F9CF0C94D6080C946E09CF92DF9202
:10094000EF92FF920F931F93CF93DF937C016A0185
:10095000EB0100E010E00C151D0571F06991D70165
:10096000ED91FC910190F081E02DC7010995892B53
:1009700019F00F5F1F4FEFCFC801DF91CF911F918B
:100980000F91FF90EF90DF90CF900895DC01ED91F3
:10099000FC910190F081E02D642F0994611571059F
:1009A00081F0DB010D900020E9F7AD0141505109C4
:1009B000461B570BDC01ED91FC910280F381E02D89
:1009C000099480E090E00895DC01ED91FC910190A4
:1009D000F081E02D099464E971E00C94CE040F934A
:1009E0001F93CF93DF93EC010E94CE048C01CE01C4
:1009F0000E94EB04800F911FDF91CF911F910F9107
:100A000008958F929F92AF92BF92DF92EF92FF92E2
:100A10000F931F93CF93DF93CDB7DEB7A1970FB698
:100A2000F894DEBF0FBECDBF7C01F42FD52ECB01D5
:100A300019A2223008F42AE08E010F5D1F4F822E8A
:100A4000912CA12CB12C6F2F7D2DA50194010E941A
:100A5000AE08F22FD32ECA01015011096A3010F4EA
:100A6000E0E301C0E7E3E60FD801EC93232B242B4E
:100A7000252B49F7B801C7010E94CE04A1960FB6F5
:100A8000F894DEBF0FBECDBFDF91CF911F910F91C4
:100A9000FF90EF90DF90BF90AF909F908F90089560
:100AA0002115310511F40C94C6040C9401059A012A
:100AB000462F50E060E070E00C9450050F931F93B8
:100AC000CF93DF93EC010E94A607688779878A8716
:100AD0009B87E881F9810680F781E02DCE01099599
:100AE00097FF15C00E94A607088519852A853B85B2
:100AF000601B710B820B930B0C811D812E813F813A
:100B0000601771078207930720F38FEF9FEFDF9144
:100B1000CF911F910F9108950F931F93CF93DF9360
:100B2000EC018B0166E971E00E94A506C8010E94F4
:100B30005E0597FD05C0682FCE010E94E706F6CF3F
:100B4000CE01DF91CF911F910F910895813039F03F
:100B500018F0823051F0089510926E00089580913F
:100B60006F008D7F80936F000895809170008D7F5E
:100B70008093700081E08093B0008091B100887F05
:100B800084608093B1001092B3000895CF93C82F72
:100B9000809134018C1307C0E8E6F0E084919FEF68
:100BA0009093340101C08FEF0E94A60560E08C2F66
:100BB000CF910C944F081F920F920FB60F921124F1
:100BC0002F933F934F935F936F937F938F939F9355
:100BD000AF93BF93EF93FF9380914C0290914D029E
:100BE000A0914E02B0914F02892B8A2B8B2B51F191
:100BF00090914902E0914A02F0914B02808189274D
:100C0000808380914C0290914D02A0914E02B09150
:100C10004F02181619061A061B06C4F480914C02DE
:100C200090914D02A0914E02B0914F020197A109FF
:100C3000B10980934C0290934D02A0934E02B09361
:100C40004F0204C0809134010E94C605FF91EF91CC
:100C5000BF91AF919F918F917F916F915F914F91D4
:100C60003F912F910F900FBE0F901F901895FC0190
:100C7000808191810C946E09CF93DF93EC01888180
:100C80009981009711F00E946E09198218821D82C5
:100C90001C821B821A82DF91CF9108950F931F93BC
:100CA000CF93DF93EC018B016F5F7F4F8881998138
:100CB0000E94FD09009731F0998388831B830A8382
:100CC00081E001C080E0DF91CF911F910F910895E5
:100CD000CF93DF93EC0188819981892B29F08A8158
:100CE0009B818617970760F4CE010E944E068823E9
:100CF00041F08C819D81892B19F4E881F981108262
:100D000081E0DF91CF910895EF92FF920F931F93AF
:100D1000CF93DF93EC017B018A01BA010E94680640
:100D2000811104C0CE010E943C0607C01D830C83C4
:100D3000B701888199810E94D50ACE01DF91CF91B8
:100D40001F910F91FF90EF900895FC011182108286
:100D500013821282158214826115710559F0FB010C
:100D600001900020E9F7AF0141505109461B570B94
:100D70000C9484060895EF92FF920F931F93CF93E4
:100D8000DF93EC017B010C811D816115710511F46C
:100D900080E016C04115510591F0040F151FB801F0
:100DA0000E9468068823A1F3288139818C819D8166
:100DB000B701820F931F0E94D50A1D830C8381E027
:100DC000DF91CF911F910F91FF90EF900895CF93F6
:100DD000DF9300D0CDB7DEB769831A8241E050E0DF
:100DE000BE016F5F7F4F0E94BB060F900F90DF9197
:100DF000CF910895FC01248135816217730748F46F
:100E000080819181009729F0FC01E60FF71F808116
:100E1000089580E008950C94FA0608951F920F92A9
:100E20000FB60F9211242F933F934F935F936F93BD
:100E30007F938F939F93AF93BF93EF93FF93E09133
:100E40003501F09136010995FF91EF91BF91AF9176
:100E50009F918F917F916F915F914F913F912F91D2
:100E60000F900FBE0F901F9018951F920F920FB604
:100E70000F9211242F933F934F935F936F937F9320
:100E80008F939F93AF93BF93EF93FF93E0913701BD
:100E9000F09138010995FF91EF91BF91AF919F912A
:100EA0008F917F916F915F914F913F912F910F9013
:100EB0000FBE0F901F9018951F920F920FB60F92B2
:100EC00011242F933F938F939F93AF93BF93809160
:100ED000510290915202A0915302B091540230916C
:100EE000500223E0230F2D3720F40196A11DB11DE0
:100EF00005C026E8230F0296A11DB11D20935002C4
:100F00008093510290935202A0935302B0935402E3
:100F10008091550290915602A0915702B0915802CB
:100F20000196A11DB11D8093550290935602A09386
:100F30005702B0935802BF91AF919F918F913F910B
:100F40002F910F900FBE0F901F9018952FB7F89408
:100F5000609151027091520280915302909154021B
:100F60002FBF0895789484B5826084BD84B5816074
:100F700084BD85B5826085BD85B5816085BDEEE6A1
:100F8000F0E0808181608083E1E8F0E01082808180
:100F900082608083808181608083E0E8F0E08081EE
:100FA00081608083E1EBF0E0808184608083E0EB0E
:100FB000F0E0808181608083EAE7F0E080818460F6
:100FC0008083808182608083808181608083808152
:100FD000806880831092C1000895833081F028F4E6
:100FE000813099F08230A1F008958730A9F08830DF
:100FF000B9F08430D1F4809180008F7D03C080915E
:1010000080008F7780938000089584B58F7702C029
:1010100084B58F7D84BD08958091B0008F7703C023
:101020008091B0008F7D8093B0000895CF93DF93BF
:1010300090E0FC01E358FF4F2491FC01EF56FF4F75
:101040008491882349F190E0880F991FFC01E754AF
:10105000FF4FA591B49181559F4FFC01C591D4914B
:101060009FB7611108C0F8948C91209582238C93CE
:10107000888182230AC0623051F4F8948C91322F17
:10108000309583238C938881822B888304C0F894C5
:101090008C91822B8C939FBFDF91CF9108950F93FA
:1010A0001F93CF93DF931F92CDB7DEB7282F30E089
:1010B000F901E759FF4F8491F901E358FF4F14916B
:1010C000F901EF56FF4F04910023C9F0882321F066
:1010D00069830E94ED076981E02FF0E0EE0FFF1FAA
:1010E000E155FF4FA591B4919FB7F8948C91611190
:1010F00003C01095812301C0812B8C939FBF0F905B
:10110000DF91CF911F910F910895CF93DF93282FF7
:1011100030E0F901E759FF4F8491F901E358FF4F9F
:10112000D491F901EF56FF4FC491CC2391F0811176
:101130000E94ED07EC2FF0E0EE0FFF1FEB55FF4F85
:10114000A591B4912C912D2381E090E021F480E0D1
:1011500002C080E090E0DF91CF910895A1E21A2EC5
:10116000AA1BBB1BFD010DC0AA1FBB1FEE1FFF1F4B
:10117000A217B307E407F50720F0A21BB30BE40B9B
:10118000F50B661F771F881F991F1A9469F76095E2
:101190007095809590959B01AC01BD01CF0108959C
:1011A000EE0FFF1F0590F491E02D0994CF93DF938C
:1011B0008230910510F482E090E0E0915B02F091C2
:1011C0005C0220E030E0A0E0B0E0309739F14081EF
:1011D000518148175907B8F04817590771F48281AF
:1011E0009381109729F013969C938E9312972CC09D
:1011F00090935C0280935B0227C02115310531F08A
:101200004217530718F0A901DB0101C0EF019A0151
:10121000BD01DF010280F381E02DD7CF211531051B
:10122000F9F0281B390B2430310580F48A819B8129
:101230006115710521F0FB019383828304C09093B3
:101240005C0280935B02FE01329644C0FE01E20F15
:10125000F31F8193919322503109398328833AC037
:101260002091590230915A02232B41F4209102011E
:101270003091030130935A022093590220910001CA
:10128000309101012115310541F42DB73EB7409150
:10129000040150910501241B350BE0915902F09196
:1012A0005A02E217F307A0F42E1B3F0B2817390749
:1012B00078F0AC014E5F5F4F2417350748F04E0FB2
:1012C0005F1F50935A02409359028193919302C039
:1012D000E0E0F0E0CF01DF91CF910895CF93DF936D
:1012E000009709F487C0FC01329713821282C091E3
:1012F0005B02D0915C02209781F420813181280F1C
:10130000391F8091590290915A028217930779F5FB
:10131000F0935A02E09359026DC0DE0120E030E004
:10132000AE17BF0750F412964D915C9113979D0133
:101330004115510509F1DA01F3CFB383A28340814E
:101340005181840F951F8A179B0771F48D919C9191
:101350001197840F951F02969183808312968D9129
:101360009C911397938382832115310529F4F0937F
:101370005C02E0935B023EC0D9011396FC93EE93AE
:1013800012974D915D91A40FB51FEA17FB0779F4F1
:1013900080819181840F951F0296D90111969C93AB
:1013A0008E938281938113969C938E931297E0E0A3
:1013B000F0E08A819B81009719F0FE01EC01F9CFE2
:1013C000CE01029628813981820F931F2091590204
:1013D00030915A022817390769F4309729F410928E
:1013E0005C0210925B0202C013821282D0935A02F6
:1013F000C0935902DF91CF910895A0E0B0E0E3E0FF
:10140000FAE00C947A0DEC01CB01209719F40E94BC
:10141000D608B8C0FE01E60FF71F9E012250310921
:10142000E217F30708F4ACC0D9010D911C91119794
:1014300006171707B8F00530110508F49FC0A8017A
:10144000445051094617570708F498C00250110933
:10145000061B170B019311936D937C93CF010E9490
:101460006E098CC05B01A01AB10A4E01800E911E5C
:10147000A0915B02B0915C02612C712C60E070E085
:10148000109709F449C0A815B905C9F5ED90FC906D
:101490001197670142E0C40ED11CCA14DB0478F135
:1014A00047018A189B08640142E0C40ED11C1296C1
:1014B000BC9012971396AC91B5E0CB16D10440F0D6
:1014C000B282A38391828082D9018D939C9309C0BB
:1014D0000E5F1F4F0E0D1F1DF90111830083EB2DB1
:1014E000FA2F6115710531F0DB011396FC93EE9331
:1014F000129744C0F0935C02E0935B023FC06D9191
:101500007C9111976616770608F43B01BD0112968F
:101510000D90BC91A02DB4CF6091590270915A02E8
:1015200068157905E9F468167906D0F44091000150
:10153000509101014115510541F44DB75EB76091DD
:10154000040170910501461B570BE417F507C0F421
:10155000F0935A02E0935902F901918380830EC0FF
:101560000E94D6087C01009759F0A801BE010E9494
:10157000CC0ACE010E946E09C70104C0CE0102C090
:1015800080E090E0CDB7DEB7EEE00C94960D81E000
:1015900090E0F8940C94AD0DFB01DC0102C00190C9
:1015A0000D9241505040D8F70895FB01DC010190A5
:1015B0000D920020E1F70895AEE0B0E0E2EEFAE02F
:1015C0000C94840D0D891E8986E08C831A8309830F
:1015D0008FEF9FE79E838D83AE01475E5F4F6F89DC
:1015E000788DCE0101960E94FE0AEF81F885E00F0A
:1015F000F11F10822E96E4E00C94A00DACE0B0E058
:10160000E4E0FBE00C94760D7C016B018A01FC01A7
:1016100017821682838181FFBDC1CE0101964C01E4
:10162000F7019381F60193FD859193FF81916F01FD
:10163000882309F4ABC1853239F493FD859193FF7A
:1016400081916F01853229F4B70190E00E94E60C88
:10165000E7CF512C312C20E02032A0F48B3269F0FE
:1016600030F4803259F0833269F420612CC08D321D
:1016700039F0803339F4216026C02260246023C011
:10168000286021C027FD27C030ED380F3A3078F4AC
:1016900026FF06C0FAE05F9E300D1124532E13C0C2
:1016A0008AE0389E300D1124332E20620CC08E3219
:1016B00021F426FD6BC1206406C08C3611F420682D
:1016C00002C0883641F4F60193FD859193FF819124
:1016D0006F018111C1CF982F9F7D9554933028F4CD
:1016E0000C5F1F4FFFE3F9830DC0833631F0833762
:1016F00071F0833509F05BC022C0F80180818983D5
:101700000E5F1F4F44244394512C540115C03801DF
:10171000F2E06F0E711CF801A080B18026FF03C0BB
:10172000652D70E002C06FEF7FEFC5012C870E942E
:10173000DB0C2C0183012C852F77222E17C038015A
:10174000F2E06F0E711CF801A080B18026FF03C08B
:10175000652D70E002C06FEF7FEFC5012C870E94FE
:10176000D00C2C012C852068222E830123FC1BC069
:10177000832D90E048165906B0F4B70180E290E05E
:101780000E94E60C3A94F4CFF50127FC859127FEE0
:1017900081915F01B70190E00E94E60C31103A940C
:1017A000F1E04F1A51084114510471F7E5C0843635
:1017B00011F0893639F5F80127FF07C06081718182
:1017C000828193810C5F1F4F08C0608171818827DF
:1017D00077FD8095982F0E5F1F4F2F76B22E97FFC3
:1017E00009C090958095709561957F4F8F4F9F4F61
:1017F0002068B22E2AE030E0A4010E94180DA82E25
:10180000A81844C0853729F42F7EB22E2AE030E094
:1018100025C0F22FF97FBF2E8F36C1F018F488351E
:1018200079F0B4C0803719F0883721F0AFC02F2F7E
:101830002061B22EB4FE0DC08B2D8460B82E09C07D
:1018400024FF0AC09F2F9660B92E06C028E030E022
:1018500005C020E130E002C020E132E0F801B7FE2F
:1018600007C060817181828193810C5F1F4F06C028
:101870006081718180E090E00E5F1F4FA4010E94A3
:10188000180DA82EA818FB2DFF77BF2EB6FE0BC093
:101890002B2D2E7FA51450F4B4FE0AC0B2FC08C054
:1018A0002B2D2E7E05C07A2C2B2D03C07A2C01C047
:1018B000752C24FF0DC0FE01EA0DF11D80818033DF
:1018C00011F4297E09C022FF06C07394739404C0EA
:1018D000822F867809F0739423FD13C020FF06C081
:1018E0005A2C731418F4530C5718732C731468F48F
:1018F000B70180E290E02C870E94E60C73942C855F
:10190000F5CF731410F4371801C0312C24FF12C026
:10191000B70180E390E02C870E94E60C2C8522FF23
:1019200017C021FF03C088E590E002C088E790E07F
:10193000B7010CC0822F867859F021FD02C080E2E9
:1019400001C08BE227FD8DE2B70190E00E94E60C1A
:10195000A51438F4B70180E390E00E94E60C5A9495
:10196000F7CFAA94F401EA0DF11D8081B70190E050
:101970000E94E60CA110F5CF332009F451CEB70137
:1019800080E290E00E94E60C3A94F6CFF70186815F
:10199000978102C08FEF9FEF2C96E2E10C94920D9D
:1019A000FC010590615070400110D8F7809590952A
:1019B0008E0F9F1F0895FC0161507040019001102F
:1019C000D8F7809590958E0F9F1F08950F931F93C2
:1019D000CF93DF93182F092FEB018B8181FD03C07B
:1019E0008FEF9FEF20C082FF10C04E815F812C815E
:1019F0003D81421753077CF4E881F9819F012F5FF5
:101A00003F4F39832883108306C0E885F985812FED
:101A10000995892B29F72E813F812F5F3F4F3F8307
:101A20002E83812F902FDF91CF911F910F910895D9
:101A3000FA01AA27283051F1203181F1E8946F93FF
:101A40006E7F6E5F7F4F8F4F9F4FAF4FB1E03ED0A5
:101A5000B4E03CD0670F781F891F9A1FA11D680F43
:101A6000791F8A1F911DA11D6A0F711D811D911D76
:101A7000A11D20D009F468943F912AE0269F1124EB
:101A80003019305D3193DEF6CF010895462F47704F
:101A9000405D4193B3E00FD0C9F7F6CF462F4F70AA
:101AA000405D4A3318F0495D31FD4052419302D008
:101AB000A9F7EACFB4E0A6959795879577956795AE
:101AC000BA95C9F700976105710508959B01AC01AE
:101AD0000A2E06945795479537952795BA95C9F7D5
:101AE000620F731F841F951FA01D08952F923F92B0
:101AF0004F925F926F927F928F929F92AF92BF921E
:101B0000CF92DF92EF92FF920F931F93CF93DF93C9
:101B1000CDB7DEB7CA1BDB0B0FB6F894DEBF0FBE26
:101B2000CDBF09942A88398848885F846E847D8473
:101B30008C849B84AA84B984C884DF80EE80FD8075
:101B40000C811B81AA81B981CE0FD11D0FB6F894EB
:0E1B5000DEBF0FBECDBFED010895F894FFCFAC
:101B5E0000005D022000010000003443101001342B
:101B6E0043101001010203040506070809101112A3
:101B7E001314151617181920212223242526272879
:101B8E0029303132FF0D070D0700000000BB00C1E8
:101B9E0000550255024E52462073656E64696E679B
:101BAE002E2E2E0025780053797374656D204F6E9E
:101BBE00004E524620696E69742073656E642E2E37
:101BCE002E0000000000CE00D5002002870100008C
:101BDE000000D5029E04570270026202B30200009A
:101BEE00000041040D0A006E616E00696E66006FA2
:041BFE007666000007
:00000001FF
