:100000000C9465000C94E7050C940E060C948D007E
:100010000C948D000C948D000C948D000C94740540
:100020000C948D000C948D000C948D000C948D001C
:100030000C948D000C948D000C948D000C948D000C
:100040000C9435060C948D000C9491030C94C3030E
:100050000C948D000C948D000C948D000C948D00EC
:100060000C948D000C948D00020000000800020129
:10007000000003040700000000000000000102046B
:10008000081020408001020408102001020408101A
:100090002004040404040404040202020202020311
:1000A00003030303030000000023002600290000CF
:1000B000000000250028002B00000000002400277D
:1000C000002A0000A500F303700411241FBECFEF27
:1000D000D8E0DEBFCDBF11E0A0E0B1E0E2EAF1E19F
:1000E00002C005900D92A239B107D9F722E0A2E92A
:1000F000B1E001C01D92AC34B207E1F710E0CAECE8
:10010000D0E004C02297FE010E949F07C43CD107A3
:10011000C9F70E94D3050C94CF080C94000080917D
:10012000920190919301DC01ED91FC910480F581A5
:10013000E02D09948091920190919301DC01ED9161
:10014000FC910680F781E02D0994CF93DF9382E044
:1001500090E00E94E205EC01198218820E94C8001A
:1001600085E691E099838883D0939301C0939201AF
:10017000DF91CF9108952EE331E0FC01318320839C
:1001800008952EE331E0FC01318320830C94E405D3
:100190002EE331E0FC0131832083089525E631E030
:1001A000FC01318320830C94BB00CF93DF93EC01DF
:1001B0000E94CE00CE01DF91CF910C94E405FF9216
:1001C0000F931F93CF93DF93F82EC8E0D0E000E8A1
:1001D00010E060E08CE00E941C07802F8F2111F05E
:1001E00061E001C060E089E00E941C07110F61E03E
:1001F0008CE00E941C078BE00E945207892B09F0BB
:100200001F5F60E08CE00E941C07069521972097F5
:1002100001F7812FDF91CF911F910F91FF900895EA
:100220001F93CF93DF93182FD62FC42F60E088E061
:100230000E941C076C2F812F0E94DF00182F6C2F4B
:100240008D2F0E94DF0061E088E00E941C07812F53
:10025000DF91CF911F910895AF92BF92DF92EF92FD
:10026000FF920F931F93CF93DF931F92CDB7DEB70B
:10027000F82E062FE42E122F60E088E079830E948A
:100280001C07612F8F2D0E94DF00F82ED02EA02E8C
:100290007981B72E8A2D8D198E1538F4612FF501CD
:1002A00081915F010E94DF00F5CF61E088E00E944C
:1002B0001C078F2D0F90DF91CF911F910F91FF9011
:1002C000EF90DF90BF90AF9008950F931F93CF935F
:1002D000DF931F92CDB7DEB78C01262F60E08DE053
:1002E00029830E941C07298144E0B80180EA0E940A
:1002F0002C0161E08DE00E941C0785E38A95F1F7EF
:1003000000000F90DF91CF911F910F910895CF932F
:10031000C82F8FE891E00197F1F700C0000060E07E
:100320008DE00E941C0761E088E00E941C0760E0ED
:100330008CE00E941C072C2F45E060E171E080E317
:100340000E942C012C2F45E06BE071E08AE20E94B4
:100350002C0141E063E083E20E94100141E06FEF75
:1003600084E20E9410014C2F60E081E20E941001A3
:100370004C2F61E082E20E9410014C2F64E185E283
:100380000E9410014C2F64E081E30E9410014C2F69
:100390006FE086E20E9410014C2F6EE080E2CF9168
:1003A0000C94100126E040E855E260E070E085E939
:1003B00091E00E942F0366E471E085E991E00E94DC
:1003C000D00461E08DE00E94E30661E088E00E94D5
:1003D000E30661E08CE00E94E30661E089E00E94B0
:1003E000E30660E08BE00E94E30660E08AE00E94A2
:1003F000E30660E571E085E991E00E94D00481E0C8
:100400000E94870140E060E187E20E94100161E004
:1004100085E191E00C946501CF93DF93FB0180812E
:1004200080931501808180931601A7E1B1E050E02F
:10043000CF01861B970B841795071CF481918D9330
:10044000F7CF8AEA80931801C8E0D0E061E085E147
:1004500091E00E94650121972097C1F78091940156
:100460008F5F80939401DF91CF91089541E06AE01E
:1004700071E00E940C022FEF89E698E12150804044
:100480009040E1F700C0000080910A01880F09F454
:1004900081E080930A010895FC01818D228D90E016
:1004A000805C9F4F821B91098F7399270895FC01EF
:1004B000918D828D981731F0828DE80FF11D858D19
:1004C00090E008958FEF9FEF0895FC01918D828D4C
:1004D000981761F0828DDF01A80FB11D5D968C9198
:1004E000928D9F5F9F73928F90E008958FEF9FEFA3
:1004F000089589EE93E0892B49F080E090E0892B04
:1005000029F00E94E90381110C9400000895FC0178
:10051000848DDF01A80FB11DA35ABF4F2C91848D8C
:1005200090E001968F739927848FA689B7892C93C1
:10053000A089B1898C9180648C93938D848D98135C
:1005400006C00288F389E02D80818F7D8083089525
:10055000CF93DF93EC01888D8823C9F0EA89FB896A
:10056000808185FD05C0A889B9898C9186FD0FC061
:100570000FB607FCF5CF808185FFF2CFA889B98936
:100580008C9185FFEDCFCE010E948702E7CFDF91EE
:10059000CF910895CF92DF92FF920F931F93CF9345
:1005A000DF931F92CDB7DEB76C0181E0D60158967C
:1005B0008C9358975B969C915B975C968C915C971B
:1005C000981307C05096ED91FC915197808185FD5D
:1005D0002EC0F601038D10E00F5F1F4F0F73112720
:1005E000F02EF601848DF81211C00FB607FCF9CF7A
:1005F000D6015096ED91FC915197808185FFF1CF06
:10060000C60169830E9487026981EBCF838DE80F61
:10061000F11DE35AFF4F6083D6015B960C935B9705
:100620005296ED91FC915397808180620CC0D60167
:100630005696ED91FC91579760835096ED91FC9101
:10064000519780818064808381E090E00F90DF91FA
:10065000CF911F910F91FF90DF90CF900895BF929F
:10066000CF92DF92EF92FF92CF93DF93EC016A017A
:100670007B01B22EE889F98982E08083411581EE01
:10068000580761057105A1F060E079E08DE390E025
:10069000A70196010E947B072150310941095109A8
:1006A0005695479537952795211580E1380798F09D
:1006B000E889F989108260E874E88EE190E0A7018A
:1006C00096010E947B072150310941095109569535
:1006D000479537952795EC85FD853083EE85FF8519
:1006E0002083188EEC89FD89B082EA89FB8980819C
:1006F00080618083EA89FB89808188608083EA89C0
:10070000FB89808180688083EA89FB8980818F7D75
:100710008083DF91CF91FF90EF90DF90CF90BF90DB
:1007200008951F920F920FB60F9211242F938F935B
:100730009F93EF93FF93E091A501F091A601808133
:10074000E091AB01F091AC0182FD12C090818091EB
:10075000AE018F5F8F732091AF01821751F0E0914E
:10076000AE01F0E0EB56FE4F958F8093AE0101C0D5
:100770008081FF91EF919F918F912F910F900FBEEC
:100780000F901F9018951F920F920FB60F92112481
:100790002F933F934F935F936F937F938F939F9389
:1007A000AF93BF93EF93FF9385E991E00E94870297
:1007B000FF91EF91BF91AF919F918F917F916F9139
:1007C0005F914F913F912F910F900FBE0F901F900F
:1007D000189585E991E00E944C0221E0892B09F4EB
:1007E00020E0822F0895109298011092970188EED0
:1007F00093E0A0E0B0E08093990190939A01A093D8
:100800009B01B0939C0181E791E0909396018093C6
:10081000950185EC90E09093A2018093A10184EC76
:1008200090E09093A4018093A30180EC90E09093DA
:10083000A6018093A50181EC90E09093A80180939C
:10084000A70182EC90E09093AA018093A90186EC25
:1008500090E09093AC018093AB011092AE011092A6
:10086000AF011092B0011092B1010895AF92BF9202
:10087000CF92DF92EF92FF920F931F93CF93DF936C
:100880006C017B01C0E0D0E000E010E0F601EC0F6D
:10089000FD1F4AE050E06281C7010E9438055C01FB
:1008A0006EE2C7010E94C5048A0D9B1D080F191F27
:1008B0002196C330D10551F74AE050E0F601658139
:1008C000C7010E943805800F911FDF91CF911F91C2
:1008D0000F91FF90EF90DF90CF90BF90AF90089571
:1008E00081E891E0909333028093320210923402B7
:1008F0001092350210923602109237020895CF926C
:10090000DF92EF92FF920F931F93CF93DF937C01BF
:100910006A01EB0100E010E00C151D0571F0699112
:10092000D701ED91FC910190F081E02DC70109956F
:10093000892B19F00F5F1F4FEFCFC801DF91CF91C7
:100940001F910F91FF90EF90DF90CF900895DC0101
:10095000ED91FC910190F081E02D642F09946115D7
:10096000710581F0DB010D900020E9F7AD014150E8
:100970005109461B570BDC01ED91FC910280F3817C
:10098000E02D099480E090E00895DC01ED91FC9168
:100990000190F081E02D099463E871E00C94AF04BC
:1009A0000F931F93CF93DF93EC010E94AF048C0150
:1009B000CE010E94CC04800F911FDF91CF911F9137
:1009C0000F9108958F929F92AF92BF92DF92EF9214
:1009D000FF920F931F93CF93DF93CDB7DEB7A1970D
:1009E0000FB6F894DEBF0FBECDBF7C01F42FD52E1D
:1009F000CB0119A2223008F42AE08E010F5D1F4FAF
:100A0000822E912CA12CB12C6F2F7D2DA50194014C
:100A10000E947B07F22FD32ECA01015011096A30C0
:100A200010F4E0E301C0E7E3E60FD801EC93232BD9
:100A3000242B252B49F7B801C7010E94AF04A196CA
:100A40000FB6F894DEBF0FBECDBFDF91CF911F91DF
:100A50000F91FF90EF90DF90BF90AF909F908F909D
:100A600008952115310511F40C94A7040C94E204A7
:100A70009A01462F50E060E070E00C94310581301F
:100A800039F018F0823051F0089510926E000895F8
:100A900080916F008D7F80936F000895809170002A
:100AA0008D7F8093700081E08093B0008091B100D1
:100AB000887F84608093B1001092B3000895CF9333
:100AC000C82F809135018C1307C0E8E6F0E08491CF
:100AD0009FEF9093350101C08FEF0E943F0560E0CA
:100AE0008C2FCF910C941C071F920F920FB60F9270
:100AF00011242F933F934F935F936F937F938F9323
:100B00009F93AF93BF93EF93FF9380913B0290919C
:100B10003C02A0913D02B0913E02892B8A2B8B2B87
:100B200051F190913802E0913902F0913A028081BE
:100B30008927808380913B0290913C02A0913D02E5
:100B4000B0913E02181619061A061B06C4F48091CD
:100B50003B0290913C02A0913D02B0913E02019770
:100B6000A109B10980933B0290933C02A0933D02FE
:100B7000B0933E0204C0809135010E945F05FF9151
:100B8000EF91BF91AF919F918F917F916F915F9105
:100B90004F913F912F910F900FBE0F901F9018957E
:100BA0000E94CA0808950E947F060E94D2050E94F2
:100BB0008F00C9E7D2E00E949A002097E1F30E94DB
:100BC0007902F9CF0C94A3070C943B0808951F9267
:100BD0000F920FB60F9211242F933F934F935F9371
:100BE0006F937F938F939F93AF93BF93EF93FF93F5
:100BF000E0913601F09137010995FF91EF91BF9196
:100C0000AF919F918F917F916F915F914F913F91A4
:100C10002F910F900FBE0F901F9018951F920F925B
:100C20000FB60F9211242F933F934F935F936F93BF
:100C30007F938F939F93AF93BF93EF93FF93E09135
:100C40003801F09139010995FF91EF91BF91AF9172
:100C50009F918F917F916F915F914F913F912F91D4
:100C60000F900FBE0F901F9018951F920F920FB606
:100C70000F9211242F933F938F939F93AF93BF9322
:100C80008091400290914102A0914202B0914302B2
:100C900030913F0223E0230F2D3720F40196A11D50
:100CA000B11D05C026E8230F0296A11DB11D20939A
:100CB0003F028093400290934102A0934202B0937E
:100CC00043028091440290914502A0914602B09166
:100CD00047020196A11DB11D8093440290934502E5
:100CE000A0934602B0934702BF91AF919F918F911D
:100CF0003F912F910F900FBE0F901F9018957894F1
:100D000084B5826084BD84B5816084BD85B5826010
:100D100085BD85B5816085BDEEE6F0E080818160AE
:100D20008083E1E8F0E010828081826080838081AE
:100D300081608083E0E8F0E0808181608083E1EB86
:100D4000F0E0808184608083E0EBF0E0808181606E
:100D50008083EAE7F0E08081846080838081826024
:100D6000808380818160808380818068808310920D
:100D7000C1000895833081F028F4813099F08230E9
:100D8000A1F008958730A9F08830B9F08430D1F40B
:100D9000809180008F7D03C0809180008F77809349
:100DA0008000089584B58F7702C084B58F7D84BD9F
:100DB00008958091B0008F7703C08091B0008F7D3F
:100DC0008093B0000895CF93DF9390E0FC01E35847
:100DD000FF4F2491FC01EF56FF4F8491882349F186
:100DE00090E0880F991FFC01E754FF4FA591B49143
:100DF00081559F4FFC01C591D4919FB7611108C0E7
:100E0000F8948C91209582238C93888182230AC048
:100E1000623051F4F8948C91322F309583238C9367
:100E20008881822B888304C0F8948C91822B8C93C8
:100E30009FBFDF91CF9108950F931F93CF93DF93BF
:100E40001F92CDB7DEB7282F30E0F901E759FF4FE9
:100E50008491F901E358FF4F1491F901EF56FF4FC8
:100E600004910023C9F0882321F069830E94BA0607
:100E70006981E02FF0E0EE0FFF1FE155FF4FA591D4
:100E8000B4919FB7F8948C91611103C010958123A0
:100E900001C0812B8C939FBF0F90DF91CF911F9149
:100EA0000F910895CF93DF93282F30E0F901E75990
:100EB000FF4F8491F901E358FF4FD491F901EF56A8
:100EC000FF4FC491CC2391F081110E94BA06EC2F00
:100ED000F0E0EE0FFF1FEB55FF4FA591B4912C9161
:100EE0002D2381E090E021F480E002C080E090E0DA
:100EF000DF91CF910895A1E21A2EAA1BBB1BFD0121
:100F00000DC0AA1FBB1FEE1FFF1FA217B307E407E8
:100F1000F50720F0A21BB30BE40BF50B661F771F40
:100F2000881F991F1A9469F7609570958095909520
:100F30009B01AC01BD01CF010895EE0FFF1F05908D
:100F4000F491E02D0994CF93DF938230910510F452
:100F500082E090E0E0914A02F0914B0220E030E024
:100F6000A0E0B0E0309739F140815181481759072E
:100F7000B8F04817590771F482819381109729F0CE
:100F800013969C938E9312972CC090934B02809350
:100F90004A0227C02115310531F04217530718F0D6
:100FA000A901DB0101C0EF019A01BD01DF0102804F
:100FB000F381E02DD7CF21153105F9F0281B390B2E
:100FC0002430310580F48A819B816115710521F0FF
:100FD000FB019383828304C090934B0280934A0267
:100FE000FE01329644C0FE01E20FF31F81939193FC
:100FF00022503109398328833AC020914802309128
:101000004902232B41F420910201309103013093D6
:1010100049022093480220910001309101012115DD
:10102000310541F42DB73EB74091040150910501BF
:10103000241B350BE0914802F0914902E217F307B7
:10104000A0F42E1B3F0B2817390778F0AC014E5F38
:101050005F4F2417350748F04E0F5F1F509349022A
:10106000409348028193919302C0E0E0F0E0CF0109
:10107000DF91CF910895CF93DF93009709F487C054
:10108000FC01329713821282C0914A02D0914B0226
:10109000209781F420813181280F391F80914802E7
:1010A000909149028217930779F5F0934902E093F2
:1010B00048026DC0DE0120E030E0AE17BF0750F4FB
:1010C00012964D915C9113979D014115510509F1BF
:1010D000DA01F3CFB383A28340815181840F951F3E
:1010E0008A179B0771F48D919C911197840F951F1E
:1010F00002969183808312968D919C91139793838E
:1011000082832115310529F4F0934B02E0934A02C2
:101110003EC0D9011396FC93EE9312974D915D91C9
:10112000A40FB51FEA17FB0779F480819181840F22
:10113000951F0296D90111969C938E93828193817B
:1011400013969C938E931297E0E0F0E08A819B8146
:10115000009719F0FE01EC01F9CFCE01029628812B
:101160003981820F931F209148023091490228173C
:10117000390769F4309729F410924B0210924A0211
:1011800002C013821282D0934902C0934802DF91B9
:10119000CF91089581E090E0F8940C94CF08F894F2
:0211A000FFCF7F
:1011A20000004C0220000100000001344310100135
:1011B200344310100101020304010203040102037B
:1011C20004010203040102030401020304010203F5
:1011D2000401020304FFE605E60500000000BB006F
:1011E200C100D005D00553797374656D204F6E0030
:1011F2004E524620696E69742073656E642E2E2EDF
:101202000000000000CE00D500D20136020000002E
:1012120000CA027F044C0265025702A802000000C5
:101222000036040D0A006E616E00696E66006F760C
:02123200660054
:00000001FF
