:100000000C9465000C9436080C945D080C948D00DB
:100010000C948D000C948D000C948D000C94ED06C6
:100020000C948D000C948D000C948D000C948D001C
:100030000C948D000C948D000C948D000C948D000C
:100040000C9484080C948D000C94C2040C94F40459
:100050000C948D000C948D000C948D000C948D00EC
:100060000C948D000C948D00020000000800020129
:10007000000003040700000000000000000102046B
:10008000081020408001020408102001020408101A
:100090002004040404040404040202020202020311
:1000A00003030303030000000023002600290000CF
:1000B000000000250028002B00000000002400277D
:1000C000002A0000A5002405A10511241FBECFEFC2
:1000D000D8E0DEBFCDBF11E0A0E0B1E0EEEAFDE187
:1000E00002C005900D92AA3DB107D9F722E0AAED12
:1000F000B1E001C01D92A339B207E1F710E0CAECEC
:10010000D0E004C02297FE010E94FA09C43CD10746
:10011000C9F70E9422080C94D50E0C94000080911F
:10012000DA019091DB01DC01ED91FC910480F58115
:10013000E02D09948091DA019091DB01DC01ED91D1
:10014000FC910680F781E02D0994CF93DF9382E044
:1001500090E00E943108EC01198218820E94C800C8
:100160008DEA91E099838883D093DB01C093DA0113
:10017000DF91CF91089526E331E0FC0131832083A4
:10018000089526E331E0FC01318320830C94330889
:1001900026E331E0FC013183208308952DEA31E02C
:1001A000FC01318320830C94BB00CF93DF93EC01DF
:1001B0000E94CE00CE01DF91CF910C943308FF92C4
:1001C0000F931F93CF93DF93F82EC8E0D0E000E8A1
:1001D00010E060E08CE00E947709802F8F2111F001
:1001E00061E001C060E089E00E947709110F61E0E1
:1001F0008CE00E9477098BE00E94AD09892B09F001
:100200001F5F60E08CE00E94770906952197209798
:1002100001F7812FDF91CF911F910F91FF900895EA
:10022000CF93DF93D82FC62F60E088E00E94770934
:100230006C2F8D2F0E94DF006C2F80E00E94DF006A
:10024000C82F61E088E00E9477098C2FDF91CF9161
:1002500008951F93CF93DF93182FD62FC42F60E0FC
:1002600088E00E9477096C2F812F0E94DF00182FF1
:100270006C2F8D2F0E94DF0061E088E00E947709DB
:10028000812FDF91CF911F910895AF92BF92DF929E
:10029000EF92FF920F931F93CF93DF931F92CDB7EF
:1002A000DEB7F82E062FE42E122F60E088E0798367
:1002B0000E947709612F8F2D0E94DF00F82ED02E2B
:1002C000A02E7981B72E8A2D8D198E1538F4612FC5
:1002D000F50181915F010E94DF00F5CF61E088E0C8
:1002E0000E9477098F2D0F90DF91CF911F910F9171
:1002F000FF90EF90DF90BF90AF9008951F93CF9342
:10030000DF93EC01162F60E08DE00E947709212F2A
:1003100041E06CE071E08AE20E944501212F41E05A
:10032000BE0180EA0E94450141E06EE380E20E9446
:10033000290161E08DE00E94770985E38A95F1F754
:100340000000DF91CF911F910895DF92EF92FF920D
:100350000F931F93CF93DF93CDB7DEB7C450D24036
:100360000FB6F894DEBF0FBECDBF2FEF83ED90E345
:10037000215080409040E1F700C0000060E087E03D
:100380000E941001D82E1F928F938EE3E82E81E0F9
:10039000F82EFF92EF928E0113951F930F930E94F8
:1003A000040CB8018CED91E00E9401068AE00E94E5
:1003B000AD099F938F9329E431E03F932F931F93CF
:1003C0000F930E94040CB8018CED91E00E9401068D
:1003D0000FB6F894DEBF0FBECDBFD4FE2AC061E5D4
:1003E00071E08CED91E00E94010641E060E187E25E
:1003F0000E9429011F92DF92FF92EF920F5F110975
:100400001F930F930E94040CB8018CED91E00E94A1
:1004100001069FEF21EE84E0915020408040E1F7FB
:1004200000C000000F900F900F900F900F900F9052
:100430002AC0D5FE28C068E571E08CED91E00E94ED
:10044000010641E06FEF87E20E9429019FEF27EA52
:1004500081E6915020408040E1F700C0000080918B
:100460000A01809580930D0161E08DE091E00E948A
:100470007E0180910A01880F80930A01811103C0D7
:1004800081E080930A016CED71E0CE0181509E4FB6
:100490000E949E0660E070E0CE0181509E4F0E9457
:1004A0001D08833731F56EE571E08CED91E00E9417
:1004B00001061F928AEA8F9386EA91E09F938F93B9
:1004C0008E010F5F1F4F1F930F930E94040CB80102
:1004D0008CED91E00E94010680910A0180930D014C
:1004E0008F5F80930A010F900F900F900F900F90E5
:1004F0000F90CE0181509E4F0E944907CC5FDD4F87
:100500000FB6F894DEBF0FBECDBFDF91CF911F9124
:100510000F91FF90EF90DF9008950F931F93CF936B
:10052000DF93CDB7DEB7CF5FD1090FB6F894DEBF4A
:100530000FBECDBF182F8FE891E00197F1F700C0F3
:10054000000060E08DE00E94770961E088E00E9491
:10055000770960E08CE00E947709212F41E06CE090
:1005600071E080E30E944501212F41E06BE071E0E2
:100570008AE20E94450141E060E084E20E94290194
:10058000412F60E081E20E942901412F61E082E277
:100590000E942901412F60E085E20E942901412F3C
:1005A00061E081E30E942901412F67E086E20E9419
:1005B0002901412F6EE380E20E94290160E086E07C
:1005C0000E9410011F928F938DE691E09F938F936D
:1005D0008E010F5F1F4F1F930F930E94040CB801F1
:1005E0008CED91E00E94010660E085E00E94100120
:1005F0001F928F9387E791E09F938F931F930F93A1
:100600000E94040CB8018CED91E00E9401060FB627
:10061000F894DEBF0FBECDBFC150DF4F0FB6F894C8
:10062000DEBF0FBECDBFDF91CF911F910F91089517
:10063000CF93DF93CDB7DEB7CF5FD1090FB6F89474
:10064000DEBF0FBECDBF26E040E855E260E070E0BF
:100650008CED91E00E94600463E871E08CED91E024
:100660000E94010661E08DE00E943E0961E088E0A1
:100670000E943E0961E08CE00E943E0961E089E051
:100680000E943E0960E08BE00E943E0960E08AE043
:100690000E943E096DE871E08CED91E00E94010638
:1006A00081E00E948D0260E087E00E9410011F92AD
:1006B0008F938EE991E09F938F93CE0101969F9344
:1006C0008F930E94040C40E060E187E20E942901C0
:1006D00061E08DE091E00E947E010F900F900F90FD
:1006E0000F900F900F90C150DF4F0FB6F894DEBF00
:1006F0000FBECDBFDF91CF910895FC01818D228D7A
:1007000090E0805C9F4F821B91098F739927089519
:10071000FC01918D828D981731F0828DE80FF11DCB
:10072000858D90E008958FEF9FEF0895FC01918DE6
:10073000828D981761F0828DDF01A80FB11D5D9643
:100740008C91928D9F5F9F73928F90E008958FEFB1
:100750009FEF08958AE195E0892B49F080E090E0D1
:10076000892B29F00E941A0581110C94000008952C
:10077000FC01848DDF01A80FB11DA35ABF4F2C913E
:10078000848D90E001968F739927848FA689B7890D
:100790002C93A089B1898C9180648C93938D848DE6
:1007A000981306C00288F389E02D80818F7D8083B5
:1007B0000895CF93DF93EC01888D8823C9F0EA89EF
:1007C000FB89808185FD05C0A889B9898C9186FD4A
:1007D0000FC00FB607FCF5CF808185FFF2CFA88947
:1007E000B9898C9185FFEDCFCE010E94B803E7CF88
:1007F000DF91CF910895CF92DF92FF920F931F93D5
:10080000CF93DF931F92CDB7DEB76C0181E0D601A5
:1008100058968C9358975B969C915B975C968C91BD
:100820005C97981307C05096ED91FC915197808189
:1008300085FD2EC0F601038D10E00F5F1F4F0F7373
:100840001127F02EF601848DF81211C00FB607FCA7
:10085000F9CFD6015096ED91FC915197808185FF9B
:10086000F1CFC60169830E94B8036981EBCF838D04
:10087000E80FF11DE35AFF4F6083D6015B960C939E
:100880005B975296ED91FC915397808180620CC0EA
:10089000D6015696ED91FC91579760835096ED9155
:1008A000FC91519780818064808381E090E00F907B
:1008B000DF91CF911F910F91FF90DF90CF9008951E
:1008C000BF92CF92DF92EF92FF92CF93DF93EC0132
:1008D0006A017B01B22EE889F98982E080834115A3
:1008E00081EE580761057105A1F060E079E08DE3C4
:1008F00090E0A70196010E94D609215031094109D3
:1009000051095695479537952795211580E1380768
:1009100098F0E889F989108260E874E88EE190E047
:10092000A70196010E94D6092150310941095109B8
:100930005695479537952795EC85FD853083EE854F
:10094000FF852083188EEC89FD89B082EA89FB89B6
:10095000808180618083EA89FB89808188608083CF
:10096000EA89FB89808180688083EA89FB898081AC
:100970008F7D8083DF91CF91FF90EF90DF90CF90BC
:10098000BF9008951F920F920FB60F9211242F93CC
:100990008F939F93EF93FF93E091EC01F091ED0122
:1009A0008081E091F201F091F30182FD12C090810B
:1009B0008091F5018F5F8F732091F601821751F0BE
:1009C000E091F501F0E0E452FE4F958F8093F50140
:1009D00001C08081FF91EF919F918F912F910F9096
:1009E0000FBE0F901F9018951F920F920FB60F9287
:1009F00011242F933F934F935F936F937F938F9324
:100A00009F93AF93BF93EF93FF938CED91E00E9480
:100A1000B803FF91EF91BF91AF919F918F917F911B
:100A20006F915F914F913F912F910F900FBE0F905B
:100A30001F9018958CED91E00E947D0321E0892B99
:100A400009F420E0822F08951092DF011092DE0158
:100A500088EE93E0A0E0B0E08093E0019093E101A4
:100A6000A093E201B093E30189EB91E09093DD0163
:100A70008093DC0185EC90E09093E9018093E8019C
:100A800084EC90E09093EB018093EA0180EC90E09D
:100A90009093ED018093EC0181EC90E09093EF0155
:100AA0008093EE0182EC90E09093F1018093F0014D
:100AB00086EC90E09093F3018093F2011092F5019F
:100AC0001092F6011092F7011092F8010895AF927A
:100AD000BF92CF92DF92EF92FF920F931F93CF932B
:100AE000DF936C017B01C0E0D0E000E010E0F60194
:100AF000EC0FFD1F4AE050E06281C7010E946906C9
:100B00005C016EE2C7010E94F6058A0D9B1D080F6D
:100B1000191F2196C330D10551F74AE050E0F60184
:100B20006581C7010E946906800F911FDF91CF91F7
:100B30001F910F91FF90EF90DF90CF90BF90AF90FB
:100B4000089589EC91E090937A0280937902109253
:100B50007B0210927C0210927D0210927E02089518
:100B6000CF92DF92EF92FF920F931F93CF93DF9379
:100B70007C016A01EB0100E010E00C151D0571F02D
:100B80006991D701ED91FC910190F081E02DC701B1
:100B90000995892B19F00F5F1F4FEFCFC801DF9127
:100BA000CF911F910F91FF90EF90DF90CF9008951C
:100BB000DC01ED91FC910190F081E02D642F09940E
:100BC0006115710581F0DB010D900020E9F7AD01A1
:100BD00041505109461B570BDC01ED91FC910280FD
:100BE000F381E02D099480E090E00895DC01ED911F
:100BF000FC910190F081E02D09946BEC71E00C9474
:100C0000E0050F931F93CF93DF93EC010E94E00563
:100C10008C01CE010E94FD05800F911FDF91CF91C5
:100C20001F910F9108958F929F92AF92BF92DF9282
:100C3000EF92FF920F931F93CF93DF93CDB7DEB761
:100C4000A1970FB6F894DEBF0FBECDBF7C01F42F85
:100C5000D52ECB0119A2223008F42AE08E010F5DB7
:100C60001F4F822E912CA12CB12C6F2F7D2DA50111
:100C700094010E94D609F22FD32ECA010150110906
:100C80006A3010F4E0E301C0E7E3E60FD801EC932B
:100C9000232B242B252B49F7B801C7010E94E0051F
:100CA000A1960FB6F894DEBF0FBECDBFDF91CF91F6
:100CB0001F910F91FF90EF90DF90BF90AF909F90AA
:100CC0008F9008952115310511F40C94D8050C94DA
:100CD00013069A01462F50E060E070E00C94620623
:100CE0000F931F93CF93DF93EC010E94CE08688788
:100CF00079878A879B87E881F9810680F781E02DD3
:100D0000CE01099597FF15C00E94CE080885198568
:100D10002A853B85601B710B820B930B0C811D8117
:100D20002E813F81601771078207930720F38FEFB1
:100D30009FEFDF91CF911F910F9108950F931F9314
:100D4000CF93DF93EC018B016DEC71E00E94B7074C
:100D5000C8010E94700697FD05C0682FCE010E9451
:100D6000F907F6CFCE01DF91CF911F910F91089532
:100D7000813039F018F0823051F0089510926E00F1
:100D8000089580916F008D7F80936F00089580910A
:100D900070008D7F8093700081E08093B00080911F
:100DA000B100887F84608093B1001092B3000895F1
:100DB000CF93C82F80912D018C1307C0E8E6F0E097
:100DC00084919FEF90932D0101C08FEF0E94B80690
:100DD00060E08C2FCF910C9477091F920F920FB681
:100DE0000F9211242F933F934F935F936F937F93B1
:100DF0008F939F93AF93BF93EF93FF938091820262
:100E000090918302A0918402B0918502892B8A2B54
:100E10008B2B51F190917F02E0918002F091810241
:100E20008081892780838091820290918302A091A2
:100E30008402B0918502181619061A061B06C4F41E
:100E40008091820290918302A0918402B0918502E8
:100E50000197A109B1098093820290938302A09324
:100E60008402B093850204C080912D010E94D806AF
:100E7000FF91EF91BF91AF919F918F917F916F9172
:100E80005F914F913F912F910F900FBE0F901F9048
:100E90001895FC01808191810C94960ACF93DF9381
:100EA000EC0188819981009711F00E94960A1982BD
:100EB00018821D821C821B821A82DF91CF910895B5
:100EC0000F931F93CF93DF93EC018B016F5F7F4FE5
:100ED000888199810E94250B009731F0998388833E
:100EE0001B830A8381E001C080E0DF91CF911F91D5
:100EF0000F910895CF93DF93EC0188819981892B1D
:100F000029F08A819B818617970760F4CE010E94A1
:100F10006007882341F08C819D81892B19F4E88139
:100F2000F981108281E0DF91CF910895EF92FF92D5
:100F30000F931F93CF93DF93EC017B018A01BA01DA
:100F40000E947A07811104C0CE010E944E0707C09B
:100F50001D830C83B701888199810E94FD0BCE010E
:100F6000DF91CF911F910F91FF90EF900895FC01B9
:100F7000118210821382128215821482611571050A
:100F800059F0FB0101900020E9F7AF0141505109F0
:100F9000461B570B0C9496070895EF92FF920F9300
:100FA0001F93CF93DF93EC017B010C811D816115B1
:100FB000710511F480E016C04115510591F0040F40
:100FC000151FB8010E947A078823A1F3288139816F
:100FD0008C819D81B701820F931F0E94FD0B1D83A1
:100FE0000C8381E0DF91CF911F910F91FF90EF90E3
:100FF0000895CF93DF9300D0CDB7DEB769831A820F
:1010000041E050E0BE016F5F7F4F0E94CD070F901F
:101010000F90DF91CF910895FC01248135816217F3
:10102000730748F480819181009729F0FC01E60F55
:10103000F71F8081089580E008950C940C080E94A9
:10104000EF0B08950E94DA080E9421080E948F0089
:10105000CAEAD3E00E949A002097E1F30E94AA0313
:10106000F9CF0C94FE090C94960A08951F920F92E2
:101070000FB60F9211242F933F934F935F936F936B
:101080007F938F939F93AF93BF93EF93FF93E091E1
:101090002E01F0912F010995FF91EF91BF91AF9132
:1010A0009F918F917F916F915F914F913F912F9180
:1010B0000F900FBE0F901F9018951F920F920FB6B2
:1010C0000F9211242F933F934F935F936F937F93CE
:1010D0008F939F93AF93BF93EF93FF93E091300172
:1010E000F09131010995FF91EF91BF91AF919F91DF
:1010F0008F917F916F915F914F913F912F910F90C1
:101100000FBE0F901F9018951F920F920FB60F925F
:1011100011242F933F938F939F93AF93BF9380910D
:10112000870290918802A0918902B0918A02309141
:10113000860223E0230F2D3720F40196A11DB11D57
:1011400005C026E8230F0296A11DB11D209386023B
:101150008093870290938802A0938902B0938A02B9
:1011600080918B0290918C02A0918D02B0918E02A1
:101170000196A11DB11D80938B0290938C02A093C8
:101180008D02B0938E02BF91AF919F918F913F914D
:101190002F910F900FBE0F901F9018952FB7F894B6
:1011A00060918702709188028091890290918A02F1
:1011B0002FBF0895789484B5826084BD84B5816022
:1011C00084BD85B5826085BD85B5816085BDEEE64F
:1011D000F0E0808181608083E1E8F0E0108280812E
:1011E00082608083808181608083E0E8F0E080819C
:1011F00081608083E1EBF0E0808184608083E0EBBC
:10120000F0E0808181608083EAE7F0E080818460A3
:1012100080838081826080838081816080838081FF
:10122000806880831092C1000895833081F028F493
:10123000813099F08230A1F008958730A9F088308C
:10124000B9F08430D1F4809180008F7D03C080910B
:1012500080008F7780938000089584B58F7702C0D7
:1012600084B58F7D84BD08958091B0008F7703C0D1
:101270008091B0008F7D8093B0000895CF93DF936D
:1012800090E0FC01E358FF4F2491FC01EF56FF4F23
:101290008491882349F190E0880F991FFC01E7545D
:1012A000FF4FA591B49181559F4FFC01C591D491F9
:1012B0009FB7611108C0F8948C91209582238C937C
:1012C000888182230AC0623051F4F8948C91322FC5
:1012D000309583238C938881822B888304C0F89473
:1012E0008C91822B8C939FBFDF91CF9108950F93A8
:1012F0001F93CF93DF931F92CDB7DEB7282F30E037
:10130000F901E759FF4F8491F901E358FF4F149118
:10131000F901EF56FF4F04910023C9F0882321F013
:1013200069830E9415096981E02FF0E0EE0FFF1F2D
:10133000E155FF4FA591B4919FB7F8948C9161113D
:1013400003C01095812301C0812B8C939FBF0F9008
:10135000DF91CF911F910F910895CF93DF93282FA5
:1013600030E0F901E759FF4F8491F901E358FF4F4D
:10137000D491F901EF56FF4FC491CC2391F0811124
:101380000E941509EC2FF0E0EE0FFF1FEB55FF4F09
:10139000A591B4912C912D2381E090E021F480E07F
:1013A00002C080E090E0DF91CF910895A1E21A2E73
:1013B000AA1BBB1BFD010DC0AA1FBB1FEE1FFF1FF9
:1013C000A217B307E407F50720F0A21BB30BE40B49
:1013D000F50B661F771F881F991F1A9469F7609590
:1013E0007095809590959B01AC01BD01CF0108954A
:1013F000EE0FFF1F0590F491E02D0994CF93DF933A
:101400008230910510F482E090E0E0919102F09139
:10141000920220E030E0A0E0B0E0309739F1408166
:10142000518148175907B8F04817590771F482815C
:101430009381109729F013969C938E9312972CC04A
:10144000909392028093910227C02115310531F0CB
:101450004217530718F0A901DB0101C0EF019A01FF
:10146000BD01DF010280F381E02DD7CF21153105C9
:10147000F9F0281B390B2430310580F48A819B81D7
:101480006115710521F0FB019383828304C0909361
:10149000920280939102FE01329644C0FE01E20F57
:1014A000F31F8193919322503109398328833AC0E5
:1014B00020918F0230919002232B41F42091020160
:1014C000309103013093900220938F02209100010C
:1014D000309101012115310541F42DB73EB74091FE
:1014E000040150910501241B350BE0918F02F0910E
:1014F0009002E217F307A0F42E1B3F0B28173907C1
:1015000078F0AC014E5F5F4F2417350748F04E0F5F
:101510005F1F5093900240938F028193919302C07A
:10152000E0E0F0E0CF01DF91CF910895CF93DF931A
:10153000009709F487C0FC01329713821282C09190
:101540009102D0919202209781F420813181280F5D
:10155000391F80918F02909190028217930779F53D
:10156000F0939002E0938F026DC0DE0120E030E046
:10157000AE17BF0750F412964D915C9113979D01E1
:101580004115510509F1DA01F3CFB383A2834081FC
:101590005181840F951F8A179B0771F48D919C913F
:1015A0001197840F951F02969183808312968D91D7
:1015B0009C911397938382832115310529F4F0932D
:1015C0009202E09391023EC0D9011396FC93EE93F0
:1015D00012974D915D91A40FB51FEA17FB0779F49F
:1015E00080819181840F951F0296D90111969C9359
:1015F0008E938281938113969C938E931297E0E051
:10160000F0E08A819B81009719F0FE01EC01F9CF8F
:10161000CE01029628813981820F931F20918F027B
:10162000309190022817390769F4309729F4109205
:1016300092021092910202C013821282D093900201
:10164000C0938F02DF91CF910895A0E0B0E0EBE26C
:10165000FBE00C94A20EEC01CB01209719F40E9440
:10166000FE09B8C0FE01E60FF71F9E0122503109A6
:10167000E217F30708F4ACC0D9010D911C91119742
:1016800006171707B8F00530110508F49FC0A80128
:10169000445051094617570708F498C002501109E1
:1016A000061B170B019311936D937C93CF010E943E
:1016B000960A8CC05B01A01AB10A4E01800E911EE1
:1016C000A0919102B0919202612C712C60E070E0C7
:1016D000109709F449C0A815B905C9F5ED90FC901B
:1016E0001197670142E0C40ED11CCA14DB0478F1E3
:1016F00047018A189B08640142E0C40ED11C12966F
:10170000BC9012971396AC91B5E0CB16D10440F083
:10171000B282A38391828082D9018D939C9309C068
:101720000E5F1F4F0E0D1F1DF90111830083EB2D5E
:10173000FA2F6115710531F0DB011396FC93EE93DE
:10174000129744C0F0939202E09391023FC06D91D2
:101750007C9111976616770608F43B01BD0112963D
:101760000D90BC91A02DB4CF60918F02709190022A
:1017700068157905E9F468167906D0F440910001FE
:10178000509101014115510541F44DB75EB760918B
:10179000040170910501461B570BE417F507C0F4CF
:1017A000F0939002E0938F02F901918380830EC041
:1017B0000E94FE097C01009759F0A801BE010E9419
:1017C000F40BCE010E94960AC70104C0CE0102C0EC
:1017D00080E090E0CDB7DEB7EEE00C94BE0E81E085
:1017E00090E0F8940C94D50EFB01DC0102C001904E
:1017F0000D9241505040D8F70895FB01DC01019053
:101800000D920020E1F70895AEE0B0E0EAE0FCE0E0
:101810000C94AC0E0D891E8986E08C831A83098393
:101820008FEF9FE79E838D83AE01475E5F4F6F8989
:10183000788DCE0101960E94260CEF81F885E00F8D
:10184000F11F10822E96E4E00C94C80EACE0B0E0DC
:10185000ECE2FCE00C949E0E7C016B018A01FC0121
:1018600017821682838181FFBDC1CE0101964C0192
:10187000F7019381F60193FD859193FF81916F01AB
:10188000882309F4ABC1853239F493FD859193FF28
:1018900081916F01853229F4B70190E00E940E0E0C
:1018A000E7CF512C312C20E02032A0F48B3269F0AC
:1018B00030F4803259F0833269F420612CC08D32CB
:1018C00039F0803339F4216026C02260246023C0BF
:1018D000286021C027FD27C030ED380F3A3078F45A
:1018E00026FF06C0FAE05F9E300D1124532E13C070
:1018F0008AE0389E300D1124332E20620CC08E32C7
:1019000021F426FD6BC1206406C08C3611F42068DA
:1019100002C0883641F4F60193FD859193FF8191D1
:101920006F018111C1CF982F9F7D9554933028F47A
:101930000C5F1F4FFFE3F9830DC0833631F083370F
:1019400071F0833509F05BC022C0F8018081898382
:101950000E5F1F4F44244394512C540115C038018D
:10196000F2E06F0E711CF801A080B18026FF03C069
:10197000652D70E002C06FEF7FEFC5012C870E94DC
:10198000030E2C0183012C852F77222E17C03801DE
:10199000F2E06F0E711CF801A080B18026FF03C039
:1019A000652D70E002C06FEF7FEFC5012C870E94AC
:1019B000F80D2C012C852068222E830123FC1BC0EE
:1019C000832D90E048165906B0F4B70180E290E00C
:1019D0000E940E0E3A94F4CFF50127FC859127FE64
:1019E00081915F01B70190E00E940E0E31103A9490
:1019F000F1E04F1A51084114510471F7E5C08436E3
:101A000011F0893639F5F80127FF07C0608171812F
:101A1000828193810C5F1F4F08C06081718188278C
:101A200077FD8095982F0E5F1F4F2F76B22E97FF70
:101A300009C090958095709561957F4F8F4F9F4F0E
:101A40002068B22E2AE030E0A4010E94400EA82EA9
:101A5000A81844C0853729F42F7EB22E2AE030E042
:101A600025C0F22FF97FBF2E8F36C1F018F48835CC
:101A700079F0B4C0803719F0883721F0AFC02F2F2C
:101A80002061B22EB4FE0DC08B2D8460B82E09C02B
:101A900024FF0AC09F2F9660B92E06C028E030E0D0
:101AA00005C020E130E002C020E132E0F801B7FEDD
:101AB00007C060817181828193810C5F1F4F06C0D6
:101AC0006081718180E090E00E5F1F4FA4010E9451
:101AD000400EA82EA818FB2DFF77BF2EB6FE0BC018
:101AE0002B2D2E7FA51450F4B4FE0AC0B2FC08C002
:101AF0002B2D2E7E05C07A2C2B2D03C07A2C01C0F5
:101B0000752C24FF0DC0FE01EA0DF11D808180338C
:101B100011F4297E09C022FF06C07394739404C097
:101B2000822F867809F0739423FD13C020FF06C02E
:101B30005A2C731418F4530C5718732C731468F43C
:101B4000B70180E290E02C870E940E0E73942C85E2
:101B5000F5CF731410F4371801C0312C24FF12C0D4
:101B6000B70180E390E02C870E940E0E2C8522FFA7
:101B700017C021FF03C088E590E002C088E790E02D
:101B8000B7010CC0822F867859F021FD02C080E297
:101B900001C08BE227FD8DE2B70190E00E940E0E9E
:101BA000A51438F4B70180E390E00E940E0E5A9419
:101BB000F7CFAA94F401EA0DF11D8081B70190E0FE
:101BC0000E940E0EA110F5CF332009F451CEB701BB
:101BD00080E290E00E940E0E3A94F6CFF7018681E3
:101BE000978102C08FEF9FEF2C96E2E10C94BA0E22
:101BF000FC010590615070400110D8F780959095D8
:101C00008E0F9F1F0895FC016150704001900110DC
:101C1000D8F7809590958E0F9F1F08950F931F936F
:101C2000CF93DF93182F092FEB018B8181FD03C028
:101C30008FEF9FEF20C082FF10C04E815F812C810B
:101C40003D81421753077CF4E881F9819F012F5FA2
:101C50003F4F39832883108306C0E885F985812F9B
:101C60000995892B29F72E813F812F5F3F4F3F83B5
:101C70002E83812F902FDF91CF911F910F91089587
:101C8000FA01AA27283051F1203181F1E8946F93AD
:101C90006E7F6E5F7F4F8F4F9F4FAF4FB1E03ED053
:101CA000B4E03CD0670F781F891F9A1FA11D680FF1
:101CB000791F8A1F911DA11D6A0F711D811D911D24
:101CC000A11D20D009F468943F912AE0269F112499
:101CD0003019305D3193DEF6CF010895462F4770FD
:101CE000405D4193B3E00FD0C9F7F6CF462F4F7058
:101CF000405D4A3318F0495D31FD4052419302D0B6
:101D0000A9F7EACFB4E0A69597958795779567955B
:101D1000BA95C9F700976105710508959B01AC015B
:101D20000A2E06945795479537952795BA95C9F782
:101D3000620F731F841F951FA01D08952F923F925D
:101D40004F925F926F927F928F929F92AF92BF92CB
:101D5000CF92DF92EF92FF920F931F93CF93DF9377
:101D6000CDB7DEB7CA1BDB0B0FB6F894DEBF0FBED4
:101D7000CDBF09942A88398848885F846E847D8421
:101D80008C849B84AA84B984C884DF80EE80FD8023
:101D90000C811B81AA81B981CE0FD11D0FB6F89499
:0E1DA000DEBF0FBECDBFED010895F894FFCF5A
:101DAE0000009302200001000000013434FE020303
:101DBE0004010203040102030401020304010203ED
:101DCE0004010203040102030401020304FF3508A7
:101DDE00350800000000BB00C1001F081F08737407
:101DEE00617475733A202578006972713A202578EE
:101DFE00004D61782052540054585F4453004E52A7
:101E0E00462073656E64696E672E2E2E00736574A0
:101E1E0075703A202578006368616E6E656C3A20A5
:101E2E0025780053797374656D204F6E004E5246BF
:101E3E0020696E69742073656E642E2E2E00636F9A
:101E4E006E6669673A2025780000000000CE00D546
:101E5E00001803A50100000000FB03B0057D0396EA
:101E6E00038803D9030000000067050D0A006E61A8
:0A1E7E006E00696E66006F76660064
:00000001FF
