:100000000C9465000C9450060C9477060C948D00AB
:100010000C948D000C948D000C948D000C94DD05D7
:100020000C948D000C948D000C948D000C948D001C
:100030000C948D000C948D000C948D000C948D000C
:100040000C949E060C948D000C94FA030C942C04D2
:100050000C948D000C948D000C948D000C948D00EC
:100060000C948D000C948D00020000000800020129
:10007000000003040700000000000000000102046B
:10008000081020408001020408102001020408101A
:100090002004040404040404040202020202020311
:1000A00003030303030000000023002600290000CF
:1000B000000000250028002B00000000002400277D
:1000C000002A0000A5005C04D90411241FBECFEF54
:1000D000D8E0DEBFCDBF11E0A0E0B1E0E6E1F8E19D
:1000E00002C005900D92A43BB107D9F722E0A4EB22
:1000F000B1E001C01D92AD36B207E1F710E0CAECE5
:10010000D0E004C02297FE010E940808C43CD10739
:10011000C9F70E943C060C94090C0C9400008091D5
:10012000B4019091B501DC01ED91FC910480F58161
:10013000E02D09948091B4019091B501DC01ED911D
:10014000FC910680F781E02D0994CF93DF9382E044
:1001500090E00E944B06EC01198218820E94C800B0
:1001600086E891E099838883D093B501C093B40168
:10017000DF91CF9108952EE331E0FC01318320839C
:1001800008952EE331E0FC01318320830C944D0669
:100190002EE331E0FC0131832083089526E831E02D
:1001A000FC01318320830C94BB00CF93DF93EC01DF
:1001B0000E94CE00CE01DF91CF910C944D06FF92AC
:1001C0000F931F93CF93DF93F82EC8E0D0E000E8A1
:1001D00010E060E08CE00E948507802F8F2111F0F5
:1001E00061E001C060E089E00E948507110F61E0D5
:1001F0008CE00E9485078BE00E94BB07892B09F0E9
:100200001F5F60E08CE00E9485070695219720978C
:1002100001F7812FDF91CF911F910F91FF900895EA
:10022000CF93DF93D82FC62F60E088E00E94850728
:100230006C2F8D2F0E94DF006C2F80E00E94DF006A
:10024000C82F61E088E00E9485078C2FDF91CF9155
:1002500008951F93CF93DF93182FD62FC42F60E0FC
:1002600088E00E9485076C2F812F0E94DF00182FE5
:100270006C2F8D2F0E94DF0061E088E00E948507CF
:10028000812FDF91CF911F910895AF92BF92DF929E
:10029000EF92FF920F931F93CF93DF931F92CDB7EF
:1002A000DEB7F82E062FE42E122F60E088E0798367
:1002B0000E948507612F8F2D0E94DF00F82ED02E1F
:1002C000A02E7981B72E8A2D8D198E1538F4612FC5
:1002D000F50181915F010E94DF00F5CF61E088E0C8
:1002E0000E9485078F2D0F90DF91CF911F910F9165
:1002F000FF90EF90DF90BF90AF9008950F931F9302
:10030000CF93DF931F92CDB7DEB78C01262F60E02D
:100310008DE029830E948507298144E1B80180EAA4
:100320000E94450161E08DE00E94850785E38A9582
:10033000F1F700000F90DF91CF911F910F91089579
:10034000CF93DF9380910A0180931501CFE0D0E035
:1003500061E085E191E00E947E0121972097C1F73D
:100360008FE891E00197F1F700C0000080910A0149
:10037000880F09F481E080930A01DF91CF910895FD
:100380000F931F93CF93DF93CDB7DEB7CF5FD10924
:100390000FB6F894DEBF0FBECDBF182F8FE891E0E7
:1003A0000197F1F700C0000060E08DE00E94850732
:1003B00061E088E00E94850760E08CE00E9485078C
:1003C000212F45E060E171E080E30E944501212F8B
:1003D00045E06BE071E08AE20E94450141E063E0A4
:1003E00083E20E94290141E06FEF84E20E9429012B
:1003F000412F60E081E20E942901412F61E082E209
:100400000E942901412F64E185E20E942901412FC8
:1004100064E181E30E942901412F6FE086E20E949E
:100420002901412F6EE080E20E94290160E086E010
:100430000E9410011F928F9386E491E09F938F9307
:100440008E010F5F1F4F1F930F930E943809B80151
:1004500086EB91E00E94390560E085E00E94100182
:100460001F928F9380E591E09F938F931F930F933B
:100470000E943809B80186EB91E00E9439050FB659
:10048000F894DEBF0FBECDBFC150DF4F0FB6F8945A
:10049000DEBF0FBECDBFDF91CF911F910F910895A9
:1004A000CF93DF93CDB7DEB7CF5FD1090FB6F89406
:1004B000DEBF0FBECDBF26E040E855E260E070E051
:1004C00086EB91E00E9498036CE571E086EB91E089
:1004D0000E94390561E08DE00E944C0761E088E0F0
:1004E0000E944C0761E08CE00E944C0761E089E0CB
:1004F0000E944C0760E08BE00E944C0760E08AE0BD
:100500000E944C0766E671E086EB91E00E94390597
:1005100081E00E94C00160E087E00E9410011F920C
:100520008F9387E791E09F938F93CE0101969F93DE
:100530008F930E94380940E060E187E20E94290120
:1005400061E085E191E00E947E010F900F900F9095
:100550000F900F900F90C150DF4F0FB6F894DEBF91
:100560000FBECDBFDF91CF910895FC01818D228D0B
:1005700090E0805C9F4F821B91098F7399270895AB
:10058000FC01918D828D981731F0828DE80FF11D5D
:10059000858D90E008958FEF9FEF0895FC01918D78
:1005A000828D981761F0828DDF01A80FB11D5D96D5
:1005B0008C91928D9F5F9F73928F90E008958FEF43
:1005C0009FEF089582E594E0892B49F080E090E068
:1005D000892B29F00E94520481110C940000089587
:1005E000FC01848DDF01A80FB11DA35ABF4F2C91D0
:1005F000848D90E001968F739927848FA689B7899F
:100600002C93A089B1898C9180648C93938D848D77
:10061000981306C00288F389E02D80818F7D808346
:100620000895CF93DF93EC01888D8823C9F0EA8980
:10063000FB89808185FD05C0A889B9898C9186FDDB
:100640000FC00FB607FCF5CF808185FFF2CFA889D8
:10065000B9898C9185FFEDCFCE010E94F002E7CFE2
:10066000DF91CF910895CF92DF92FF920F931F9366
:10067000CF93DF931F92CDB7DEB76C0181E0D60137
:1006800058968C9358975B969C915B975C968C914F
:100690005C97981307C05096ED91FC91519780811B
:1006A00085FD2EC0F601038D10E00F5F1F4F0F7305
:1006B0001127F02EF601848DF81211C00FB607FC39
:1006C000F9CFD6015096ED91FC915197808185FF2D
:1006D000F1CFC60169830E94F0026981EBCF838D5F
:1006E000E80FF11DE35AFF4F6083D6015B960C9330
:1006F0005B975296ED91FC915397808180620CC07C
:10070000D6015696ED91FC91579760835096ED91E6
:10071000FC91519780818064808381E090E00F900C
:10072000DF91CF911F910F91FF90DF90CF900895AF
:10073000BF92CF92DF92EF92FF92CF93DF93EC01C3
:100740006A017B01B22EE889F98982E08083411534
:1007500081EE580761057105A1F060E079E08DE355
:1007600090E0A70196010E94E40721503109410958
:1007700051095695479537952795211580E13807FA
:1007800098F0E889F989108260E874E88EE190E0D9
:10079000A70196010E94E40721503109410951093E
:1007A0005695479537952795EC85FD853083EE85E1
:1007B000FF852083188EEC89FD89B082EA89FB8948
:1007C000808180618083EA89FB8980818860808361
:1007D000EA89FB89808180688083EA89FB8980813E
:1007E0008F7D8083DF91CF91FF90EF90DF90CF904E
:1007F000BF9008951F920F920FB60F9211242F935E
:100800008F939F93EF93FF93E091C601F091C701FF
:100810008081E091CC01F091CD0182FD12C09081E8
:100820008091CF018F5F8F732091D001821751F09B
:10083000E091CF01F0E0EA54FE4F958F8093CF0115
:1008400001C08081FF91EF919F918F912F910F9027
:100850000FBE0F901F9018951F920F920FB60F9218
:1008600011242F933F934F935F936F937F938F93B5
:100870009F93AF93BF93EF93FF9386EB91E00E941A
:10088000F002FF91EF91BF91AF919F918F917F9176
:100890006F915F914F913F912F910F900FBE0F90ED
:1008A0001F90189586EB91E00E94B50221E0892BFC
:1008B00009F420E0822F08951092B9011092B80136
:1008C00088EE93E0A0E0B0E08093BA019093BB0182
:1008D000A093BC01B093BD0182E991E09093B70170
:1008E0008093B60185EC90E09093C3018093C201A0
:1008F00084EC90E09093C5018093C40180EC90E07B
:100900009093C7018093C60181EC90E09093C90158
:100910008093C80182EC90E09093CB018093CA0150
:1009200086EC90E09093CD018093CC011092CF01A2
:100930001092D0011092D1011092D2010895AF927D
:10094000BF92CF92DF92EF92FF920F931F93CF93BC
:10095000DF936C017B01C0E0D0E000E010E0F60125
:10096000EC0FFD1F4AE050E06281C7010E94A10523
:100970005C016EE2C7010E942E058A0D9B1D080FC7
:10098000191F2196C330D10551F74AE050E0F60116
:100990006581C7010E94A105800F911FDF91CF9152
:1009A0001F910F91FF90EF90DF90CF90BF90AF908D
:1009B000089582EA91E0909354028093530210923A
:1009C0005502109256021092570210925802089542
:1009D000CF92DF92EF92FF920F931F93CF93DF930B
:1009E0007C016A01EB0100E010E00C151D0571F0BF
:1009F0006991D701ED91FC910190F081E02DC70143
:100A00000995892B19F00F5F1F4FEFCFC801DF91B8
:100A1000CF911F910F91FF90EF90DF90CF900895AD
:100A2000DC01ED91FC910190F081E02D642F09949F
:100A30006115710581F0DB010D900020E9F7AD0132
:100A400041505109461B570BDC01ED91FC9102808E
:100A5000F381E02D099480E090E00895DC01ED91B0
:100A6000FC910190F081E02D099464EA71E00C940E
:100A700018050F931F93CF93DF93EC010E94180585
:100A80008C01CE010E943505800F911FDF91CF911F
:100A90001F910F9108958F929F92AF92BF92DF9214
:100AA000EF92FF920F931F93CF93DF93CDB7DEB7F3
:100AB000A1970FB6F894DEBF0FBECDBF7C01F42F17
:100AC000D52ECB0119A2223008F42AE08E010F5D49
:100AD0001F4F822E912CA12CB12C6F2F7D2DA501A3
:100AE00094010E94E407F22FD32ECA01015011098C
:100AF0006A3010F4E0E301C0E7E3E60FD801EC93BD
:100B0000232B242B252B49F7B801C7010E94180578
:100B1000A1960FB6F894DEBF0FBECDBFDF91CF9187
:100B20001F910F91FF90EF90DF90BF90AF909F903B
:100B30008F9008952115310511F40C9410050C9433
:100B40004B059A01462F50E060E070E00C949A0546
:100B5000813039F018F0823051F0089510926E0013
:100B6000089580916F008D7F80936F00089580912C
:100B700070008D7F8093700081E08093B000809141
:100B8000B100887F84608093B1001092B300089513
:100B9000CF93C82F809135018C1307C0E8E6F0E0B1
:100BA00084919FEF9093350101C08FEF0E94A805BB
:100BB00060E08C2FCF910C9485071F920F920FB697
:100BC0000F9211242F933F934F935F936F937F93D3
:100BD0008F939F93AF93BF93EF93FF9380915C02AA
:100BE00090915D02A0915E02B0915F02892B8A2BE9
:100BF0008B2B51F190915902E0915A02F0915B02D6
:100C000080818927808380915C0290915D02A09110
:100C10005E02B0915F02181619061A061B06C4F48C
:100C200080915C0290915D02A0915E02B0915F02A2
:100C30000197A109B10980935C0290935D02A09392
:100C40005E02B0935F0204C0809135010E94C80526
:100C5000FF91EF91BF91AF919F918F917F916F9194
:100C60005F914F913F912F910F900FBE0F901F906A
:100C700018950E94330908950E94E8060E943B06D9
:100C80000E948F00C2EED2E00E949A002097E1F30A
:100C90000E94E202F9CF0C940C080C94A408089569
:100CA0001F920F920FB60F9211242F933F934F93E1
:100CB0005F936F937F938F939F93AF93BF93EF93C4
:100CC000FF93E0913601F09137010995FF91EF9183
:100CD000BF91AF919F918F917F916F915F914F9154
:100CE0003F912F910F900FBE0F901F9018951F925C
:100CF0000F920FB60F9211242F933F934F935F9350
:100D00006F937F938F939F93AF93BF93EF93FF93D3
:100D1000E0913801F09139010995FF91EF91BF9170
:100D2000AF919F918F917F916F915F914F913F9183
:100D30002F910F900FBE0F901F9018951F920F923A
:100D40000FB60F9211242F933F938F939F93AF93DE
:100D5000BF938091610290916202A0916302B09171
:100D600064023091600223E0230F2D3720F40196B6
:100D7000A11DB11D05C026E8230F0296A11DB11DBE
:100D8000209360028093610290936202A0936302B9
:100D9000B09364028091650290916602A09167020F
:100DA000B09168020196A11DB11D809365029093D8
:100DB0006602A0936702B0936802BF91AF919F91C2
:100DC0008F913F912F910F900FBE0F901F9018950C
:100DD000789484B5826084BD84B5816084BD85B516
:100DE000826085BD85B5816085BDEEE6F0E08081DD
:100DF00081608083E1E8F0E01082808182608083FE
:100E0000808181608083E0E8F0E080818160808380
:100E1000E1EBF0E0808184608083E0EBF0E08081B2
:100E200081608083EAE7F0E0808184608083808154
:100E300082608083808181608083808180688083FC
:100E40001092C1000895833081F028F4813099F028
:100E50008230A1F008958730A9F08830B9F084304D
:100E6000D1F4809180008F7D03C0809180008F77C6
:100E700080938000089584B58F7702C084B58F7DFC
:100E800084BD08958091B0008F7703C08091B00039
:100E90008F7D8093B0000895CF93DF9390E0FC01A5
:100EA000E358FF4F2491FC01EF56FF4F84918823B4
:100EB00049F190E0880F991FFC01E754FF4FA5917D
:100EC000B49181559F4FFC01C591D4919FB7611199
:100ED00008C0F8948C91209582238C93888182237A
:100EE0000AC0623051F4F8948C91322F30958323EC
:100EF0008C938881822B888304C0F8948C91822BF8
:100F00008C939FBFDF91CF9108950F931F93CF9341
:100F1000DF931F92CDB7DEB7282F30E0F901E759F4
:100F2000FF4F8491F901E358FF4F1491F901EF56F7
:100F3000FF4F04910023C9F0882321F069830E94A8
:100F400023076981E02FF0E0EE0FFF1FE155FF4F0F
:100F5000A591B4919FB7F8948C91611103C010953D
:100F6000812301C0812B8C939FBF0F90DF91CF9184
:100F70001F910F910895CF93DF93282F30E0F9014F
:100F8000E759FF4F8491F901E358FF4FD491F901DC
:100F9000EF56FF4FC491CC2391F081110E9423079B
:100FA000EC2FF0E0EE0FFF1FEB55FF4FA591B49132
:100FB0002C912D2381E090E021F480E002C080E0BC
:100FC00090E0DF91CF910895A1E21A2EAA1BBB1BDE
:100FD000FD010DC0AA1FBB1FEE1FFF1FA217B30705
:100FE000E407F50720F0A21BB30BE40BF50B661F1B
:100FF000771F881F991F1A9469F7609570958095DF
:1010000090959B01AC01BD01CF010895EE0FFF1F2C
:101010000590F491E02D0994CF93DF9382309105F0
:1010200010F482E090E0E0916B02F0916C0220E01D
:1010300030E0A0E0B0E0309739F1408151814817AD
:101040005907B8F04817590771F4828193811097B6
:1010500029F013969C938E9312972CC090936C0258
:1010600080936B0227C02115310531F042175307D9
:1010700018F0A901DB0101C0EF019A01BD01DF01F8
:101080000280F381E02DD7CF21153105F9F0281B1F
:10109000390B2430310580F48A819B8161157105FB
:1010A00021F0FB019383828304C090936C028093B0
:1010B0006B02FE01329644C0FE01E20FF31F8193E2
:1010C000919322503109398328833AC020916902D3
:1010D00030916A02232B41F42091020130910301E7
:1010E00030936A022093690220910001309101013E
:1010F0002115310541F42DB73EB7409104015091BF
:101100000501241B350BE0916902F0916A02E21798
:10111000F307A0F42E1B3F0B2817390778F0AC011A
:101120004E5F5F4F2417350748F04E0F5F1F5093F7
:101130006A02409369028193919302C0E0E0F0E07B
:10114000CF01DF91CF910895CF93DF93009709F4FA
:1011500087C0FC01329713821282C0916B02D0913A
:101160006C02209781F420813181280F391F8091F2
:10117000690290916A028217930779F5F0936A02E7
:10118000E09369026DC0DE0120E030E0AE17BF07DA
:1011900050F412964D915C9113979D0141155105A4
:1011A00009F1DA01F3CFB383A28340815181840F27
:1011B000951F8A179B0771F48D919C911197840F4D
:1011C000951F02969183808312968D919C9113971F
:1011D000938382832115310529F4F0936C02E09307
:1011E0006B023EC0D9011396FC93EE9312974D917A
:1011F0005D91A40FB51FEA17FB0779F480819181F7
:10120000840F951F0296D90111969C938E9382812B
:10121000938113969C938E931297E0E0F0E08A817D
:101220009B81009719F0FE01EC01F9CFCE010296E7
:1012300028813981820F931F2091690230916A02BF
:101240002817390769F4309729F410926C0210922C
:101250006B0202C013821282D0936A02C0936902A9
:10126000DF91CF91089581E090E0F8940C94090CFF
:10127000AEE0B0E0EEE3F9E00C94E00B0D891E89DE
:1012800086E08C831A8309838FEF9FE79E838D838B
:10129000AE01475E5F4F6F89788DCE0101960E9447
:1012A0005A09EF81F885E00FF11F10822E96E4E0D5
:1012B0000C94FC0BACE0B0E0E0E6F9E00C94D20B4F
:1012C0007C016B018A01FC0117821682838181FFF8
:1012D000BDC1CE0101964C01F7019381F60193FD4A
:1012E000859193FF81916F01882309F4ABC1853209
:1012F00039F493FD859193FF81916F01853229F433
:10130000B70190E00E94420BE7CF512C312C20E036
:101310002032A0F48B3269F030F4803259F08332FD
:1013200069F420612CC08D3239F0803339F42160AA
:1013300026C02260246023C0286021C027FD27C06A
:1013400030ED380F3A3078F426FF06C0FAE05F9EA1
:10135000300D1124532E13C08AE0389E300D112415
:10136000332E20620CC08E3221F426FD6BC1206426
:1013700006C08C3611F4206802C0883641F4F601AC
:1013800093FD859193FF81916F018111C1CF982FBA
:101390009F7D9554933028F40C5F1F4FFFE3F98332
:1013A0000DC0833631F0833771F0833509F05BC0AF
:1013B00022C0F801808189830E5F1F4F442443942B
:1013C000512C540115C03801F2E06F0E711CF80168
:1013D000A080B18026FF03C0652D70E002C06FEFD2
:1013E0007FEFC5012C870E94370B2C0183012C85D0
:1013F0002F77222E17C03801F2E06F0E711CF80112
:10140000A080B18026FF03C0652D70E002C06FEFA1
:101410007FEFC5012C870E942C0B2C012C852068A6
:10142000222E830123FC1BC0832D90E04816590611
:10143000B0F4B70180E290E00E94420B3A94F4CFFE
:10144000F50127FC859127FE81915F01B70190E0AE
:101450000E94420B31103A94F1E04F1A51084114A6
:10146000510471F7E5C0843611F0893639F5F80179
:1014700027FF07C060817181828193810C5F1F4FBC
:1014800008C060817181882777FD8095982F0E5F55
:101490001F4F2F76B22E97FF09C0909580957095BB
:1014A00061957F4F8F4F9F4F2068B22E2AE030E02A
:1014B000A4010E94740BA82EA81844C0853729F4F3
:1014C0002F7EB22E2AE030E025C0F22FF97FBF2E0A
:1014D0008F36C1F018F4883579F0B4C0803719F030
:1014E000883721F0AFC02F2F2061B22EB4FE0DC07F
:1014F0008B2D8460B82E09C024FF0AC09F2F9660F0
:10150000B92E06C028E030E005C020E130E002C07E
:1015100020E132E0F801B7FE07C06081718182816D
:1015200093810C5F1F4F06C06081718180E090E065
:101530000E5F1F4FA4010E94740BA82EA818FB2D4C
:10154000FF77BF2EB6FE0BC02B2D2E7FA51450F4B7
:10155000B4FE0AC0B2FC08C02B2D2E7E05C07A2C2A
:101560002B2D03C07A2C01C0752C24FF0DC0FE0169
:10157000EA0DF11D8081803311F4297E09C022FF1C
:1015800006C07394739404C0822F867809F0739414
:1015900023FD13C020FF06C05A2C731418F4530CFB
:1015A0005718732C731468F4B70180E290E02C870D
:1015B0000E94420B73942C85F5CF731410F43718E6
:1015C00001C0312C24FF12C0B70180E390E02C87CA
:1015D0000E94420B2C8522FF17C021FF03C088E523
:1015E00090E002C088E790E0B7010CC0822F8678B7
:1015F00059F021FD02C080E201C08BE227FD8DE29F
:10160000B70190E00E94420BA51438F4B70180E3C3
:1016100090E00E94420B5A94F7CFAA94F401EA0D8D
:10162000F11D8081B70190E00E94420BA110F5CF1F
:10163000332009F451CEB70180E290E00E94420BC2
:101640003A94F6CFF7018681978102C08FEF9FEF22
:101650002C96E2E10C94EE0BFC0105906150704079
:101660000110D8F7809590958E0F9F1F0895FC016B
:101670006150704001900110D8F7809590958E0FC1
:101680009F1F08950F931F93CF93DF93182F092F58
:10169000EB018B8181FD03C08FEF9FEF20C082FFA4
:1016A00010C04E815F812C813D81421753077CF42D
:1016B000E881F9819F012F5F3F4F39832883108391
:1016C00006C0E885F985812F0995892B29F72E8198
:1016D0003F812F5F3F4F3F832E83812F902FDF91DC
:1016E000CF911F910F910895FA01AA27283051F147
:1016F000203181F1E8946F936E7F6E5F7F4F8F4F43
:101700009F4FAF4FB1E03ED0B4E03CD0670F781FA1
:10171000891F9A1FA11D680F791F8A1F911DA11D86
:101720006A0F711D811D911DA11D20D009F46894BF
:101730003F912AE0269F11243019305D3193DEF667
:10174000CF010895462F4770405D4193B3E00FD01D
:10175000C9F7F6CF462F4F70405D4A3318F0495D08
:1017600031FD4052419302D0A9F7EACFB4E0A695EB
:101770009795879577956795BA95C9F7009761050D
:10178000710508959B01AC010A2E06945795479563
:1017900037952795BA95C9F7620F731F841F951F58
:1017A000A01D08952F923F924F925F926F927F9269
:1017B0008F929F92AF92BF92CF92DF92EF92FF9261
:1017C0000F931F93CF93DF93CDB7DEB7CA1BDB0B0D
:1017D0000FB6F894DEBF0FBECDBF09942A883988B2
:1017E00048885F846E847D848C849B84AA84B984B9
:1017F000C884DF80EE80FD800C811B81AA81B981C5
:10180000CE0FD11D0FB6F894DEBF0FBECDBFED01D8
:061810000895F894FFCFDB
:1018160000006D0220000100000001344310100199
:101826003443101001010203040102030401020300
:10183600040102030401020304010203040102037A
:101846000401020304FF4F064F0600000000BB0020
:10185600C1003906390673657475703A202578001B
:101866006368616E6E656C3A2025780053797374EF
:10187600656D204F6E004E524620696E6974207366
:10188600656E642E2E2E00636F6E6669673A20259C
:10189600780000000000CE00D5005002A001000034
:1018A60000003303E804B502CE02C00211030000B3
:1018B60000009F040D0A006E616E00696E66006F7F
:0418C6007666000042
:00000001FF
