:100000000C942E000C9456000C9456000C94560040
:100010000C9456000C9456000C9456000C94560008
:100020000C9456000C9456000C9456000C945600F8
:100030000C9456000C9456000C9456000C945600E8
:100040000C9456000C9456000C9456000C945600D8
:100050000C94560072009700E400090111241FBEA1
:10006000CFE5D4E0DEBFCDBF10E0A0E6B0E0ECE627
:10007000F2E002C005900D92A036B107D9F720E05A
:10008000A0E6B0E001C01D92A039B207E1F710E090
:10009000CCE5D0E004C02297FE010E943001C435B7
:1000A000D107C9F70E9458000C9434010C94000049
:1000B000CF93DF9300D0CDB7DEB744E060E0CE0150
:1000C00001960E94BC00CE0101960E94C000CE01A4
:1000D00001960E94D20080E090E00F900F90DF9197
:1000E000CF9108958AB38093680087B380936900A5
:1000F00084B380936A0081B380936B008BB3809349
:10010000640088B38093650085B38093660082B3F2
:100110008093670089B38093600086B38093610009
:1001200083B38093620080B38093630008958AB3A1
:100130008093740087B38093750084B380937600B6
:1001400081B3809377008BB38093700088B38093E2
:10015000710085B38093720082B38093730089B37A
:1001600080936C0086B380936D0083B380936E00A0
:1001700080B380936F000895FC01608341830895EC
:10018000DC01EC91F0E0E058FF4F21E030E0119607
:100190000C9002C0220F331F0A94E2F78081822B59
:1001A00080830895DC01EC91F0E0E458FF4F21E0FA
:1001B00030E011960C9002C0220F331F0A94E2F730
:1001C0008081822B808308958AB38093800087B3D7
:1001D0008093810084B38093820081B380938300F5
:1001E0008BB380937C0088B380937D0085B380932C
:1001F0007E0082B380937F0089B38093780086B3BA
:100200008093790083B380937A0080B380937B00DE
:1002100008958AB380938C0087B380938D0084B354
:1002200080938E0081B380938F008BB3809388007E
:1002300088B38093890085B380938A0082B38093CA
:100240008B0089B38093840086B38093850083B349
:100250008093860080B3809387000895EE0FFF1F80
:0C0260000590F491E02D0994F894FFCF74
:00000001FF
