:100000000C942A000C943F000C943F000C943F0089
:100010000C943F000C943F000C943F000C943F0064
:100020000C943F000C943F000C943F000C943F0054
:100030000C943F000C943F000C943F000C943F0044
:100040000C943F000C943F000C943F000C943F0034
:100050000C943F0011241FBECFE5D4E0DEBFCDBF1E
:1000600012E0A0E6B0E0E4E3F6E002C005900D92F5
:10007000A036B107D9F70E9441000C9418030C94E4
:100080000000CF93DF93CDB7DEB768970FB6F89433
:10009000DEBF0FBECDBF40E061E0CE0147960E94BB
:1000A0008E0141E061E0CE0145960E948E0142E062
:1000B00061E0CE0143960E948E0143E061E0CE01F3
:1000C00041960E948E0144E061E0CE010F960E94AD
:1000D0008E01EF88F88C0B891C892D893E894F850C
:1000E000588969897A8980E2A82EB12C90E8C92EB6
:1000F000D12CCE0101960E948B0060E0CE010196CA
:100100000E94A70040E052E060E670E0CE01019658
:100110000E945301FFCFAF92BF92CF92DF92EF9236
:10012000FF920F931F93CF93DF93EC010E94440241
:10013000DB86CA86BD86AC86DF91CF911F910F9179
:10014000FF90EF90DF90CF90BF90AF9008951F93F6
:10015000CF93DF93EC01162F0E9476026EEACE0158
:100160000E948C0265EDCE010E948C0260E8CE01F7
:100170000E948C0268EACE010E948C026A8561505E
:10018000CE010E948C0263EDCE010E948C0260E0E1
:10019000CE010E948C0260E4CE010E948C026DE8C8
:1001A000CE010E948C02112311F060E101C064E1D4
:1001B000CE010E948C0260E2CE010E948C0260E0BF
:1001C000CE010E948C0261EACE010E948C0268EC92
:1001D000CE010E948C026AEDCE010E948C0262E088
:1001E000CE010E948C0261E8CE010E948C026FE871
:1001F000CE010E948C0269EDCE010E948C02112377
:1002000011F062E201C061EFCE010E948C026BED41
:10021000CE010E948C0260E4CE010E948C0264EA4E
:10022000CE010E948C0266EACE010E948C026EE230
:10023000CE010E948C026FEACE01DF91CF911F9117
:100240000C948C020F931F93CF93DF93EC0161E228
:100250000E948C0260E0CE010E948C026FEFCE0102
:100260000E948C0262E2CE010E948C0260E0CE010C
:100270000E948C028A859B85809721F463E0CE01E1
:100280000E948C028E01085F1F4FC8010E94CC01A2
:10029000CE0104960E94CC01C801DF91CF911F913D
:1002A0000F910C940602CF92DF92EF92FF920F9380
:1002B0001F93CF93DF93EC017B016A010E9422011F
:1002C00000E010E04C855D852A853B85429FC0019A
:1002D000439F900D529F900D112423E09695879592
:1002E0002A95E1F70817190768F40C151D0538F46D
:1002F000F701E00FF11F6081CE010E94D2020F5F73
:100300001F4FE0CFCE010896DF91CF911F910F9143
:10031000FF90EF90DF90CF900C94CC01FC016083B4
:1003200041830895FC018081813091F028F0823072
:10033000D9F0833029F108952AB381E090E001805B
:1003400002C0880F991F0A94E2F7282B2ABB089550
:1003500027B381E090E0018002C0880F991F0A94C2
:10036000E2F7282B27BB089524B381E090E00180B9
:1003700002C0880F991F0A94E2F7282B24BB089526
:1003800021B381E090E0018002C0880F991F0A9498
:10039000E2F7282B21BB0895FC018081813091F088
:1003A00028F08230D9F0833029F108952BB381E011
:1003B00090E0018002C0880F991F0A94E2F7282B71
:1003C0002BBB089528B381E090E0018002C0880F24
:1003D000991F0A94E2F7282B28BB089525B381E0E2
:1003E00090E0018002C0880F991F0A94E2F7282B41
:1003F00025BB089522B381E090E0018002C0880F00
:10040000991F0A94E2F7282B22BB0895FC018081F2
:10041000813099F028F08230E9F0833041F108957D
:100420002BB381E090E0018002C0880F991F0A94ED
:10043000E2F7809582238BBB089528B381E090E09A
:10044000018002C0880F991F0A94E2F780958223E9
:1004500088BB089525B381E090E0018002C0880F39
:10046000991F0A94E2F78095822385BB089522B3F1
:1004700081E090E0018002C0880F991F0A94E2F7A2
:100480008095822382BB0895EF92FF920F931F9372
:10049000FC017183608353834283358324831783F4
:1004A0000683F186E0861F910F91FF90EF900895EB
:1004B000CF93DF93EC012696CE010E949201CE01EC
:1004C0000E94CC0189EF90E00197F1F700C0000095
:1004D000CE010E94060283EC99E00197F1F700C07B
:1004E0000000CE01DF91CF910C94CC01CF93DF932C
:1004F000EC0104960E949201CE0108960E9492019E
:10050000CE010E949201CE0102960E949201CE017C
:10051000DF91CF910C945802AF92BF92CF92DF92AD
:10052000EF92FF920F931F93CF93DF93EC01A62ED0
:100530008C01085F1F4FC8010E94CC01CE010496B8
:100540000E940602C8010E94060288E0E82EF12CF3
:1005500090E8B92E6E0182E0C80ED11CC6010E943F
:1005600006028B2D8A2121F0CE010E94CC0103C00E
:10057000CE010E940602C6010E94CC01B69481E021
:10058000E81AF108E114F10449F7C801DF91CF91AD
:100590001F910F91FF90EF90DF90CF90BF90AF90A1
:1005A0000C94CC01AF92BF92CF92DF92EF92FF9268
:1005B0000F931F93CF93DF93EC01A62E8C01085F5E
:1005C0001F4FC8010E94CC01CE0104960E94CC01AD
:1005D000C8010E94060228E0E22EF12C30E8B32E7A
:1005E0006E0182E0C80ED11CC6010E9406028B2D4E
:1005F0008A2121F0CE010E94CC0103C0CE010E94CD
:100600000602C6010E94CC01B69481E0E81AF10806
:10061000E114F10449F7C801DF91CF911F910F91C7
:10062000FF90EF90DF90CF90BF90AF900C94CC01F3
:04063000F894FFCF6C
:1006340000000000000000000000000000000000B6
:1006440000000000000000000000000000000000A6
:100654000000000000000000000000000000000096
:100664000000000000000000000000000000008006
:100674008080000000000000000000000000000076
:10068400008080C0C00000000000000000000000E6
:100694000000000000000000000000000000000056
:1006A4000000000000000000000000000000000046
:1006B4000000000000000000000000000000000036
:1006C4000000000080C0E0F0F8FCF8E0000000004A
:1006D4000000000000000000000000000080808096
:1006E400808000808000000000808080808000FF87
:1006F400FFFF0000000080808080000080800000F8
:1007040080FFFF8080008080008080808000808067
:100714000000000000808000008C8E84000080F8BF
:10072400F8F8800000000000000000000000000055
:10073400F0F0F0F0F0F0F0F0F0F0F0F0E0E0C08075
:1007440000E0FCFEFFFFFF7FFFFFFFFFFF00000054
:100754000000000000000000000000FEFFC70101CF
:10076400010183FFFF00007CFEC70101010183FF3B
:10077400FFFF0038FEC78301010183C7FFFF0000AC
:1007840001FFFF010100FFFF0701010100007FFFDE
:1007940080000000FFFF7F0000FFFFFF000001FF5B
:1007A400FFFF010000000000000000000000000046
:1007B400030F3F7F7FFFFFFFFFFFFFFFE7C7C78FE9
:1007C4008F9FBFFFFFC3C0F0FFFFFFFFFFFCFCFCD8
:1007D400FCFCFCFCFCF8F8F0F0E0C00001030303AF
:1007E40003030103030000000001030303030101E9
:1007F40003010000000103030303010103030000DC
:1008040000030300000003030000000000000001D7
:1008140003030303030100000001030100000003BC
:1008240003010000000000000000000000000000C0
:00000001FF
