:100000000C942B000C9453000C9453000C9453004C
:100010000C9453000C9453000C9453000C94530014
:100020000C9453000C9453000C9453000C94530004
:100030000C9453000C9453000C9453000C945300F4
:100040000C9453000C9453000C9453000C945300E4
:100050000C9453009A0311241FBECFE5D4E0DEBFF9
:10006000CDBF10E0A0E6B0E0E0E0FAE002C005900D
:100070000D92A039B107D9F720E0A0E9B0E001C0A6
:100080001D92A93AB207E1F710E0C6E5D0E004C03E
:100090002297FE010E94FA04C435D107C9F70E94D5
:1000A0001C030C94FE040C940000882329F080911A
:1000B000A6009091A700089580919A0090919B00CE
:1000C0000895882329F08091A4009091A5000895B7
:1000D00080919800909199000895882329F080914B
:1000E000A2009091A30008958091960090919700AE
:1000F0000895882329F08091A0009091A10008958F
:1001000080919400909195000895882329F0809122
:100110009E0090919F00089580919200909193008D
:100120000895CF92DF92EF92FF920F931F93CF9398
:10013000DF9300D0CDB7DEB7C82EF62E08E010E072
:1001400080E8D82EE12C8F2D0E946D009A83898340
:10015000CE0101960E9498048D2D8C2151F08F2D97
:100160000E9479009A838983CE0101960E945E04E1
:1001700009C08F2D0E9479009A838983CE01019650
:100180000E949804EE0C8F2D0E946D009A83898343
:10019000CE0101960E945E048F2D0E9485009A83F5
:1001A0008983CE0101960E94D6048111E3948F2D9C
:1001B0000E946D009A838983CE0101960E94980463
:1001C000D694015011090115110509F0BCCF8E2DEF
:1001D0000F900F90DF91CF911F910F91FF90EF90B3
:1001E000DF90CF9008950F931F93CF93DF9300D0AC
:1001F000CDB7DEB7082F162F862F0E9461009A8395
:100200008983CE0101960E949804612F802F0E945D
:100210009100612F80E00E949100082F812F0E94A1
:1002200061009A838983CE0101960E945E04802F2B
:100230000F900F90DF91CF911F910F910895FF9232
:100240000F931F93CF93DF9300D0CDB7DEB7F82E77
:10025000062F142F842F0E9461009A838983CE0178
:1002600001960E949804612F8F2D0E949100F82E14
:10027000612F802F0E949100812F0E9461009A833C
:100280008983CE0101960E945E048F2D0F900F90FE
:10029000DF91CF911F910F91FF900895AF92BF9280
:1002A000CF92DF92EF92FF920F931F93CF93DF9342
:1002B00000D0CDB7DEB7182F7B01C42EB22E822F0F
:1002C0000E9461009A838983CE0101960E9498045E
:1002D0006B2D812F0E949100A82E8701D12CA8019F
:1002E0004E195F094C155D0544F46B2D80E00E94AA
:1002F0009100F80181938F01F2CF8B2D0E94610054
:100300009A838983CE0101960E945E048A2D0F9004
:100310000F90DF91CF911F910F91FF90EF90DF90A1
:10032000CF90BF90AF900895BF92CF92DF92EF929F
:10033000FF920F931F93CF93DF9300D01F92CDB7FF
:10034000DEB7182FE62EC42EF22E822F7B830E945A
:1003500061009A838983CE0101960E9498046F2DD3
:10036000812F0E949100D82EBE2C0E2D7B81172F3D
:10037000802F8B198C1538F46F2DF80181918F0126
:100380000E949100F5CF8F2D0E9461009A8389838E
:10039000CE0101960E945E048D2D0F900F900F905C
:1003A000DF91CF911F910F91FF90EF90DF90CF9051
:1003B000BF9008951F93CF93DF9300D0CDB7DEB7E2
:1003C000182F0E9455009A838983CE0101960E94BE
:1003D0009804812F0E9455009A838983CE0101964B
:1003E0000E945E042FE38DE093E021508040904016
:1003F000E1F700C000000F900F90DF91CF911F91A7
:100400000895FF920F931F93CF93DF9300D0CDB742
:10041000DEB78C01F62E87E00E94F3008093A800DF
:1004200086FF11C08F2D0E9455009A838983CE01CB
:1004300001960E9498042F2D40E2B80181E60E94A7
:100440004E0111E001C010E04F2D6091A80087E23D
:100450000E941F01812F0F900F90DF91CF911F916C
:100460000F91FF900895FF920F931F93CF93DF9307
:1004700000D0CDB7DEB78C01F62E862F0E94550036
:100480009A838983CE0101960E9498042F2D45E01E
:100490006BE670E08AE20E9494012F2D40E2B801E1
:1004A00080EA0E9494018F2D0E9455009A838983CF
:1004B000CE0101960E945E0483E08A95F1F7000068
:1004C0000F900F90DF91CF911F910F91FF900895A2
:1004D0001F93CF93DF9300D0CDB7DEB7182F81E203
:1004E0008A95F1F70000812F0E9455009A83898335
:1004F000CE0101960E949804812F0E9461009A8388
:100500008983CE0101960E945E04812F0E946D00B6
:100510009A838983CE0101960E949804212F45E099
:100520006BE670E080E30E949401212F45E066E6CF
:1005300070E08AE20E949401412F61E081E20E9412
:100540001F01412F61E082E20E941F01412F60E004
:1005500085E20E941F01412F60E281E30E941F019A
:10056000412F67E086E20E941F01412F6EE080E28A
:100570000E941F010F900F90DF91CF911F9108955E
:100580001F93CF93DF9300D0CDB7DEB7182F0E9413
:1005900055009A838983CE0101960E949804812F89
:1005A0000E9461009A838983CE0101960E945E04B5
:1005B000812F0E946D009A838983CE0101960E944B
:1005C0009804212F45E06BE670E080E30E949401DF
:1005D000212F45E066E670E08AE20E949401412FF7
:1005E00061E081E20E941F01412F61E082E20E94EE
:1005F0001F01412F60E085E20E941F01412F60E250
:1006000081E30E941F01412F67E086E20E941F01E3
:10061000412F6FE080E20E941F012FE78FE492E1FB
:10062000215080409040E1F700C000000F900F90F3
:10063000DF91CF911F910895CF93DF93CDB7DEB7B0
:10064000A0970FB6F894DEBF0FBECDBF86EA90E04C
:100650000E94E60384EA90E00E94E60382EA90E0CA
:100660000E94E60380EA90E00E94E6038EE990E0B3
:100670000E9420048CE990E00E9420048AE990E026
:100680000E94E60388E990E00E94E60386E990E094
:100690000E94E60384E990E00E94E60382E990E08C
:1006A0000E94200480E990E00E94200480E00E94E3
:1006B000C00261E080E790E00E94330281E00E9486
:1006C00068028FEF87BB81E088BB03E010E09AEA05
:1006D000F92EF092700061E080E790E00E94330212
:1006E0000150110901151105A1F711E00FEF61E0AB
:1006F00080E790E00E9433022FE988E696E02150DF
:1007000080409040E1F700C0000080E00E94DA01E4
:1007100060E0CE0101960E940102882319F007BB18
:10072000898188BB18BB110F61E080E790E00E94CF
:100730003302DDCF42E060E086EA90E00E94E2030F
:1007400043E060E084EA90E00E94E20341E060E080
:1007500082EA90E00E94E20344E060E080EA90E0F8
:100760000E94E20340E060E08EE990E00E94E20334
:1007700045E060E08CE990E00E94E20342E063E043
:100780008AE990E00E94E20343E063E088E990E0B8
:100790000E94E20341E063E086E990E00E94E20308
:1007A00044E063E084E990E00E94E20340E063E01B
:1007B00082E990E00E94E20345E063E080E990E096
:1007C0000C94E203FC01608341830895FC01808165
:1007D000813091F028F08230D9F0833029F10895EA
:1007E0002AB381E090E0018002C0880F991F0A942B
:1007F000E2F7282B2ABB089527B381E090E001801F
:1008000002C0880F991F0A94E2F7282B27BB08958E
:1008100024B381E090E0018002C0880F991F0A9400
:10082000E2F7282B24BB089521B381E090E00180FA
:1008300002C0880F991F0A94E2F7282B21BB089564
:10084000FC018081813099F028F08230E9F083301A
:1008500041F108952AB381E090E0018002C0880F41
:10086000991F0A94E2F7809582238ABB089527B3E3
:1008700081E090E0018002C0880F991F0A94E2F79E
:100880008095822387BB089524B381E090E00180A6
:1008900002C0880F991F0A94E2F78095822384BBD7
:1008A000089521B381E090E0018002C0880F991F74
:1008B0000A94E2F78095822381BB0895FC01808130
:1008C000813091F028F08230D9F0833029F10895F9
:1008D0002BB381E090E0018002C0880F991F0A9439
:1008E000E2F7282B2BBB089528B381E090E001802C
:1008F00002C0880F991F0A94E2F7282B28BB08959D
:1009000025B381E090E0018002C0880F991F0A940E
:10091000E2F7282B25BB089522B381E090E0018007
:1009200002C0880F991F0A94E2F7282B22BB089572
:10093000FC018081813099F028F08230E9F0833029
:1009400041F108952BB381E090E0018002C0880F4F
:10095000991F0A94E2F7809582238BBB089528B3F0
:1009600081E090E0018002C0880F991F0A94E2F7AD
:100970008095822388BB089525B381E090E00180B3
:1009800002C0880F991F0A94E2F78095822385BBE5
:10099000089522B381E090E0018002C0880F991F82
:1009A0000A94E2F78095822382BB0895FC0120819E
:1009B0004181213049F030F0223041F0233081F480
:1009C00080B305C089B303C086B301C083B321E0FF
:1009D00030E0042E01C0220F0A94EAF7822301C0FE
:1009E00080E090E002C0959587954A95E2F70895DA
:1009F000EE0FFF1F0590F491E02D0994F894FFCFBE
:100A00000000A900200034431010013443101001ED
:100A10000102030405060708091011121314151624
:100A2000171819202122232425262728293031327E
:00000001FF
