:100000000C942B000C9453000C9453000C9453004C
:100010000C9453000C9453000C9453000C94530014
:100020000C9453000C9453000C9453000C94530004
:100030000C9453000C9453000C9453000C945300F4
:100040000C9453000C9453000C9453000C945300E4
:100050000C945300180311241FBECFE5D4E0DEBF7B
:10006000CDBF10E0A0E6B0E0ECEFF8E002C00590F4
:100070000D92A836B107D9F720E0A8E6B0E001C09C
:100080001D92A138B207E1F710E0C6E5D0E004C048
:100090002297FE010E947804C435D107C9F70E9457
:1000A000C8020C947C040C940000882329F08091F1
:1000B0007E0090917F00089580917200909173006E
:1000C0000895882329F080917C0090917D00089507
:1000D00080917000909171000895882329F080919B
:1000E0007A0090917B00089580916E0090916F004E
:1000F0000895882329F080917800909179000895DF
:1001000080916C0090916D000895882329F0809172
:10011000760090917700089580916A0090916B002D
:100120000895CF92DF92EF92FF920F931F93CF9398
:10013000DF9300D0CDB7DEB7C82EF62E08E010E072
:1001400080E8D82EE12C8F2D0E946D009A83898340
:10015000CE0101960E9416048D2D8C2151F08F2D19
:100160000E9479009A838983CE0101960E94DC0364
:1001700009C08F2D0E9479009A838983CE01019650
:100180000E941604EE0C8F2D0E946D009A838983C5
:10019000CE0101960E94DC038F2D0E9485009A8378
:1001A0008983CE0101960E9454048111E3948F2D1E
:1001B0000E946D009A838983CE0101960E941604E5
:1001C000D694015011090115110509F0BCCF8E2DEF
:1001D0000F900F90DF91CF911F910F91FF90EF90B3
:1001E000DF90CF9008950F931F93CF93DF9300D0AC
:1001F000CDB7DEB7082F162F862F0E9461009A8395
:100200008983CE0101960E94160481E28A95F1F756
:100210000000612F802F0E94910081E28A95F1F702
:100220000000612F80E00E949100082F81E28A95F2
:10023000F1F70000812F0E9461009A838983CE012B
:1002400001960E94DC03802F0F900F90DF91CF91D9
:100250001F910F910895FF920F931F93CF93DF93F8
:1002600000D0CDB7DEB7F82E062F142F842F0E94B2
:1002700061009A838983CE0101960E941604612F42
:100280008F2D0E949100F82E81E28A95F1F70000EF
:10029000612F802F0E94910081E28A95F1F7000082
:1002A000812F0E9461009A838983CE0101960E946A
:1002B000DC038F2D0F900F90DF91CF911F910F9145
:1002C000FF900895AF92BF92CF92DF92EF92FF928C
:1002D0000F931F93CF93DF9300D0CDB7DEB7182FC6
:1002E0007B01C42EB22E822F0E9461009A838983E3
:1002F000CE0101960E9416046B2D812F0E94910061
:10030000A82E8701D12CA8014E195F094C155D0557
:1003100044F46B2D80E00E949100F80181938F01DD
:10032000F2CF8B2D0E9461009A838983CE010196C2
:100330000E94DC038A2D0F900F90DF91CF911F91C7
:100340000F91FF90EF90DF90CF90BF90AF90089506
:10035000BF92CF92DF92EF92FF920F931F93CF93B2
:10036000DF9300D01F92CDB7DEB7182FE62EC42E34
:10037000F22E822F7B830E9461009A838983CE01B3
:1003800001960E94160481E28A95F1F700006F2D14
:10039000812F0E949100D82EE1E2EA95F1F700004A
:1003A000BE2C0E2D7B81172F802F8B198C1558F4A6
:1003B0006F2DF80181918F010E949100F1E2FA9571
:1003C000F1F70000F1CF81E28A95F1F700008F2D5F
:1003D0000E9461009A838983CE0101960E94DC030A
:1003E0008D2D0F900F900F90DF91CF911F910F9156
:1003F000FF90EF90DF90CF90BF9008951F93CF9321
:10040000DF9300D0CDB7DEB7182F0E9455009A8336
:100410008983CE0101960E941604412F6FE080E28D
:100420000E942B01812F0E9455009A838983CE015F
:1004300001960E94DC038BE28A95F1F700000F9091
:100440000F90DF91CF911F910895FF920F931F930B
:10045000CF93DF9300D0CDB7DEB78C01F62E81E2CB
:100460008A95F1F7000087E00E94F30080938000F6
:1004700086FF11C08F2D0E9455009A838983CE017B
:1004800001960E9416042F2D41E0B80181E60E94DA
:10049000620111E001C010E04F2D6FEF87E20E9472
:1004A0002B01812F0F900F90DF91CF911F910F9112
:1004B000FF9008951F93CF93DF9300D0CDB7DEB7A1
:1004C000182F81E28A95F1F70000812F0E945500D4
:1004D0009A838983CE0101960E94160491E29A952F
:1004E000F1F70000812F0E9461009A838983CE0179
:1004F00001960E94DC03812F0E946D009A838983FC
:10050000CE0101960E941604212F41E066E670E0BC
:100510008AE20E94A801412F60E081E20E942B0143
:10052000412F61E082E20E942B0141E063E083E21F
:100530000E942B0141E060E084E20E942B01412FE8
:1005400060E085E20E942B01412F61E081E30E947F
:100550002B01412F67E086E20E942B01412F6FE0C3
:1005600080E20E942B01812F0E9455009A8389838B
:10057000CE0101960E94DC0383EF91E00197F1F731
:1005800000C000000F900F90DF91CF911F91089550
:10059000CF93DF931F92CDB7DEB78EE790E00E9436
:1005A00064038CE790E00E9464038AE790E00E9475
:1005B000640388E790E00E94640386E790E00E946D
:1005C0009E0384E790E00E949E0382E790E00E94F1
:1005D000640380E790E00E9464038EE690E00E944E
:1005E00064038CE690E00E9464038AE690E00E9437
:1005F0009E0388E690E00E949E038FEF87BB80E019
:100600000E945A022FE78AE196E0215080409040F4
:10061000E1F700C0000080E00E94FE0160E0CE0132
:1006200001960E9425028823B1F3898188BBF3CF0C
:1006300042E063E08EE790E00E94600343E063E005
:100640008CE790E00E94600341E063E08AE790E07D
:100650000E94600344E063E088E790E00E9460034A
:1006600040E063E086E790E00E94600345E063E0DD
:1006700084E790E00E94600342E063E082E790E05C
:100680000E94600343E063E080E790E00E94600323
:1006900041E063E08EE690E00E94600344E063E0A6
:1006A0008CE690E00E94600340E063E08AE690E020
:1006B0000E94600345E063E088E690E00C946003EC
:1006C000FC01608341830895FC018081813091F0B9
:1006D00028F08230D9F0833029F108952AB381E0DF
:1006E00090E0018002C0880F991F0A94E2F7282B3E
:1006F0002ABB089527B381E090E0018002C0880FF3
:10070000991F0A94E2F7282B27BB089524B381E0B0
:1007100090E0018002C0880F991F0A94E2F7282B0D
:1007200024BB089521B381E090E0018002C0880FCE
:10073000991F0A94E2F7282B21BB0895FC018081C0
:10074000813099F028F08230E9F0833041F108954A
:100750002AB381E090E0018002C0880F991F0A94BB
:10076000E2F7809582238ABB089527B381E090E069
:10077000018002C0880F991F0A94E2F780958223B6
:1007800087BB089524B381E090E0018002C0880F08
:10079000991F0A94E2F78095822384BB089521B3C0
:1007A00081E090E0018002C0880F991F0A94E2F76F
:1007B0008095822381BB0895FC018081813091F076
:1007C00028F08230D9F0833029F108952BB381E0ED
:1007D00090E0018002C0880F991F0A94E2F7282B4D
:1007E0002BBB089528B381E090E0018002C0880F00
:1007F000991F0A94E2F7282B28BB089525B381E0BE
:1008000090E0018002C0880F991F0A94E2F7282B1C
:1008100025BB089522B381E090E0018002C0880FDB
:10082000991F0A94E2F7282B22BB0895FC018081CE
:10083000813099F028F08230E9F0833041F1089559
:100840002BB381E090E0018002C0880F991F0A94C9
:10085000E2F7809582238BBB089528B381E090E076
:10086000018002C0880F991F0A94E2F780958223C5
:1008700088BB089525B381E090E0018002C0880F15
:10088000991F0A94E2F78095822385BB089522B3CD
:1008900081E090E0018002C0880F991F0A94E2F77E
:1008A0008095822382BB0895FC0120814181213003
:1008B00049F030F0223041F0233081F480B305C09C
:1008C00089B303C086B301C083B321E030E0042EB6
:1008D00001C0220F0A94EAF7822301C080E090E071
:1008E00002C0959587954A95E2F70895EE0FFF1F90
:0C08F0000590F491E02D0994F894FFCFDE
:0808FC0000008100200034001F
:00000001FF
