:100000000C942B000C9453000C9453000C9453004C
:100010000C9453000C9453000C9453000C94530014
:100020000C9453000C9453000C9453000C94530004
:100030000C9453000C9453000C9453000C945300F4
:100040000C9453000C9453000C9453000C945300E4
:100050000C945300130311241FBECFE5D4E0DEBF80
:10006000CDBF10E0A0E6B0E0E2EFF8E002C00590FE
:100070000D92A037B107D9F720E0A0E7B0E001C0AA
:100080001D92A938B207E1F710E0C6E5D0E004C040
:100090002297FE010E947304C435D107C9F70E945C
:1000A000C5020C9477040C940000882329F08091F9
:1000B000860090918700089580917A0090917B004E
:1000C0000895882329F080918400909185000895F7
:1000D00080917800909179000895882329F080918B
:1000E000820090918300089580917600909177002E
:1000F0000895882329F080918000909181000895CF
:1001000080917400909175000895882329F0809162
:100110007E0090917F00089580917200909173000D
:100120000895CF92DF92EF92FF920F931F93CF9398
:10013000DF9300D0CDB7DEB7C82EF62E08E010E072
:1001400080E8D82EE12C8F2D0E946D009A83898340
:10015000CE0101960E9411048D2D8C2151F08F2D1E
:100160000E9479009A838983CE0101960E94D70369
:1001700009C08F2D0E9479009A838983CE01019650
:100180000E941104EE0C8F2D0E946D009A838983CA
:10019000CE0101960E94D7038F2D0E9485009A837D
:1001A0008983CE0101960E944F048111E3948F2D23
:1001B0000E946D009A838983CE0101960E941104EA
:1001C000D694015011090115110509F0BCCF8E2DEF
:1001D0000F900F90DF91CF911F910F91FF90EF90B3
:1001E000DF90CF9008950F931F93CF93DF9300D0AC
:1001F000CDB7DEB7082F162F862F0E9461009A8395
:100200008983CE0101960E941104612F802F0E94E4
:100210009100612F80E00E949100082F812F0E94A1
:1002200061009A838983CE0101960E94D703802FB3
:100230000F900F90DF91CF911F910F910895FF9232
:100240000F931F93CF93DF9300D0CDB7DEB7F82E77
:10025000062F142F842F0E9461009A838983CE0178
:1002600001960E941104612F8F2D0E949100F82E9B
:1002700081E28A95F1F70000612F802F0E949100A2
:1002800081E28A95F1F70000812F0E9461009A8334
:100290008983CE0101960E94D7038F2D0F900F9076
:1002A000DF91CF911F910F91FF900895AF92BF9270
:1002B000CF92DF92EF92FF920F931F93CF93DF9332
:1002C00000D0CDB7DEB7182F7B01C42EB22E822FFF
:1002D0000E9461009A838983CE0101960E941104D5
:1002E0006B2D812F0E949100A82E8701D12CA8018F
:1002F0004E195F094C155D0544F46B2D80E00E949A
:100300009100F80181938F01F2CF8B2D0E94610043
:100310009A838983CE0101960E94D7038A2D0F907C
:100320000F90DF91CF911F910F91FF90EF90DF9091
:10033000CF90BF90AF900895BF92CF92DF92EF928F
:10034000FF920F931F93CF93DF9300D01F92CDB7EF
:10035000DEB7182FE62EC42EF22E822F7B830E944A
:1003600061009A838983CE0101960E94110481E283
:100370008A95F1F700006F2D812F0E949100D82EF1
:10038000E1E2EA95F1F70000BE2C0E2D7B81172FDC
:10039000802F8B198C1558F46F2DF80181918F01E6
:1003A0000E949100F1E2FA95F1F70000F1CF81E2AD
:1003B0008A95F1F700008F2D0E9461009A8389834E
:1003C000CE0101960E94D7038D2D0F900F900F90B4
:1003D000DF91CF911F910F91FF90EF90DF90CF9021
:1003E000BF9008951F93CF93DF9300D0CDB7DEB7B2
:1003F000182F0E9455009A838983CE0101960E948E
:100400001104412F6FE080E20E941F01812F0E94A2
:1004100055009A838983CE0101960E94D70300C0BC
:100420000F900F90DF91CF911F910895FF920F933E
:100430001F93CF93DF9300D0CDB7DEB78C01F62E9C
:1004400081E28A95F1F7000087E00E94F300809333
:10045000880086FF11C08F2D0E9455009A838983E2
:10046000CE0101960E9411042F2D44E1B80181E6CE
:100470000E94560111E001C010E04F2D6FEF87E29E
:100480000E941F014F2D6FEF82EE0E941F01812FEE
:100490000F900F90DF91CF911F910F91FF900895D2
:1004A0001F93CF93DF9300D0CDB7DEB7182F81E233
:1004B0008A95F1F70000812F0E9455009A83898365
:1004C000CE0101960E94110491E29A95F1F7000085
:1004D000812F0E9461009A838983CE0101960E9438
:1004E000D703812F0E946D009A838983CE010196E4
:1004F0000E941104212F45E06BE670E080E30E942A
:100500009C01212F45E066E670E08AE20E949C0192
:10051000412F60E081E20E941F01412F61E082E2F1
:100520000E941F0141E063E083E20E941F0141E05D
:100530006FEF84E20E941F01412F64E185E20E9477
:100540001F01412F64E181E30E941F01412F6FE0F1
:1005500086E20E941F01412F6FE080E20E941F018E
:10056000812F0E9455009A838983CE0101960E94B3
:10057000D70383EF91E00197F1F700C000000F90DF
:100580000F90DF91CF911F910895CF93DF93CDB757
:10059000DEB764970FB6F894DEBF0FBECDBF86E816
:1005A00090E00E945F0384E890E00E945F0382E88D
:1005B00090E00E945F0380E890E00E945F038EE776
:1005C00090E00E9499038CE790E00E9499038AE7EB
:1005D00090E00E945F0388E790E00E945F0386E757
:1005E00090E00E945F0384E790E00E945F0382E74F
:1005F00090E00E94990380E790E00E9499038FEFBA
:100600008ABB8BBB87BB80E00E94500280E00E94C7
:10061000F20160E0CE0101960E9416028823B1F338
:10062000898188BBF3CF42E063E086E890E00E94D6
:100630005B0343E063E084E890E00E945B0341E0F9
:1006400063E082E890E00E945B0344E063E080E8BE
:1006500090E00E945B0340E063E08EE790E00E9440
:100660005B0345E063E08CE790E00E945B0342E0BF
:1006700063E08AE790E00E945B0343E063E088E781
:1006800090E00E945B0341E063E086E790E00E9417
:100690005B0344E063E084E790E00E945B0340E09A
:1006A00063E082E790E00E945B0345E063E080E75F
:1006B00090E00C945B03FC01608341830895FC018E
:1006C0008081813091F028F08230D9F0833029F197
:1006D00008952AB381E090E0018002C0880F991F3D
:1006E0000A94E2F7282B2ABB089527B381E090E013
:1006F000018002C0880F991F0A94E2F7282B27BBBC
:10070000089524B381E090E0018002C0880F991F12
:100710000A94E2F7282B24BB089521B381E090E0EE
:10072000018002C0880F991F0A94E2F7282B21BB91
:100730000895FC018081813099F028F08230E9F041
:10074000833041F108952AB381E090E0018002C036
:10075000880F991F0A94E2F7809582238ABB089537
:1007600027B381E090E0018002C0880F991F0A94AE
:10077000E2F78095822387BB089524B381E090E05F
:10078000018002C0880F991F0A94E2F780958223A6
:1007900084BB089521B381E090E0018002C0880FFE
:1007A000991F0A94E2F78095822381BB0895FC018A
:1007B0008081813091F028F08230D9F0833029F1A6
:1007C00008952BB381E090E0018002C0880F991F4B
:1007D0000A94E2F7282B2BBB089528B381E090E020
:1007E000018002C0880F991F0A94E2F7282B28BBCA
:1007F000089525B381E090E0018002C0880F991F21
:100800000A94E2F7282B25BB089522B381E090E0FB
:10081000018002C0880F991F0A94E2F7282B22BB9F
:100820000895FC018081813099F028F08230E9F050
:10083000833041F108952BB381E090E0018002C044
:10084000880F991F0A94E2F7809582238BBB089545
:1008500028B381E090E0018002C0880F991F0A94BC
:10086000E2F78095822388BB089525B381E090E06C
:10087000018002C0880F991F0A94E2F780958223B5
:1008800085BB089522B381E090E0018002C0880F0B
:10089000991F0A94E2F78095822382BB0895FC0198
:1008A00020814181213049F030F0223041F0233065
:1008B00081F480B305C089B303C086B301C083B39C
:1008C00021E030E0042E01C0220F0A94EAF78223CF
:1008D00001C080E090E002C0959587954A95E2F7C7
:1008E0000895EE0FFF1F0590F491E02D0994F89400
:0208F000FFCF38
:1008F200000089002000344310100134431010011D
:00000001FF
