:100000000C942A000C9447000C9447000C94470071
:100010000C9447000C9447000C9447000C94470044
:100020000C9447000C9447000C9447000C94470034
:100030000C9447000C9447000C9447000C94470024
:100040000C9447000C9447000C9447000C94470014
:100050000C94470011241FBECFE5D4E0DEBFCDBF16
:1000600011E0A0E6B0E0E2E0FBE002C005900D92F6
:10007000AA37B107D9F721E0AAE7B1E001C01D9284
:10008000AE37B207E1F70E9449000C947F050C944B
:100090000000AF92BF92CF92DF92EF92FF920F9348
:1000A0001F93CF93DF93CDB7DEB7C357D1090FB6F8
:1000B000F894DEBF0FBECDBF40E061E0CE018E58A8
:1000C0009F4F0E94D30041E061E0CE0180599F4FD5
:1000D0000E94D30042E061E0CE0182599F4F0E940E
:1000E000D30043E061E0CE0184599F4F0E94D300CA
:1000F00044E061E0CE0186599F4F0E94D300E49610
:10010000EEACFFACE497E0960EAD1FADE097E29643
:100110002EAD3FADE297AC964EAD5FADAC97AE96CF
:100120006EAD7FADAE9780E2A82EB12C90E8C92EBF
:10013000D12CCE01845A9F4F0E94380360E0CE013B
:10014000845A9F4F0E94560340E250E060E870E0FE
:10015000CE0101960E94B30266E771E0CE010196DE
:100160000E94CF02BE016F5F7F4FCE01845A9F4F26
:100170000E942204CE01845A9F4F0E94540380E0C3
:1001800090E0CD58DF4F0FB6F894DEBF0FBECDBF65
:10019000DF91CF911F910F91FF90EF90DF90CF9063
:1001A000BF90AF900895FC01608341830895FC01E6
:1001B0008081813091F028F08230D9F0833029F1AC
:1001C00008952AB381E090E0018002C0880F991F52
:1001D0000A94E2F7282B2ABB089527B381E090E028
:1001E000018002C0880F991F0A94E2F7282B27BBD1
:1001F000089524B381E090E0018002C0880F991F28
:100200000A94E2F7282B24BB089521B381E090E003
:10021000018002C0880F991F0A94E2F7282B21BBA6
:100220000895FC018081813091F028F08230D9F06E
:10023000833029F108952BB381E090E0018002C062
:10024000880F991F0A94E2F7282B2BBB089528B337
:1002500081E090E0018002C0880F991F0A94E2F7C4
:10026000282B28BB089525B381E090E0018002C0CF
:10027000880F991F0A94E2F7282B25BB089522B313
:1002800081E090E0018002C0880F991F0A94E2F794
:10029000282B22BB0895FC018081813099F028F041
:1002A0008230E9F0833041F108952BB381E090E092
:1002B000018002C0880F991F0A94E2F7809582237B
:1002C0008BBB089528B381E090E0018002C0880FC5
:1002D000991F0A94E2F78095822388BB089525B37D
:1002E00081E090E0018002C0880F991F0A94E2F734
:1002F0008095822385BB089522B381E090E0018040
:1003000002C0880F991F0A94E2F78095822382BB6E
:100310000895EF92FF920F931F93FC017183608306
:10032000538342833583248317830683F186E086D3
:100330001F910F91FF90EF900895CF93DF93EC0101
:100340002696CE010E94D700CE010E94110189EFAE
:1003500090E00197F1F700C00000CE010E944B0130
:1003600083EC99E00197F1F700C00000CE01DF9126
:10037000CF910C941101CF93DF93EC0104960E946E
:10038000D700CE0108960E94D700CE010E94D70068
:10039000CE0102960E94D700CE01DF91CF910C943E
:1003A0009D01AF92BF92CF92DF92EF92FF920F9397
:1003B0001F93CF93DF93EC01A62E8C01085F1F4F94
:1003C000C8010E941101CE0104960E944B01C80190
:1003D0000E944B0188E0E82EF12C90E8B92E6E01C6
:1003E00082E0C80ED11CC6010E944B018B2D8A21D0
:1003F00021F0CE010E94110103C0CE010E944B01E9
:10040000C6010E941101B69481E0E81AF108E114D6
:10041000F10449F7C801DF91CF911F910F91FF902F
:10042000EF90DF90CF90BF90AF900C941101CF92DE
:10043000DF92EF92FF920F931F93CF93DF938C0184
:10044000C62EC8E0D0E020E8D22E7C0182E0E80E83
:10045000F11CC7010E944B018D2D8C2121F0C80198
:100460000E94110103C0C8010E944B01C7010E94F4
:100470001101D6942197209761F7DF91CF911F91B9
:100480000F91FF90EF90DF90CF90089508951F9304
:10049000CF93DF93E0916600C7E6D0E081E090E083
:1004A000A0E0B0E0F0E0E817F90738F079917613B2
:1004B00002C0DC0111970196F6CFED01CA59DF4F5A
:1004C000CE0FDF1F1981CF01880F991F019660E0C1
:1004D00070E0EA59FF4F6A177B0749F0EF01C60F3A
:1004E000D71FC9818C0F911D6F5F7F4FF4CF8A5941
:1004F0009F4FFA0191838083812F90E0F9019183CE
:100500008083DF91CF911F910895FC014481558133
:1005100022813381429FC001439F900D529F900DD5
:10052000112423E0969587952A95E1F7DB018D93B9
:100530009C93808191810895FC0124813581828181
:100540009381289FA001299F500D389F500D1124A1
:1005500033E0569547953A95E1F760E070E0808189
:1005600091810C947805CF93DF93EC017B836A83B0
:100570005D834C83649FC001659F900D749F900DB7
:10058000112443E0969587954A95E1F70E9451041E
:1005900099838883CE01DF91CF910C949C02CF92F6
:1005A000DF92EF92FF920F931F93CF93DF9300D0D0
:1005B00000D01F92CDB7DEB76C011C821B827B017D
:1005C00000E010E0F70161917F01662309F442C069
:1005D0009E012F5F3F4FAE014D5F5F4FCE010596ED
:1005E0000E944702D60112962D913C911397C801A3
:1005F000B9010E943D04FB0189819A81800F911FFE
:10060000B9010E943D04E617F70740F43196E29FD6
:100610008001E39F100DF29F100D112420E030E0C7
:1006200089819A812817390780F4EB81FC81E20FD8
:10063000F31F8081D601ED91FC91E00FF11FE20FD5
:10064000F31F80832F5F3F4FEBCF0F5F1F4F080FCC
:10065000191FB8CF0F900F900F900F900F90DF9150
:10066000CF911F910F91FF90EF90DF90CF90089561
:10067000AF92BF92CF92DF92EF92FF920F931F93B0
:10068000CF93DF93EC010E948901DB86CA86BD8689
:10069000AC86DF91CF911F910F91FF90EF90DF908B
:1006A000CF90BF90AF9008950C9446021F93CF93C4
:1006B000DF93EC01162F0E94BB016EEACE010E946F
:1006C000D10165EDCE010E94D10160E8CE010E940A
:1006D000D10168EACE010E94D1016C856150CE0142
:1006E0000E94D10163EDCE010E94D10160E0CE01F4
:1006F0000E94D10160E4CE010E94D1016DE8CE01DB
:100700000E94D101112311F060E101C064E1CE012A
:100710000E94D10160E2CE010E94D10160E0CE01D1
:100720000E94D10161EACE010E94D10168ECCE01A4
:100730000E94D1016AEDCE010E94D10162E0CE019A
:100740000E94D10161E8CE010E94D1016FE8CE0183
:100750000E94D10169EDCE010E94D101112311F057
:1007600062E201C061EFCE010E94D1016BEDCE01CA
:100770000E94D10160E4CE010E94D10164EACE0161
:100780000E94D10166EACE010E94D1016EE2CE0143
:100790000E94D1016FEACE01DF91CF911F910C949D
:1007A000D101AF92BF92CF92DF92EF92FF920F935F
:1007B0001F93CF93DF93EC015B016A0161E20E941A
:1007C000D10160E0CE010E94D1016A856150CE0165
:1007D0000E94D10162E2CE010E94D10160E0CE010F
:1007E0000E94D1018C859D85809721F463E0CE0124
:1007F0000E94D1017E0188E0E80EF11CC7010E9431
:100800001101CE0104960E941101C7010E944B0103
:100810008501CA0CDB1C0C151D0539F0F80161912E
:100820008F01CE010E941702F6CFC701DF91CF9151
:100830001F910F91FF90EF90DF90CF90BF90AF90FE
:100840000C9411010F931F93CF93DF9300D0CDB77A
:10085000DEB78C01CB01BE016F5F7F4F0E94850226
:1008600049815A81BC01C8010E94D1030F900F90A9
:10087000DF91CF911F910F910895AA1BBB1B51E1EE
:1008800007C0AA1FBB1FA617B70710F0A61BB70B00
:10089000881F991F5A95A9F780959095BC01CD01A5
:1008A0000895CF93DF938230910510F482E090E0B9
:1008B000E0917C01F0917D0120E030E0A0E0B0E02B
:1008C000309739F14081518148175907B8F04817DE
:1008D000590771F482819381109729F013969C93A4
:1008E0008E9312972CC090937D0180937C0127C03A
:1008F0002115310531F04217530718F0A901DB012A
:1009000001C0EF019A01BD01DF010280F381E02DFA
:10091000D7CF21153105F9F0281B390B24303105CB
:1009200080F48A819B816115710521F0FB0193831D
:10093000828304C090937D0180937C01FE013296F6
:1009400044C0FE01E20FF31F8193919322503109BD
:10095000398328833AC020917A0130917B01232B7F
:1009600041F4209162003091630030937B01209329
:100970007A0120916000309161002115310541F428
:100980002DB73EB74091640050916500241B350B94
:10099000E0917A01F0917B01E217F307A0F42E1B9E
:1009A0003F0B2817390778F0AC014E5F5F4F2417D3
:1009B000350748F04E0F5F1F50937B0140937A013B
:1009C0008193919302C0E0E0F0E0CF01DF91CF91FD
:1009D0000895CF93DF93009709F487C0FC01329705
:1009E00013821282C0917C01D0917D01209781F405
:1009F00020813181280F391F80917A0190917B01EC
:100A00008217930779F5F0937B01E0937A016DC02B
:100A1000DE0120E030E0AE17BF0750F412964D9192
:100A20005C9113979D014115510509F1DA01F3CF4E
:100A3000B383A28340815181840F951F8A179B073E
:100A400071F48D919C911197840F951F029691835B
:100A5000808312968D919C911397938382832115A5
:100A6000310529F4F0937D01E0937C013EC0D9016A
:100A70001396FC93EE9312974D915D91A40FB51FC1
:100A8000EA17FB0779F480819181840F951F029604
:100A9000D90111969C938E938281938113969C9396
:100AA0008E931297E0E0F0E08A819B81009719F025
:100AB000FE01EC01F9CFCE01029628813981820F27
:100AC000931F20917A0130917B012817390769F42F
:100AD000309729F410927D0110927C0102C013829C
:100AE0001282D0937B01C0937A01DF91CF91089558
:100AF000DC0101C06D9341505040E0F70895F89437
:020B0000FFCF25
:100B020000007E012000265A595857565554535218
:100B120051504F4E4D4C4B4A49484746454443423B
:100B22004139383736353433323130212005050525
:100B3200070506050506060506060605050403065D
:100B42000605050606050505050505050505050550
:100B520005030320323A2A26020638380620361CBC
:100B62001C36021E300E0E381E020E38380E001EC3
:100B72003E20201E0202023E02003E2A2A3C003E85
:100B82003E0A1A3C001C3622323C003E0A0A0E0083
:100B92001C3622223C003E3E08103E003E0C30082D
:100BA2003E003E3E2020003E081C361030203E0013
:100BB2003E3E003E3E08083E001C36222A3E003ED3
:100BC2003E0A0A003E2A2A2A003E3E22261C001C19
:100BD20036222234003E2A2A3C20380E0E38003CAF
:100BE2002A2A3E00342E2A3E00023A0E06081C2E05
:100BF2002A3E003C2E2A3A10181C3E3E00342A2A75
:100C02003E2034322A2E0000043E3E081C26223E9C
:0A0C1200002E3E0000004E52460086
:00000001FF
