:100000000C9439000C9456000C9456000C94560035
:100010000C9456000C9456000C9456000C94560008
:100020000C9456000C9456000C9456000C945600F8
:100030000C9456000C9456000C9456000C945600E8
:100040000C9456000C9456000C9456000C945600D8
:100050000C94560005A84CCDB2D44EB93836A9023E
:100060000C50B9918688083CA6AAAA2ABE000000B6
:10007000803F11241FBECFE5D4E0DEBFCDBF10E02E
:10008000A0E6B0E0E8E4F8E102C005900D92A636E3
:10009000B107D9F720E0A6E6B0E001C01D92AA366C
:1000A000B207E1F70E9458000C94220C0C94000057
:1000B000CF93DF93CDB7DEB7CB54D1400FB6F894D2
:1000C000DEBF0FBECDBF40E061E0CE01865B9E4F3C
:1000D0000E944F0741E061E0CE01885B9E4F0E9485
:1000E0004F0742E061E0CE018A5B9E4F0E944F07BE
:1000F00043E061E0CE018C5B9E4F0E944F0744E0DD
:1001000061E0CE018E5B9E4F0E944F07C65BDE4FC3
:10011000E880F980CA54D140CA5BDE4F088119815A
:10012000C654D140C85BDE4F28813981C854D140C4
:10013000CE5BDE4F48815981C254D140CC5BDE4F4B
:1001400068817981C454D14080E2A82EB12C90E816
:10015000C92ED12CCE0184509F4F0E944C0660E0E6
:10016000CE0184509F4F0E94680640E250E060E854
:1001700070E0CE0101960E947403CE0101960E94A8
:100180005D03C65CDE4F19821882CA53D140C45C3D
:10019000DE4F19821882CC53D14024E6D22E712C26
:1001A0004D2DC25CDE4FD882CE53D140C15CDE4FB4
:1001B0007882CF53D1403EE1F32EC12C6F2DC05C2D
:1001C000DE4FF882C054D140CF5BDE4FC882C154AD
:1001D000D14000E0C55CDE4F1881CB53D14020E018
:1001E000C35CDE4F3881CD53D14050E070E0CE018A
:1001F00001960E94B803BE016F5F7F4FCE0184500D
:100200009F4F0E943407CE0101960E945D034AE091
:10021000E42EA12C0E2DCE5CDE4FE882C253D140DD
:10022000CD5CDE4FA882C353D14053E0852E412CD4
:10023000282DCC5CDE4F8882C453D140CB5CDE4F8E
:100240004882C553D1406CE6962E512C492DCA5C8C
:10025000DE4F9882C653D140C95CDE4F5882C753E7
:10026000D1407AE1B72E612C6B2DC85CDE4FB8828D
:10027000C853D140C75CDE4F6882C953D14010E0FB
:1002800030E050E070E0CE0101960E947204BE01A1
:100290006F5F7F4FCE0184509F4F0E943407CE0185
:1002A00001960E945D03C65DDE4FE882CA52D140CE
:1002B000C55DDE4FA882CB52D140282DC45DDE4FF4
:1002C0008882CC52D140C35DDE4F4882CD52D140AE
:1002D000492DC25DDE4F9882CE52D140C15DDE4FC6
:1002E0005882CF52D1406B2DC05DDE4FB882C053D3
:1002F000D140CF5CDE4F6882C153D14030E050E046
:1003000070E0CE0101960E947204CE0101960E9417
:10031000FC04BE016F5F7F4FCE0184509F4F0E944F
:100320003407CE0101960E945D03ECE3BE2E912CB2
:100330000B2DCE5DDE4FB882C252D140CD5DDE4F77
:100340009882C352D140CC5DDE4F19821882C452CC
:10035000D1404E2DCA5DDE4FE882C652D140C95D04
:10036000DE4FA882C752D1406F2DC85DDE4FF882A4
:10037000C852D140C75DDE4FC882C952D14020E08B
:10038000CB5DDE4F3881C552D14050E070E0CE01E8
:1003900001960E94B8030E2DC65EDE4FE882CA5158
:1003A000D140C55EDE4FA882CB51D1402F2DC45E17
:1003B000DE4FF882CC51D140C35EDE4FC882CD51B2
:1003C000D1404D2DC25EDE4FD882CE51D140C15EAC
:1003D000DE4F7882CF51D1406F2DC05EDE4FF88264
:1003E000C052D140CF5DDE4FC882C152D14030E013
:1003F00050E070E0CE0101960E94B8030D2DCE5E54
:10040000DE4FD882C251D140CD5EDE4F7882C351DB
:10041000D1402F2DCC5EDE4FF882C451D140CB5E4F
:10042000DE4FC882C551D1404B2DCA5EDE4FB88227
:10043000C651D140C95EDE4F9882C751D140C85ED7
:10044000DE4F19821882C851D14030E050E060E0A0
:10045000C75EDE4F7881C951D140CE0101960E941E
:10046000B803CE0101960E94FC04BE016F5F7F4F6E
:10047000CE0184509F4F0E943407CE0101960E9406
:100480005D03CE0101960E949B0541E050E060E4CF
:1004900070E0CE0101960E94A0054FE050E06EE7AB
:1004A00070E0CE0101960E94A9054FE150E060E4A2
:1004B00070E0CE0101960E94A90540E150E061E0A4
:1004C00070E0CE0101960E94A905CE0101960E941E
:1004D000F505CE0101960E943006BE016F5F7F4F89
:1004E000CE0184509F4F0E943407CE0101960E9496
:1004F0005D03CE0101960E949B0540E050E060E460
:1005000070E0CE0101960E94A00540E150E06FE747
:1005100070E0CE0101960E94A90540E250E060E43F
:1005200070E0CE0101960E94A90540E150E060E034
:1005300070E0CE0101960E94A905CE0101960E94AD
:10054000F505CE0101960E943A06BE016F5F7F4F0E
:10055000CE0184509F4F0E943407C65FDE4F198240
:100560001882CA50D140C45FDE4F19821882CC5025
:10057000D1408FE7482FC25FDE4F8883CE50D140F5
:10058000C15FDE4F1882CF50D1408FE1682FC05F2E
:10059000DE4F8883C051D140CF5EDE4F1882C151FB
:1005A000D14000E0C55FDE4F1881CB50D14020E044
:1005B000C35FDE4F3881CD50D14050E070E0CE01B6
:1005C00001960E947204BE016F5F7F4FCE0184507E
:1005D0009F4F0E943407FEE1CF2ED12CCE01019611
:1005E0000E945D03CE0101960E949B0540E150E010
:1005F00060E070E0CE0101960E94A005E12CF12C94
:1006000000E010E0A92CB12CB8016A0D7B1D8827F1
:1006100077FD8095982F0E9482090E94710A20E040
:1006200030E040E251E40E940E0A20E030E040E871
:1006300051E40E94EB080E944F0977FF02C060E07E
:1006400070E09B016032710514F02FE130E0C701CA
:10065000B6010E94C208A901CE0101960E94A90517
:100660000F5F1F4F80E8E80EF11C0E31110561F697
:10067000CE0101960E943006BE016F5F7F4FCE0112
:1006800084509F4F0E9434079394A8CFFC0144816B
:10069000558122813381429FC001439F900D529F1B
:1006A000900D112423E0969587952A95E1F7DB01BB
:1006B0008D939C93808191810895FC0124813581E3
:1006C00082819381289FA001299F500D389F500D52
:1006D000112433E0569547953A95E1F760E070E0D4
:1006E000808191810C941B0CCF93DF93EC017B8371
:1006F0006A835D834C83649FC001659F900D749FE6
:10070000900D112443E0969587954A95E1F70E9454
:10071000F40A99838883CE01DF91CF910C945D0315
:10072000CF93DF93DB01E3E0B695A795EA95E1F778
:10073000EC01EA81FB81AE9F9001AF9F300DBE9F1F
:10074000300D1124240F351FE881F981E20FF31FCA
:100750009B012770332781E090E0022E01C0880FB3
:100760000A94EAF79081982B9083DF91CF910895B6
:100770002F923F924F925F926F927F928F929F92B1
:10078000AF92BF92CF92DF92EF92FF920F931F939F
:10079000CF93DF93CDB7DEB762970FB6F894DEBF85
:1007A0000FBECDBF2C0109831A832B833C834D835D
:1007B0005E836F83788789819A81CB80DC80ED802E
:1007C000FE800F811885B8016C197D0977FF03C081
:1007D000719561957109A701481B590B57FF03C01B
:1007E00051954195510988248394912C46175707B8
:1007F00014F0812C912C8114910451F4502F412F2D
:100800008701E52EF42E5C2D4D2D6C01852F942F44
:100810000C151D0550F05E2D4F2D7C01852F942F5A
:10082000502F412F8601C52ED42E1601201A310AD1
:100830003C016E187F0877FE03C0719461947108C3
:10084000510137FE03C02FEFA21AB20AB594A79444
:10085000E816F90618F481E090E002C08FEF9FEFF0
:100860009A878987C016D10620F18114910449F036
:10087000FC86EB861E870D874B855C856D857E85A6
:1008800008C0188B0F87FA8AE98A4F8558896989C9
:100890007A89C2010E949003A618B708B7FE06C065
:1008A00089859A85E80EF91EA20CB31C0F5F1F4FB5
:1008B000D9CF62960FB6F894DEBF0FBECDBFDF91E1
:1008C000CF911F910F91FF90EF90DF90CF90BF904D
:1008D000AF909F908F907F906F905F904F903F90E0
:1008E0002F9008956F927F928F929F92AF92BF92B6
:1008F000CF92DF92EF92FF920F931F93CF93DF93EC
:10090000CDB7DEB7A8970FB6F894DEBF0FBECDBF48
:100910003C0109A31AA32BA33CA34DA35EA36FA381
:1009200078A789A09AA0ABA0BCA0EFA0F8A4CDA006
:10093000DEA0C80CD91C082D9A8E898E2A2DBC8E5B
:10094000AB8E4C2DDE8ECD8E6A2DB8A2AF8E1A8D59
:100950003C8D5E8D78A10E94B803EA0CFB1C0C2D27
:10096000DA8AC98A2A2DBC8AAB8A4C2DDE8ACD8AC6
:100970006E2DF88EEF8A1A893C895E89788DC301C5
:100980000E94B803DA86C9862E2DFC86EB86482D98
:100990009E868D866E2DF88AEF861A853C855E854B
:1009A0007889C3010E94B803082D9A8289822E2D6E
:1009B000FC82EB82482D9E828D826A2DB886AF82A2
:1009C0001A813C815E817885C3010E94B803A89694
:1009D0000FB6F894DEBF0FBECDBFDF91CF911F9150
:1009E0000F91FF90EF90DF90CF90BF90AF909F90CE
:1009F0008F907F906F900895FF920F931F93CF93E6
:100A0000DF93FC0120E030E084819581B3E096958E
:100A10008795BA95E1F72817390708F059C0628120
:100A20007381EB012197269FA001279F500D369FD0
:100A3000500D112480E090E000E086179707B9F090
:100A4000A081B181A40FB51FFC901F2D10278C171A
:100A50009D0740F41196AC91AF21BA2FB0951B239E
:100A60000A23102B01964F5F5F4F012FE6CF0095B1
:100A700080E090E0C0E0428153818417950728F51B
:100A8000A081B181249FB001259F700D349F700D0E
:100A90001124680F791FA60FB71F7C91672F6C2751
:100AA000415051098417950748F411964C911197BC
:100AB0004723542F509565234C23642B462F402306
:100AC000472B4C930196C62FD6CF2F5F3F4F9CCF1D
:100AD000DF91CF911F910F91FF900895AF92BF9238
:100AE000CF92DF92EF92FF920F931F93CF93DF93FA
:100AF0005C016A01EB01E12CF12CEC14FD0481F0A6
:100B0000088119812A813B814C815D816E817F81C1
:100B1000C5010E94B8038FEFE81AF80A2896EDCFB6
:100B2000DF91CF911F910F91FF90EF90DF90CF90C9
:100B3000BF90AF9008958A509F4FFC011082089596
:100B4000FC01E950FF4F71836083329651834083EB
:100B500008950F931F93CF93DF93FC018A509F4F0B
:100B6000EC01A881AA2331F1B0E0ED0113E0CC0F34
:100B7000DD1F1A95E1F72297CE0FDF1F0C811D8133
:100B80002E813F81C3E0AA0FBB1FCA95E1F71696DD
:100B9000AE0FBF1F11961C930E9313963C932E938A
:100BA000129715967C936E93149717965C934E93B9
:100BB000169712C0DF01A750BF4F2D913C9111979E
:100BC00012970D90BC91A02DB783A6833187208703
:100BD0007387628755874487FC0120812F5F2083BC
:100BE000DF91CF911F910F9108950F931F93CF9392
:100BF000DF93EC01CA50DF4FE881F0E0DF0113E042
:100C0000AA0FBB1F1A95E1F71297A80FB91F1496E8
:100C10000D911C91159716966D917C911797DC019B
:100C2000A750BF4F2D913C91119712974D915C9118
:100C3000A3E0EE0FFF1FAA95E1F73696E80FF91F24
:100C400011830083738362835583448337832683B0
:100C500088818F5F8883DF91CF911F910F910895D5
:100C6000FC01EA50FF4F408150E0BC016A5F7F4FBA
:100C70000C946E05CF93DF93EC01FC01EA50FF4F1B
:100C8000408150E0BC016A5F7F4F0E946E05CE013B
:100C9000DF91CF910C94FC04AF92BF92CF92DF9280
:100CA000EF92FF920F931F93CF93DF93EC010E947B
:100CB0000508DB86CA86BD86AC86DF91CF911F9181
:100CC0000F91FF90EF90DF90CF90BF90AF9008957D
:100CD0001F93CF93DF93EC01162F0E9437086EEA23
:100CE000CE010E944D0865EDCE010E944D0860E8DE
:100CF000CE010E944D0868EACE010E944D086C8525
:100D00006150CE010E944D0863EDCE010E944D0856
:100D100060E0CE010E944D0860E4CE010E944D08C3
:100D20006DE8CE010E944D08112311F060E101C071
:100D300064E1CE010E944D0860E2CE010E944D08A0
:100D400060E0CE010E944D0861EACE010E944D088C
:100D500068ECCE010E944D086AEDCE010E944D085C
:100D600062E0CE010E944D0861E8CE010E944D086C
:100D70006FE8CE010E944D0869EDCE010E944D083A
:100D8000112311F062E201C061EFCE010E944D0813
:100D90006BEDCE010E944D0860E4CE010E944D082B
:100DA00064EACE010E944D0866EACE010E944D0819
:100DB0006EE2CE010E944D086FEACE01DF91CF9125
:100DC0001F910C944D08AF92BF92CF92DF92EF9299
:100DD000FF920F931F93CF93DF93EC015B016A01A6
:100DE00061E20E944D0860E0CE010E944D086A85D4
:100DF0006150CE010E944D0862E2CE010E944D0872
:100E000060E0CE010E944D088C859D85809721F47D
:100E100063E0CE010E944D087E0188E0E80EF11CDF
:100E2000C7010E948D07CE0104960E948D07C7015D
:100E30000E94C7078501CA0CDB1C0C151D0539F083
:100E4000F80161918F01CE010E949308F6CFC7018E
:100E5000DF91CF911F910F91FF90EF90DF90CF9096
:100E6000BF90AF900C948D070F931F93CF93DF9398
:100E700000D0CDB7DEB78C01CB01BE016F5F7F4FD5
:100E80000E94460349815A81BC01C8010E94E306C1
:100E90000F900F90DF91CF911F910F910895FC015A
:100EA000608341830895FC018081813091F028F0B6
:100EB0008230D9F0833029F108952AB381E090E09F
:100EC000018002C0880F991F0A94E2F7282B2ABBE1
:100ED000089527B381E090E0018002C0880F991F38
:100EE0000A94E2F7282B27BB089524B381E090E011
:100EF000018002C0880F991F0A94E2F7282B24BBB7
:100F0000089521B381E090E0018002C0880F991F0D
:100F10000A94E2F7282B21BB0895FC0180818130DF
:100F200091F028F08230D9F0833029F108952BB365
:100F300081E090E0018002C0880F991F0A94E2F7D7
:100F4000282B2BBB089528B381E090E0018002C0DC
:100F5000880F991F0A94E2F7282B28BB089525B320
:100F600081E090E0018002C0880F991F0A94E2F7A7
:100F7000282B25BB089522B381E090E0018002C0B8
:100F8000880F991F0A94E2F7282B22BB0895FC01D1
:100F90008081813099F028F08230E9F0833041F18E
:100FA00008952BB381E090E0018002C0880F991F63
:100FB0000A94E2F7809582238BBB089528B381E0E1
:100FC00090E0018002C0880F991F0A94E2F7809593
:100FD000822388BB089525B381E090E0018002C0A0
:100FE000880F991F0A94E2F78095822385BB0895A4
:100FF00022B381E090E0018002C0880F991F0A941B
:10100000E2F78095822382BB0895EF92FF920F93BF
:101010001F93FC0171836083538342833583248350
:1010200017830683F186E0861F910F91FF90EF9062
:101030000895CF93DF93EC012696CE010E945307CB
:10104000CE010E948D0789EF90E00197F1F700C073
:101050000000CE010E94C70783EC99E00197F1F7E9
:1010600000C00000CE01DF91CF910C948D07CF938B
:10107000DF93EC0104960E945307CE0108960E946C
:101080005307CE010E945307CE0102960E945307D8
:10109000CE01DF91CF910C941908AF92BF92CF92FD
:1010A000DF92EF92FF920F931F93CF93DF93EC01A8
:1010B000A62E8C01085F1F4FC8010E948D07CE012C
:1010C00004960E94C707C8010E94C70788E0E82E5F
:1010D000F12C90E8B92E6E0182E0C80ED11CC60139
:1010E0000E94C7078B2D8A2121F0CE010E948D0717
:1010F00003C0CE010E94C707C6010E948D07B694A7
:1011000081E0E81AF108E114F10449F7C801DF9120
:10111000CF911F910F91FF90EF90DF90CF90BF90F4
:10112000AF900C948D07CF92DF92EF92FF920F93C6
:101130001F93CF93DF938C01C62EC8E0D0E020E848
:10114000D22E7C0182E0E80EF11CC7010E94C70785
:101150008D2D8C2121F0C8010E948D0703C0C8018C
:101160000E94C707C7010E948D07D6942197209738
:1011700061F7DF91CF911F910F91FF90EF90DF907A
:10118000CF90089597FB072E16F4009407D077FDB3
:1011900009D00E94D60807FC05D03EF490958195B1
:1011A0009F4F0895709561957F4F0895AA1BBB1BB3
:1011B00051E107C0AA1FBB1FA617B70710F0A61B57
:1011C000B70B881F991F5A95A9F780959095BC0178
:1011D000CD0108955058BB27AA270ED0E5C0D6D020
:1011E00030F0DBD020F031F49F3F11F41EF4CBC07F
:1011F0000EF4E095E7FBC1C0E92FE7D080F3BA1702
:10120000620773078407950718F071F49EF5FFC015
:101210000EF4E0950B2EBA2FA02D0B01B901900111
:101220000C01CA01A0011124FF27591B99F0593F55
:1012300050F4503E68F11A16F040A22F232F342F9D
:101240004427585FF3CF469537952795A795F040EB
:101250005395C9F77EF41F16BA0B620B730B840B00
:10126000BAF09150A1F0FF0FBB1F661F771F881FB8
:10127000C2F70EC0BA0F621F731F841F48F4879510
:1012800077956795B795F7959E3F08F0B3CF9395FF
:10129000880F08F09927EE0F97958795089504D049
:1012A0006894B111B5C0089598D088F09F5790F018
:1012B000B92F9927B751A0F0D1F0660F771F881F7B
:1012C000991F1AF0BA95C9F712C0B13081F09FD0BA
:1012D000B1E008959CC0672F782F8827B85F39F058
:1012E000B93FCCF3869577956795B395D9F73EF4DA
:1012F00090958095709561957F4F8F4F9F4F089582
:10130000E89409C097FB3EF490958095709561959F
:101310007F4F8F4F9F4F9923A9F0F92F96E9BB2755
:101320009395F695879577956795B795F111F8CFD1
:10133000FAF4BB0F11F460FF1BC06F5F7F4F8F4F3C
:101340009F4F16C0882311F096E911C0772321F032
:101350009EE8872F762F05C0662371F096E8862FCA
:1013600070E060E02AF09A95660F771F881FDAF721
:10137000880F9695879597F9089597F99F6780E864
:1013800070E060E008959FEF80EC089500240A94D7
:101390001616170618060906089500240A94121650
:1013A0001306140605060895092E0394000C11F483
:1013B000882352F0BB0F40F4BF2B11F460FF04C030
:1013C0006F5F7F4F8F4F9F4F089557FD9058440F89
:1013D000551F59F05F3F71F04795880F97FB991F94
:1013E00061F09F3F79F08795089512161306140651
:1013F000551FF2CF4695F1DF08C0161617061806DE
:10140000991FF1CF86957105610508940895E894B8
:10141000BB2766277727CB0197F908950BD0C4CF58
:10142000B5DF28F0BADF18F0952309F0A6CFABCFCF
:101430001124EECFCADFA0F3959FD1F3950F50E0B2
:10144000551F629FF001729FBB27F00DB11D639F76
:10145000AA27F00DB11DAA1F649F6627B00DA11D1C
:10146000661F829F2227B00DA11D621F739FB00DC2
:10147000A11D621F839FA00D611D221F749F332732
:10148000A00D611D231F849F600D211D822F762FCB
:101490006A2F11249F5750408AF0E1F088234AF0C8
:1014A000EE0FFF1FBB1F661F771F881F9150504014
:1014B000A9F79E3F510570F060CFAACF5F3FECF3D4
:1014C000983EDCF3869577956795B795F795E79500
:1014D0009F5FC1F7FE2B880F911D9695879597F911
:1014E00008959F9305D00F9007FCEE5F28C04BCF67
:1014F00074DFE8F3E894E0E0BB279F57F0F02AEDB3
:101500003FE049EC06C0EE0FBB0F661F771F881F38
:1015100028F0B23A62077307840728F0B25A620BC8
:10152000730B840BE3959A9572F7803830F49A9593
:10153000BB0F661F771F881FD2F7904813C0EF9329
:10154000E0FF06C0A2EA2AED3FE049EC5FEB54DE83
:101550002BDF0F90039401FC9058E4E5F0E00EC0FF
:101560009F3F31F0915020F4879577956795B79517
:10157000880F911D9695879597F908959F938F935E
:101580007F936F93FF93EF939B01AC0147DFEF9144
:10159000FF9105D02F913F914F915F913FCFDF9306
:1015A000CF931F930F93FF92EF92DF927B018C01F9
:1015B000689405C0DA2EEF013DDFFE01E894A591A5
:1015C0002591359145915591AEF3EF0115DEFE0160
:1015D0009701A801DA9479F7DF90EF90FF900F91CF
:1015E0001F91CF91DF910895CF93DF9382309105C2
:1015F00010F482E090E0E0916800F091690020E052
:1016000030E0A0E0B0E0309739F1408151814817D7
:101610005907B8F04817590771F4828193811097E0
:1016200029F013969C938E9312972CC09093690087
:101630008093680027C02115310531F04217530708
:1016400018F0A901DB0101C0EF019A01BD01DF0122
:101650000280F381E02DD7CF21153105F9F0281B49
:10166000390B2430310580F48A819B816115710525
:1016700021F0FB019383828304C0909369008093DF
:101680006800FE01329644C0FE01E20FF31F819311
:10169000919322503109398328833AC02091660002
:1016A00030916700232B41F4209162003091630058
:1016B00030936700209366002091600030916100B4
:1016C0002115310541F42DB73EB74091640050918A
:1016D0006500241B350BE0916600F0916700E2176E
:1016E000F307A0F42E1B3F0B2817390778F0AC0145
:1016F0004E5F5F4F2417350748F04E0F5F1F509322
:101700006700409366008193919302C0E0E0F0E0AF
:10171000CF01DF91CF910895CF93DF93009709F424
:1017200087C0FC01329713821282C0916800D09169
:101730006900209781F420813181280F391F809121
:101740006600909167008217930779F5F093670020
:10175000E09366006DC0DE0120E030E0AE17BF0709
:1017600050F412964D915C9113979D0141155105CE
:1017700009F1DA01F3CFB383A28340815181840F51
:10178000951F8A179B0771F48D919C911197840F77
:10179000951F02969183808312968D919C91139749
:1017A000938382832115310529F4F0936900E09336
:1017B00068003EC0D9011396FC93EE9312974D91A9
:1017C0005D91A40FB51FEA17FB0779F48081918121
:1017D000840F951F0296D90111969C938E93828156
:1017E000938113969C938E931297E0E0F0E08A81A8
:1017F0009B81009719F0FE01EC01F9CFCE01029612
:1018000028813981820F931F2091660030916700F3
:101810002817390769F4309729F41092690010925B
:10182000680002C013821282D0936700C0936600E2
:10183000DF91CF910895DC0101C06D93415050407C
:08184000E0F70895F894FFCFD2
:0618480000006A00200010
:00000001FF
