:100000000C942A000C9447000C9447000C94470071
:100010000C9447000C9447000C9447000C94470044
:100020000C9447000C9447000C9447000C94470034
:100030000C9447000C9447000C9447000C94470024
:100040000C9447000C9447000C9447000C94470014
:100050000C94470011241FBECFE5D4E0DEBFCDBF16
:1000600010E0A0E6B0E0EAE1F0E102C005900D92F8
:10007000A636B107D9F720E0A6E6B0E001C01D9290
:10008000AA36B207E1F70E9449000C940B080C94C1
:100090000000CF93DF93CDB7DEB7C655D1090FB6B9
:1000A000F894DEBF0FBECDBF40E061E0CE018B5AB9
:1000B0009F4F0E946A0541E061E0CE018D5A9F4F3B
:1000C0000E946A0542E061E0CE018F5A9F4F0E9474
:1000D0006A0543E061E0CE01815B9F4F0E946A05A3
:1000E00044E061E0CE01835B9F4F0E946A05679602
:1000F000EEACFFAC679763960EAD1FAD6397659648
:100100002EAD3FAD65972F964EAD5FAD2F976196A3
:100110006EAD7FAD619780E2A82EB12C90E8C92E1C
:10012000D12CCE010F960E94670460E0CE010F969D
:100130000E94830440E250E060E870E0CE01019646
:100140000E94B801CE0101960E94A10127961FAE20
:100150001EAE279729961FAE1EAE299724E6D22EF3
:100160004D2D3EE1F32E6F2D00E027961FAD279712
:1001700020E029963FAD299750E070E0CE0101962E
:100180000E940002BE016F5F7F4FCE010F960E945A
:100190004F05CE0101960E94A1014AE0E42E0E2DEA
:1001A00053E0852E282D6CE6962E492D7AE1B72E48
:1001B0006B2D10E030E050E070E0CE0101960E941F
:1001C000BA02BE016F5F7F4FCE010F960E944F05AE
:1001D000CE0101960E94A101282D492D6B2D30E002
:1001E00050E070E0CE0101960E94BA02CE01019665
:1001F0000E944403BE016F5F7F4FCE010F960E94A5
:100200004F05CE0101960E94A101ECE3BE2E0B2DFD
:1002100018AA1FA64E2D6F2D20E038A950E070E0DF
:10022000CE0101960E9400020E2D2F2D4D2D6F2D17
:1002300030E050E070E0CE0101960E9400020D2DEA
:100240002F2D4B2D1CA21BA230E050E060E07CA1C2
:10025000CE0101960E940002CE0101960E94440345
:10026000BE016F5F7F4FCE010F960E944F05CE01FA
:1002700001960E94A101CE0101960E94B60340E0C2
:1002800050E060E470E0CE0101960E94C80340E1B6
:1002900050E060E870E0CE0101960E94CE0340E29B
:1002A00050E060E470E0CE0101960E94CE0340E190
:1002B00050E060E070E0CE0101960E94CE03CE01D6
:1002C00001960E941D04FFCF0F931F93CF93DF93DE
:1002D000EC018B0184E090E00E94DD06FC018A8144
:1002E0009B81892B39F4FB83EA831183008313827A
:1002F000128208C011830083A881B9811396FC93F0
:10030000EE931297F983E883CF01DF91CF911F918C
:100310000F910895FC014481558122813381429FD0
:10032000C001439F900D529F900D112423E096959C
:1003300087952A95E1F7DB018D939C9380819181CC
:100340000895FC012481358182819381289FA00139
:10035000299F500D389F500D112433E05695479535
:100360003A95E1F760E070E0808191810C94040897
:10037000CF93DF93EC017B836A835D834C831F8281
:100380001E8219861886649FC001659F900D749F18
:10039000900D112443E0969587954A95E1F70E94C8
:1003A000DD0699838883CE01DF91CF910C94A10162
:1003B000CF93DF93DB01E3E0B695A795EA95E1F7EC
:1003C000EC01EA81FB81AE9F9001AF9F300DBE9F93
:1003D000300D1124240F351FE881F981E20FF31F3E
:1003E0009B012770332781E090E0022E01C0880F27
:1003F0000A94EAF79081982B9083DF91CF9108952A
:100400002F923F924F925F926F927F928F929F9224
:10041000AF92BF92CF92DF92EF92FF920F931F9312
:10042000CF93DF93CDB7DEB762970FB6F894DEBFF8
:100430000FBECDBF2C0109831A832B833C834D83D0
:100440005E836F83788789819A81CB80DC80ED80A1
:10045000FE800F811885B8016C197D0977FF03C0F4
:10046000719561957109A701481B590B57FF03C08E
:1004700051954195510988248394912C461757072B
:1004800014F0812C912C8114910451F4502F412FA0
:100490008701E52EF42E5C2D4D2D6C01852F942FB8
:1004A0000C151D0550F05E2D4F2D7C01852F942FCE
:1004B000502F412F8601C52ED42E1601201A310A45
:1004C0003C016E187F0877FE03C071946194710837
:1004D000510137FE03C02FEFA21AB20AB594A794B8
:1004E000E816F90618F481E090E002C08FEF9FEF64
:1004F0009A878987C016D10620F18114910449F0AA
:10050000FC86EB861E870D874B855C856D857E8519
:1005100008C0188B0F87FA8AE98A4F85588969893C
:100520007A89C2010E94D801A618B708B7FE06C092
:1005300089859A85E80EF91EA20CB31C0F5F1F4F28
:10054000D9CF62960FB6F894DEBF0FBECDBFDF9154
:10055000CF911F910F91FF90EF90DF90CF90BF90C0
:10056000AF909F908F907F906F905F904F903F9053
:100570002F9008956F927F928F929F92AF92BF9229
:10058000CF92DF92EF92FF920F931F93CF93DF935F
:10059000CDB7DEB7A8970FB6F894DEBF0FBECDBFBC
:1005A0003C0109A31AA32BA33CA34DA35EA36FA3F5
:1005B00078A789A09AA0ABA0BCA0EFA0F8A4CDA07A
:1005C000DEA0C80CD91C082D9A8E898E2A2DBC8ECF
:1005D000AB8E4C2DDE8ECD8E6A2DB8A2AF8E1A8DCD
:1005E0003C8D5E8D78A10E940002EA0CFB1C0C2D54
:1005F000DA8AC98A2A2DBC8AAB8A4C2DDE8ACD8A3A
:100600006E2DF88EEF8A1A893C895E89788DC30138
:100610000E940002DA86C9862E2DFC86EB86482DC4
:100620009E868D866E2DF88AEF861A853C855E85BE
:100630007889C3010E940002082D9A8289822E2D9A
:10064000FC82EB82482D9E828D826A2DB886AF8215
:100650001A813C815E817885C3010E940002A896C0
:100660000FB6F894DEBF0FBECDBFDF91CF911F91C3
:100670000F91FF90EF90DF90CF90BF90AF909F9041
:100680008F907F906F900895FF920F931F93CF9359
:10069000DF93FC0120E030E084819581B3E0969502
:1006A0008795BA95E1F72817390708F059C0628194
:1006B0007381EB012197269FA001279F500D369F44
:1006C000500D112480E090E000E086179707B9F004
:1006D000A081B181A40FB51FFC901F2D10278C178E
:1006E0009D0740F41196AC91AF21BA2FB0951B2312
:1006F0000A23102B01964F5F5F4F012FE6CF009525
:1007000080E090E0C0E0428153818417950728F58E
:10071000A081B181249FB001259F700D349F700D81
:100720001124680F791FA60FB71F7C91672F6C27C4
:10073000415051098417950748F411964C9111972F
:100740004723542F509565234C23642B462F402379
:10075000472B4C930196C62FD6CF2F5F3F4F9CCF90
:10076000DF91CF911F910F91FF900895CF93DF9369
:10077000FC0180859185009741F0FC01D281C38105
:100780000E9475078D2F9C2FF6CFDF91CF91089592
:10079000FC0173876287558744870895AF92BF92A3
:1007A000CF92DF92EF92FF920F931F93CF93DF933D
:1007B000EC017B018A01E885F985DF0180E090E0AA
:1007C000109731F0019612960D90BC91A02DF8CFA4
:1007D000009799F020E030E02F5F3F4F281739074E
:1007E00021F00280F381E02DF7CF0190F081E02D20
:1007F000C680D780A480B58004C0CC84DD84AA8460
:10080000BB8488E090E00E94DD06FC01B182A082FA
:10081000D382C282F582E48217830683BC01CE01B3
:100820000696DF91CF911F910F91FF90EF90DF908F
:10083000CF90BF90AF900C946401AF92BF92CF92D3
:10084000DF92EF92FF920F931F93CF93DF93EC0110
:10085000E885F985DF0180E090E0109731F001969E
:1008600012960D90BC91A02DF8CF20E030E02F5FC4
:100870003F4F2817390721F00280F381E02DF7CF91
:100880000190F081E02D0C851D85EA84FB84C680F3
:10089000D780A480B58088E090E00E94DD06FC014E
:1008A000B182A082D382C282F582E482178306835A
:1008B000BC01CE010696DF91CF911F910F91FF9061
:1008C000EF90DF90CF90BF90AF900C946401AF9207
:1008D000BF92CF92DF92EF92FF920F931F93CF932D
:1008E000DF93EC010E942006DB86CA86BD86AC86BB
:1008F000DF91CF911F910F91FF90EF90DF90CF90FC
:10090000BF90AF9008951F93CF93DF93EC01162F04
:100910000E9452066EEACE010E94680665EDCE0185
:100920000E94680660E8CE010E94680668EACE016F
:100930000E9468066C856150CE010E94680663EDD6
:10094000CE010E94680660E0CE010E94680660E465
:10095000CE010E9468066DE8CE010E946806112350
:1009600011F060E101C064E1CE010E94680660E21E
:10097000CE010E94680660E0CE010E94680661EA2E
:10098000CE010E94680668ECCE010E9468066AEDFE
:10099000CE010E94680662E0CE010E94680661E80E
:1009A000CE010E9468066FE8CE010E94680669EDDC
:1009B000CE010E946806112311F062E201C061EFCE
:1009C000CE010E9468066BEDCE010E94680660E4CD
:1009D000CE010E94680664EACE010E94680666EABB
:1009E000CE010E9468066EE2CE010E9468066FEAA0
:1009F000CE01DF91CF911F910C946806AF92BF9208
:100A0000CF92DF92EF92FF920F931F93CF93DF93DA
:100A1000EC015B016A0161E20E94680660E0CE01C0
:100A20000E9468066A856150CE010E94680662E2F3
:100A3000CE010E94680660E0CE010E9468068C85A7
:100A40009D85809721F463E0CE010E9468067E01B7
:100A500088E0E80EF11CC7010E94A805CE010496AB
:100A60000E94A805C7010E94E2058501CA0CDB1C93
:100A70000C151D0539F0F80161918F01CE010E941E
:100A8000AE06F6CFC701DF91CF911F910F91FF9076
:100A9000EF90DF90CF90BF90AF900C94A8050F938C
:100AA0001F93CF93DF9300D0CDB7DEB78C01CB017E
:100AB000BE016F5F7F4F0E948A0149815A81BC014C
:100AC000C8010E94FE040F900F90DF91CF911F91FB
:100AD0000F910895FC01608341830895FC0180819A
:100AE000813091F028F08230D9F0833029F10895D7
:100AF0002AB381E090E0018002C0880F991F0A9418
:100B0000E2F7282B2ABB089527B381E090E001800B
:100B100002C0880F991F0A94E2F7282B27BB08957B
:100B200024B381E090E0018002C0880F991F0A94ED
:100B3000E2F7282B24BB089521B381E090E00180E7
:100B400002C0880F991F0A94E2F7282B21BB089551
:100B5000FC018081813091F028F08230D9F083301F
:100B600029F108952BB381E090E0018002C0880F45
:100B7000991F0A94E2F7282B2BBB089528B381E034
:100B800090E0018002C0880F991F0A94E2F7282B99
:100B900028BB089525B381E090E0018002C0880F52
:100BA000991F0A94E2F7282B25BB089522B381E010
:100BB00090E0018002C0880F991F0A94E2F7282B69
:100BC00022BB0895FC018081813099F028F08230A9
:100BD000E9F0833041F108952BB381E090E001808A
:100BE00002C0880F991F0A94E2F7809582238BBB7D
:100BF000089528B381E090E0018002C0880F991F1A
:100C00000A94E2F78095822388BB089525B381E09A
:100C100090E0018002C0880F991F0A94E2F7809546
:100C2000822385BB089522B381E090E0018002C059
:100C3000880F991F0A94E2F78095822382BB08955A
:100C4000EF92FF920F931F93FC0171836083538394
:100C500042833583248317830683F186E0861F91C0
:100C60000F91FF90EF900895CF93DF93EC012696BC
:100C7000CE010E946E05CE010E94A80589EF90E08A
:100C80000197F1F700C00000CE010E94E20583EC5D
:100C900099E00197F1F700C00000CE01DF91CF91FC
:100CA0000C94A805CF93DF93EC0104960E946E0587
:100CB000CE0108960E946E05CE010E946E05CE01FF
:100CC00002960E946E05CE01DF91CF910C943406FE
:100CD000AF92BF92CF92DF92EF92FF920F931F934A
:100CE000CF93DF93EC01A62E8C01085F1F4FC80144
:100CF0000E94A805CE0104960E94E205C8010E9448
:100D0000E20588E0E82EF12C90E8B92E6E0182E031
:100D1000C80ED11CC6010E94E2058B2D8A2121F04C
:100D2000CE010E94A80503C0CE010E94E205C601C3
:100D30000E94A805B69481E0E81AF108E114F104D4
:100D400049F7C801DF91CF911F910F91FF90EF906C
:100D5000DF90CF90BF90AF900C94A805CF92DF9218
:100D6000EF92FF920F931F93CF93DF938C01C62EC8
:100D7000C8E0D0E020E8D22E7C0182E0E80EF11C31
:100D8000C7010E94E2058D2D8C2121F0C8010E942F
:100D9000A80503C0C8010E94E205C7010E94A8057A
:100DA000D6942197209761F7DF91CF911F910F91F2
:100DB000FF90EF90DF90CF900895CF93DF93823034
:100DC000910510F482E090E0E0916800F0916900F4
:100DD00020E030E0A0E0B0E0309739F1408151816F
:100DE00048175907B8F04817590771F48281938161
:100DF000109729F013969C938E9312972CC0909382
:100E000069008093680027C02115310531F0421731
:100E1000530718F0A901DB0101C0EF019A01BD01E0
:100E2000DF010280F381E02DD7CF21153105F9F0E4
:100E3000281B390B2430310580F48A819B81611590
:100E4000710521F0FB019383828304C090936900B4
:100E500080936800FE01329644C0FE01E20FF31F4A
:100E60008193919322503109398328833AC020918C
:100E7000660030916700232B41F42091620030918D
:100E800063003093670020936600209160003091EA
:100E900061002115310541F42DB73EB74091640042
:100EA00050916500241B350BE0916600F0916700BE
:100EB000E217F307A0F42E1B3F0B2817390778F031
:100EC000AC014E5F5F4F2417350748F04E0F5F1F90
:100ED00050936700409366008193919302C0E0E0D5
:100EE000F0E0CF01DF91CF910895CF93DF9300978A
:100EF00009F487C0FC01329713821282C091680006
:100F0000D0916900209781F420813181280F391F09
:100F100080916600909167008217930779F5F093AE
:100F20006700E09366006DC0DE0120E030E0AE17A0
:100F3000BF0750F412964D915C9113979D01411596
:100F4000510509F1DA01F3CFB383A28340815181C6
:100F5000840F951F8A179B0771F48D919C911197AF
:100F6000840F951F02969183808312968D919C9198
:100F70001397938382832115310529F4F093690037
:100F8000E09368003EC0D9011396FC93EE9312974C
:100F90004D915D91A40FB51FEA17FB0779F480818D
:100FA0009181840F951F0296D90111969C938E937F
:100FB0008281938113969C938E931297E0E0F0E0E8
:100FC0008A819B81009719F0FE01EC01F9CFCE01D7
:100FD000029628813981820F931F209166003091FB
:100FE00067002817390769F4309729F410926900CF
:100FF0001092680002C013821282D0936700C093DF
:101000006600DF91CF910895DC0101C06D934150DE
:0A1010005040E0F70895F894FFCF78
:06101A0000006A00200046
:00000001FF
