:100000000C9439000C9456000C9456000C94560035
:100010000C9456000C9456000C9456000C94560008
:100020000C9456000C9456000C9456000C945600F8
:100030000C9456000C9456000C9456000C945600E8
:100040000C9456000C9456000C9456000C945600D8
:100050000C94560005A84CCDB2D44EB93836A9023E
:100060000C50B9918688083CA6AAAA2ABE000000B6
:10007000803F11241FBECFE5D4E0DEBFCDBF11E02D
:10008000A0E6B0E0E8EDF3E102C005900D92A23ADF
:10009000B107D9F721E0A2EAB1E001C01D92A63A6A
:1000A000B207E1F70E9458000C94EA090C94000092
:1000B000CF93DF93CDB7DEB7C354D1090FB6F89411
:1000C000DEBF0FBECDBF40E061E0CE018E5B9F4F33
:1000D0000E94170541E061E0CE01805C9F4F0E94C5
:1000E000170542E061E0CE01CE960E94170543E07D
:1000F00061E0CE01CC960E94170544E061E0CE019C
:10010000CA960E9417052496EEACFFAC24970EAD5C
:100110001FAD22962EAD3FAD22974AAD5BAD6CADC3
:100120007DAD80E2A82EB12C90E8C92ED12CCE0155
:1001300084960E94140460E0CE0184960E943004EC
:1001400040E250E060E870E0CE0101960E94A70115
:10015000CE0101960E94900166E771E0CE01019602
:100160000E945C03BE016F5F7F4FCE0184960E94A8
:10017000FC04CE0101960E9490011BAA1AAA1DAA96
:100180001CAA8FE7482F8EAB1FAA8FE1682F88AF7C
:1001900019AE00E01BA920E03DA950E070E0CE01BF
:1001A00001960E94A502BE016F5F7F4FCE0184962B
:1001B0000E94FC04912C23E0C22ED12CCE0101968A
:1001C0000E94900165E971E0CE0101960E945C03F6
:1001D000CE0101960E94C50340E150E060E070E06E
:1001E000CE0101960E94C803E12CF12C00E010E042
:1001F000A92CB12CB8016A0D7B1D882777FD80954D
:10020000982F0E944A070E94390820E030E040E21F
:1002100051E40E94D60720E030E040E851E40E941B
:10022000B3060E94170777FF02C060E070E09B01F1
:100230006032710514F02FE130E0C701B6010E9471
:100240009E06A901CE0101960E94CE030F5F1F4FAB
:1002500080E8E80EF11C0330110561F6CE0101962D
:100260000E940C04BE016F5F7F4FCE0184960E94F6
:10027000FC049394A3CF1F93CF93DF93E091660088
:10028000C7E6D0E081E090E0A0E0B0E0F0E0E81761
:10029000F90738F07991761302C0DC0111970196C5
:1002A000F6CFED01CA59DF4FCE0FDF1F1981CF0105
:1002B000880F991F019660E070E0EA59FF4F6A17B6
:1002C0007B0749F0EF01C60FD71FC9818C0F911D25
:1002D0006F5F7F4FF4CF8A599F4FFA0191838083DC
:1002E000812F90E0F90191838083DF91CF911F915D
:1002F0000895FC014481558122813381429FC001D0
:10030000439F900D529F900D112423E09695879561
:100310002A95E1F7DB018D939C938081918108956B
:10032000FC012481358182819381289FA001299F2E
:10033000500D389F500D112433E0569547953A954E
:10034000E1F760E070E0808191810C94E309CF9344
:10035000DF93EC017B836A835D834C83649FC001E0
:10036000659F900D749F900D112443E0969587959D
:100370004A95E1F70E94BC0899838883CE01DF91FA
:10038000CF910C949001CF93DF93DB01E3E0B6951E
:10039000A795EA95E1F7EC01EA81FB81AE9F900118
:1003A000AF9F300DBE9F300D1124240F351FE88103
:1003B000F981E20FF31F9B012770332781E090E062
:1003C000022E01C0880F0A94EAF79081982B90833F
:1003D000DF91CF9108952F923F924F925F926F924B
:1003E0007F928F929F92AF92BF92CF92DF92EF92C5
:1003F000FF920F931F93CF93DF93CDB7DEB7629732
:100400000FB6F894DEBF0FBECDBF2C0109831A834F
:100410002B833C834D835E836F83788789819A81A8
:10042000CB80DC80ED80FE800F811885B8016C19CF
:100430007D0977FF03C0719561957109A701481B7C
:10044000590B57FF03C05195419551098824839456
:10045000912C4617570714F0812C912C811491048C
:1004600051F4502F412F8701E52EF42E5C2D4D2D98
:100470006C01852F942F0C151D0550F05E2D4F2D0E
:100480007C01852F942F502F412F8601C52ED42E0D
:100490001601201A310A3C016E187F0877FE03C04E
:1004A000719461947108510137FE03C02FEFA21AB5
:1004B000B20AB594A794E816F90618F481E090E022
:1004C00002C08FEF9FEF9A878987C016D10620F16F
:1004D0008114910449F0FC86EB861E870D874B85BD
:1004E0005C856D857E8508C0188B0F87FA8AE98A3E
:1004F0004F85588969897A89C2010E94C301A6186B
:10050000B708B7FE06C089859A85E80EF91EA20CC9
:10051000B31C0F5F1F4FD9CF62960FB6F894DEBFA2
:100520000FBECDBFDF91CF911F910F91FF90EF9044
:10053000DF90CF90BF90AF909F908F907F906F9003
:100540005F904F903F902F9008956F927F928F927F
:100550009F92AF92BF92CF92DF92EF92FF920F9352
:100560001F93CF93DF93CDB7DEB7A8970FB6F8945C
:10057000DEBF0FBECDBF3C0109A31AA32BA33CA332
:100580004DA35EA36FA378A789A09AA0ABA0BCA03F
:10059000EFA0F8A4CDA0DEA0C80CD91C082D9A8E1F
:1005A000898E2A2DBC8EAB8E4C2DDE8ECD8E6A2D83
:1005B000B8A2AF8E1A8D3C8D5E8D78A10E94EB01A2
:1005C000EA0CFB1C0C2DDA8AC98A2A2DBC8AAB8A5C
:1005D0004C2DDE8ACD8A6E2DF88EEF8A1A893C89E1
:1005E0005E89788DC3010E94EB01DA86C9862E2DC3
:1005F000FC86EB86482D9E868D866E2DF88AEF86CA
:100600001A853C855E857889C3010E94EB01082D1F
:100610009A8289822E2DFC82EB82482D9E828D82C9
:100620006A2DB886AF821A813C815E817885C301CC
:100630000E94EB01A8960FB6F894DEBF0FBECDBFA7
:10064000DF91CF911F910F91FF90EF90DF90CF90AE
:10065000BF90AF909F908F907F906F900895AF92D2
:10066000BF92CF92DF92EF92FF920F931F93CF939F
:10067000DF935C016A01EB01E12CF12CEC14FD0429
:1006800081F0088119812A813B814C815D816E81D5
:100690007F81C5010E94EB018FEFE81AF80A2896C6
:1006A000EDCFDF91CF911F910F91FF90EF90DF90F1
:1006B000CF90BF90AF900895CF92DF92EF92FF92CC
:1006C0000F931F93CF93DF9300D000D01F92CDB72D
:1006D000DEB76C011C821B827B0100E010E0F70199
:1006E00061917F01662309F442C09E012F5F3F4F55
:1006F000AE014D5F5F4FCE0105960E943B01D601D2
:1007000012962D913C911397C801B9010E948A0657
:10071000FB0189819A81800F911FB9010E948A068D
:10072000E617F70740F43196E29F8001E39F100D32
:10073000F29F100D112420E030E089819A81281762
:10074000390780F4EB81FC81E20FF31F8081D60131
:10075000ED91FC91E00FF11FE20FF31F80832F5FFB
:100760003F4FEBCF0F5F1F4F080F191FB8CF0F90F0
:100770000F900F900F900F90DF91CF911F910F91DD
:10078000FF90EF90DF90CF900895FC01168E0895B2
:10079000FC0170A3678F52A341A30895CF93DF9309
:1007A000FC01A68DAA2331F1B0E0ED0183E0CC0F6E
:1007B000DD1F8A95E1F72297CE0FDF1F2C813D8147
:1007C0008E819F81C3E0AA0FBB1FCA95E1F71696E1
:1007D000AE0FBF1F11963C932E9313969C938E934E
:1007E000129715967C936E93149717965C934E937D
:1007F00016970CC081A192A1278D30A13783268343
:10080000918780877387628755874487868D8F5F3E
:10081000868FDF91CF910895FC01468D50E0BC0199
:100820006A5F7F4F0C942F03AF92BF92CF92DF92FB
:10083000EF92FF920F931F93CF93DF93EC010E94EF
:10084000CD05DB86CA86BD86AC86DF91CF911F9130
:100850000F91FF90EF90DF90CF90BF90AF900895F1
:100860001F93CF93DF93EC01162F0E94FF056EEAD2
:10087000CE010E94150665EDCE010E94150660E8C6
:10088000CE010E94150668EACE010E9415066C850D
:100890006150CE010E94150663EDCE010E9415063F
:1008A00060E0CE010E94150660E4CE010E941506AC
:1008B0006DE8CE010E941506112311F060E101C020
:1008C00064E1CE010E94150660E2CE010E94150689
:1008D00060E0CE010E94150661EACE010E94150675
:1008E00068ECCE010E9415066AEDCE010E94150645
:1008F00062E0CE010E94150661E8CE010E94150655
:100900006FE8CE010E94150669EDCE010E94150622
:10091000112311F062E201C061EFCE010E941506C1
:100920006BEDCE010E94150660E4CE010E94150613
:1009300064EACE010E94150666EACE010E94150601
:100940006EE2CE010E9415066FEACE01DF91CF91D3
:100950001F910C941506AF92BF92CF92DF92EF9247
:10096000FF920F931F93CF93DF93EC015B016A011A
:1009700061E20E94150660E0CE010E9415066A85BC
:100980006150CE010E94150662E2CE010E9415065A
:1009900060E0CE010E9415068C859D85809721F42C
:1009A00063E0CE010E9415067E0188E0E80EF11C8E
:1009B000C7010E945505CE0104960E945505C70146
:1009C0000E948F058501CA0CDB1C0C151D0539F032
:1009D000F80161918F01CE010E945B06F6CFC7013D
:1009E000DF91CF911F910F91FF90EF90DF90CF900B
:1009F000BF90AF900C9455050F931F93CF93DF9347
:100A000000D0CDB7DEB78C01CB01BE016F5F7F4F49
:100A10000E94790149815A81BC01C8010E94AB043E
:100A20000F900F90DF91CF911F910F910895FC01CE
:100A3000608341830895FC018081813091F028F02A
:100A40008230D9F0833029F108952AB381E090E013
:100A5000018002C0880F991F0A94E2F7282B2ABB55
:100A6000089527B381E090E0018002C0880F991FAC
:100A70000A94E2F7282B27BB089524B381E090E085
:100A8000018002C0880F991F0A94E2F7282B24BB2B
:100A9000089521B381E090E0018002C0880F991F82
:100AA0000A94E2F7282B21BB0895FC018081813054
:100AB00091F028F08230D9F0833029F108952BB3DA
:100AC00081E090E0018002C0880F991F0A94E2F74C
:100AD000282B2BBB089528B381E090E0018002C051
:100AE000880F991F0A94E2F7282B28BB089525B395
:100AF00081E090E0018002C0880F991F0A94E2F71C
:100B0000282B25BB089522B381E090E0018002C02C
:100B1000880F991F0A94E2F7282B22BB0895FC0145
:100B20008081813099F028F08230E9F0833041F102
:100B300008952BB381E090E0018002C0880F991FD7
:100B40000A94E2F7809582238BBB089528B381E055
:100B500090E0018002C0880F991F0A94E2F7809507
:100B6000822388BB089525B381E090E0018002C014
:100B7000880F991F0A94E2F78095822385BB089518
:100B800022B381E090E0018002C0880F991F0A948F
:100B9000E2F78095822382BB0895EF92FF920F9334
:100BA0001F93FC01718360835383428335832483C5
:100BB00017830683F186E0861F910F91FF90EF90D7
:100BC0000895CF93DF93EC012696CE010E941B057A
:100BD000CE010E94550589EF90E00197F1F700C022
:100BE0000000CE010E948F0583EC99E00197F1F798
:100BF00000C00000CE01DF91CF910C945505CF933A
:100C0000DF93EC0104960E941B05CE0108960E941A
:100C10001B05CE010E941B05CE0102960E941B05FA
:100C2000CE01DF91CF910C94E105AF92BF92CF92AC
:100C3000DF92EF92FF920F931F93CF93DF93EC011C
:100C4000A62E8C01085F1F4FC8010E945505CE01DA
:100C500004960E948F05C8010E948F0588E0E82E47
:100C6000F12C90E8B92E6E0182E0C80ED11CC601AD
:100C70000E948F058B2D8A2121F0CE010E945505FF
:100C800003C0CE010E948F05C6010E945505B6948F
:100C900081E0E81AF108E114F10449F7C801DF9195
:100CA000CF911F910F91FF90EF90DF90CF90BF9069
:100CB000AF900C945505CF92DF92EF92FF920F9375
:100CC0001F93CF93DF938C01C62EC8E0D0E020E8BD
:100CD000D22E7C0182E0E80EF11CC7010E948F0534
:100CE0008D2D8C2121F0C8010E94550503C0C8013B
:100CF0000E948F05C7010E945505D6942197209721
:100D000061F7DF91CF911F910F91FF90EF90DF90EE
:100D1000CF900895AA1BBB1B51E107C0AA1FBB1FA0
:100D2000A617B70710F0A61BB70B881F991F5A9577
:100D3000A9F780959095BC01CD01089597FB072EEA
:100D400016F4009407D077FD09D00E948A0607FCAC
:100D500005D03EF4909581959F4F089570956195CB
:100D60007F4F08955058BB27AA270ED0E5C0D6D094
:100D700030F0DBD020F031F49F3F11F41EF4CBC0F3
:100D80000EF4E095E7FBC1C0E92FE7D080F3BA1776
:100D9000620773078407950718F071F49EF5FFC08A
:100DA0000EF4E0950B2EBA2FA02D0B01B901900186
:100DB0000C01CA01A0011124FF27591B99F0593FCA
:100DC00050F4503E68F11A16F040A22F232F342F12
:100DD0004427585FF3CF469537952795A795F04060
:100DE0005395C9F77EF41F16BA0B620B730B840B75
:100DF000BAF09150A1F0FF0FBB1F661F771F881F2D
:100E0000C2F70EC0BA0F621F731F841F48F4879584
:100E100077956795B795F7959E3F08F0B3CF939573
:100E2000880F08F09927EE0F97958795089504D0BD
:100E30006894B111B5C0089598D088F09F5790F08C
:100E4000B92F9927B751A0F0D1F0660F771F881FEF
:100E5000991F1AF0BA95C9F712C0B13081F09FD02E
:100E6000B1E008959CC0672F782F8827B85F39F0CC
:100E7000B93FCCF3869577956795B395D9F73EF44E
:100E800090958095709561957F4F8F4F9F4F0895F6
:100E9000E89409C097FB3EF4909580957095619514
:100EA0007F4F8F4F9F4F9923A9F0F92F96E9BB27CA
:100EB0009395F695879577956795B795F111F8CF46
:100EC000FAF4BB0F11F460FF1BC06F5F7F4F8F4FB1
:100ED0009F4F16C0882311F096E911C0772321F0A7
:100EE0009EE8872F762F05C0662371F096E8862F3F
:100EF00070E060E02AF09A95660F771F881FDAF796
:100F0000880F9695879597F9089597F99F6780E8D8
:100F100070E060E008959FEF80EC089500240A944B
:100F20001616170618060906089500240A941216C4
:100F30001306140605060895092E0394000C11F4F7
:100F4000882352F0BB0F40F4BF2B11F460FF04C0A4
:100F50006F5F7F4F8F4F9F4F089557FD9058440FFD
:100F6000551F59F05F3F71F04795880F97FB991F08
:100F700061F09F3F79F087950895121613061406C5
:100F8000551FF2CF4695F1DF08C016161706180652
:100F9000991FF1CF86957105610508940895E8942D
:100FA000BB2766277727CB0197F908950BD0C4CFCD
:100FB000B5DF28F0BADF18F0952309F0A6CFABCF44
:100FC0001124EECFCADFA0F3959FD1F3950F50E027
:100FD000551F629FF001729FBB27F00DB11D639FEB
:100FE000AA27F00DB11DAA1F649F6627B00DA11D91
:100FF000661F829F2227B00DA11D621F739FB00D37
:10100000A11D621F839FA00D611D221F749F3327A6
:10101000A00D611D231F849F600D211D822F762F3F
:101020006A2F11249F5750408AF0E1F088234AF03C
:10103000EE0FFF1FBB1F661F771F881F9150504088
:10104000A9F79E3F510570F060CFAACF5F3FECF348
:10105000983EDCF3869577956795B795F795E79574
:101060009F5FC1F7FE2B880F911D9695879597F985
:1010700008959F9305D00F9007FCEE5F28C04BCFDB
:1010800074DFE8F3E894E0E0BB279F57F0F02AED27
:101090003FE049EC06C0EE0FBB0F661F771F881FAD
:1010A00028F0B23A62077307840728F0B25A620B3D
:1010B000730B840BE3959A9572F7803830F49A9508
:1010C000BB0F661F771F881FD2F7904813C0EF939E
:1010D000E0FF06C0A2EA2AED3FE049EC5FEB54DEF8
:1010E0002BDF0F90039401FC9058E4E5F0E00EC074
:1010F0009F3F31F0915020F4879577956795B7958C
:10110000880F911D9695879597F908959F938F93D2
:101110007F936F93FF93EF939B01AC0147DFEF91B8
:10112000FF9105D02F913F914F915F913FCFDF937A
:10113000CF931F930F93FF92EF92DF927B018C016D
:10114000689405C0DA2EEF013DDFFE01E894A59119
:101150002591359145915591AEF3EF0115DEFE01D4
:101160009701A801DA9479F7DF90EF90FF900F9143
:101170001F91CF91DF910895CF93DF938230910536
:1011800010F482E090E0E091A401F091A50120E04C
:1011900030E0A0E0B0E0309739F14081518148174C
:1011A0005907B8F04817590771F482819381109755
:1011B00029F013969C938E9312972CC09093A501BF
:1011C0008093A40127C02115310531F04217530740
:1011D00018F0A901DB0101C0EF019A01BD01DF0197
:1011E0000280F381E02DD7CF21153105F9F0281BBE
:1011F000390B2430310580F48A819B81611571059A
:1012000021F0FB019383828304C09093A501809316
:10121000A401FE01329644C0FE01E20FF31F819348
:10122000919322503109398328833AC02091A20139
:101230003091A301232B41F420916200309163008F
:101240003093A3012093A2012091600030916100AE
:101250002115310541F42DB73EB7409164005091FE
:101260006500241B350BE091A201F091A301E21768
:10127000F307A0F42E1B3F0B2817390778F0AC01B9
:101280004E5F5F4F2417350748F04E0F5F1F509396
:10129000A3014093A2018193919302C0E0E0F0E0AA
:1012A000CF01DF91CF910895CF93DF93009709F499
:1012B00087C0FC01329713821282C091A401D091A1
:1012C000A501209781F420813181280F391F809159
:1012D000A2019091A3018217930779F5F093A301DE
:1012E000E093A2016DC0DE0120E030E0AE17BF0741
:1012F00050F412964D915C9113979D014115510543
:1013000009F1DA01F3CFB383A28340815181840FC5
:10131000951F8A179B0771F48D919C911197840FEB
:10132000951F02969183808312968D919C911397BD
:10133000938382832115310529F4F093A501E0936D
:10134000A4013EC0D9011396FC93EE9312974D91E0
:101350005D91A40FB51FEA17FB0779F48081918195
:10136000840F951F0296D90111969C938E938281CA
:10137000938113969C938E931297E0E0F0E08A811C
:101380009B81009719F0FE01EC01F9CFCE01029686
:1013900028813981820F931F2091A2013091A301EE
:1013A0002817390769F4309729F41092A501109293
:1013B000A40102C013821282D093A301C093A201A0
:1013C000DF91CF910895DC0101C06D9341505040F1
:0813D000E0F70895F894FFCF47
:1013D8000000A6012000265A595857565554535212
:1013E80051504F4E4D4C4B4A49484746454443425D
:1013F8004139383736353433323130212005050547
:10140800070506050506060506060605050403067E
:101418000605050606050505050505050505050571
:1014280005030320323A2A26020638380620361CDD
:101438001C36021E300E0E381E020E38380E001EE4
:101448003E20201E0202023E02003E2A2A3C003EA6
:101458003E0A1A3C001C3622323C003E0A0A0E00A4
:101468001C3622223C003E3E08103E003E0C30084E
:101478003E003E3E2020003E081C361030203E0034
:101488003E3E003E3E08083E001C36222A3E003EF4
:101498003E0A0A003E2A2A2A003E3E22261C001C3A
:1014A80036222234003E2A2A3C20380E0E38003CD0
:1014B8002A2A3E00342E2A3E00023A0E06081C2E26
:1014C8002A3E003C2E2A3A10181C3E3E00342A2A96
:1014D8003E2034322A2E0000043E3E081C26223EBE
:1014E800002E3E00000048454C4C4F20574F524CB0
:1014F8004421204920414D204F4C4544205343521C
:1015080045454E210048454C4C4F20574F524C44BE
:021518002100B0
:00000001FF
