:1000000029C000002FC000002DC000002BC0000040
:1000100029C0000027C0000025C0000023C0000048
:1000200021C000001FC000001DC000001BC0000058
:1000300019C0000017C0000015C0000013C0000068
:1000400011C000000FC000000DC000000BC0000078
:1000500009C0000011241FBECFE5D4E0DEBFCDBF34
:1000600040D068C0CDCFFC01608341830895FC017E
:100070008081813091F028F08230D9F0833029F1ED
:1000800008952BB381E090E0018002C0880F991F92
:100090000A94E2F7282B2BBB089528B381E090E067
:1000A000018002C0880F991F0A94E2F7282B28BB11
:1000B000089525B381E090E0018002C0880F991F68
:1000C0000A94E2F7282B25BB089522B381E090E043
:1000D000018002C0880F991F0A94E2F7282B22BBE7
:1000E0000895CF93DF93CDB7DEB72A970FB6F89474
:1000F000DEBF0FBECDBF40E061E0CE010996B3DFA9
:1001000041E061E0CE010796AEDF42E061E0CE0162
:100110000596A9DF43E061E0CE010396A4DF44E049
:1001200061E0CE0101969FDF8FEF87BBCE01019684
:080130009EDFFFCFF894FFCF22
:00000001FF
