:100000002CC0000044C0000042C0000040C00000FE
:100010003EC000003CC000003AC0000038C00000F4
:1000200036C0000034C0000032C0000030C0000004
:100030002EC000002CC000002AC0000028C0000014
:1000400026C0000024C0000022C0000020C0000024
:100050001EC0000070009500D10011241FBECFE526
:10006000D4E0DEBFCDBF20E0A0E6B0E001C01D922D
:10007000A438B207E1F710E0CAE5D0E003C0229748
:10008000FE01B6D0C435D107D1F774D0B5C0B8CF12
:10009000FC01608341830895DC01EC91F0E0E859B4
:1000A000FF4F21E030E011960C9002C0220F331F69
:1000B0000A94E2F78081822B80830895DC01EC9121
:1000C000F0E0EC59FF4F21E030E011960C9002C0B7
:1000D000220F331F0A94E2F78081822B80830895D8
:1000E0008AB38093680087B38093690084B3809358
:1000F0006A0081B380936B008BB38093640088B3F4
:100100008093650085B38093660082B38093670017
:1001100089B38093600086B38093610083B380933A
:10012000620080B38093630008958AB38093740063
:1001300087B38093750084B38093760081B38093F6
:1001400077008BB38093700088B38093710085B380
:100150008093720082B38093730089B380936C00A4
:1001600086B380936D0083B380936E0080B38093D9
:100170006F000895CF93DF9300D0CDB7DEB744E092
:1001800060E0CE01019684DFCE01019685DFCE01CD
:10019000019694DF80E090E00F900F90DF91CF9177
:1001A00008958AB38093800087B38093810084B3DD
:1001B0008093820081B3809383008BB380937C0013
:1001C00088B380937D0085B380937E0082B3809353
:1001D0007F0089B38093780086B38093790083B3DE
:1001E00080937A0080B380937B000895EE0FFF1F09
:0C01F0000590F491E02D0994F894FFCFE5
:00000001FF
