:1000000029C000003AC0000038C0000036C000001F
:1000100034C0000032C0000030C000002EC000001C
:100020002CC000002AC0000028C0000026C000002C
:1000300024C0000022C0000020C000001EC000003C
:100040001CC000001AC0000018C0000016C000004C
:1000500014C0000011241FBECFE5D4E0DEBFCDBF29
:1000600012E0A0E6B0E0EAECF4E002C005900D92E8
:10007000A036B107D9F7F2D126C2C2CFEF92FF92D4
:100080000F931F936ED11F910F91FF90EF900895E2
:10009000AF92BF92CF92DF92EF92FF920F931F9396
:1000A000CF93DF93EC0161E29BD160E0CE0198D168
:1000B0006FE7CE0195D162E2CE0192D160E0CE0130
:1000C0008FD163E0CE018CD18E01085F1F4FC80134
:1000D000D0D0CE010496CDD0C80105D1C12C92E07C
:1000E000D92E5E0182E0A80EB11C88E0E82EF12C2A
:1000F000C501F9D0CE01BDD0C501BBD081E0E81A61
:10010000F108E114F104A1F781E0C81AD108C11483
:10011000D10459F7C801DF91CF911F910F91FF9042
:10012000EF90DF90CF90BF90AF90A3C01F93CF937D
:10013000DF93EC01162F43D16EEACE0151D165ED6C
:10014000CE014ED160E8CE014BD168EACE0148D154
:100150006FE1CE0145D163EDCE0142D160E0CE0129
:100160003FD160E4CE013CD16DE8CE0139D11123FD
:1001700011F060E101C064E1CE0132D160E2CE0154
:100180002FD160E0CE012CD161EACE0129D168ECFB
:10019000CE0126D16AEDCE0123D162E0CE0120D17D
:1001A00061E8CE011DD16FE8CE011AD169EDCE0113
:1001B00017D1112311F062E201C061EFCE0110D11D
:1001C0006BEDCE010DD160E4CE010AD164EACE011F
:1001D00007D166EACE0104D16EE2CE0101D16FEA09
:1001E000CE01FED040E052E060E670E0CE01DF914B
:1001F000CF911F914DCFFC01608341830895FC0195
:100200008081813091F028F08230D9F0833029F15B
:1002100008952AB381E090E0018002C0880F991F01
:100220000A94E2F7282B2ABB089527B381E090E0D7
:10023000018002C0880F991F0A94E2F7282B27BB80
:10024000089524B381E090E0018002C0880F991FD7
:100250000A94E2F7282B24BB089521B381E090E0B3
:10026000018002C0880F991F0A94E2F7282B21BB56
:100270000895FC018081813091F028F08230D9F01E
:10028000833029F108952BB381E090E0018002C012
:10029000880F991F0A94E2F7282B2BBB089528B3E7
:1002A00081E090E0018002C0880F991F0A94E2F774
:1002B000282B28BB089525B381E090E0018002C07F
:1002C000880F991F0A94E2F7282B25BB089522B3C3
:1002D00081E090E0018002C0880F991F0A94E2F744
:1002E000282B22BB0895FC018081813099F028F0F1
:1002F0008230E9F0833041F108952BB381E090E042
:10030000018002C0880F991F0A94E2F7809582232A
:100310008BBB089528B381E090E0018002C0880F74
:10032000991F0A94E2F78095822388BB089525B32C
:1003300081E090E0018002C0880F991F0A94E2F7E3
:100340008095822385BB089522B381E090E00180EF
:1003500002C0880F991F0A94E2F78095822382BB1E
:100360000895EF92FF920F931F93FC0171836083B6
:10037000538342833583248317830683F186E08683
:100380001F910F91FF90EF900895CF93DF93EC01B1
:100390002696CE0134DFCE016CDF89EF90E0019725
:1003A000F1F700C00000CE019EDF83EC99E00197D9
:1003B000F1F700C00000CE01DF91CF915ACFCF936B
:1003C000DF93EC0104961BDFCE01089618DFCE0107
:1003D00016DFCE01029613DFCE01DF91CF91D5CF8C
:1003E000AF92BF92CF92DF92EF92FF920F931F9343
:1003F000CF93DF93EC01A62E8C01085F1F4FC8013D
:1004000038DFCE0104966FDFC8016DDF88E0E82E8B
:10041000F12C90E8B92E6E0182E0C80ED11CC60105
:1004200062DF8B2D8A2119F0CE0123DF02C0CE01BD
:100430005ADFC6011EDFB69481E0E81AF108E11424
:10044000F10469F7C801DF91CF911F910F91FF90DF
:10045000EF90DF90CF90BF90AF900BCFCF93DF9313
:10046000CDB7DEB768970FB6F894DEBF0FBECDBF2D
:1004700040E061E0CE014796BEDE41E061E0CE01A2
:100480004596B9DE42E061E0CE014396B4DE43E03A
:1004900061E0CE014196AFDE44E061E0CE010F960F
:1004A000AADEEF88F88C0B891C892D893E894F853F
:1004B000588969897A89CE010196E0DD60E0CE0134
:0A04C000019634DEFFCFF894FFCF61
:1004CA000000000000000000000000000000000022
:1004DA000000000000000000000000000000000012
:1004EA000000000000000000000000000000000002
:1004FA000000000000000000000000000000008072
:10050A0080800000000000000000000000000000E1
:10051A00008080C0C0000000000000000000000051
:10052A0000000000000000000000000000000000C1
:10053A0000000000000000000000000000000000B1
:10054A0000000000000000000000000000000000A1
:10055A000000000080C0E0F0F8FCF8E000000000B5
:10056A000000000000000000000000000080808001
:10057A00808000808000000000808080808000FFF2
:10058A00FFFF000000008080808000008080000063
:10059A0080FFFF80800080800080808080008080D3
:1005AA000000000000808000008C8E84000080F82B
:1005BA00F8F88000000000000000000000000000C1
:1005CA00F0F0F0F0F0F0F0F0F0F0F0F0E0E0C080E1
:1005DA0000E0FCFEFFFFFF7FFFFFFFFFFF000000C0
:1005EA000000000000000000000000FEFFC701013B
:1005FA00010183FFFF00007CFEC70101010183FFA7
:10060A00FFFF0038FEC78301010183C7FFFF000017
:10061A0001FFFF010100FFFF0701010100007FFF49
:10062A0080000000FFFF7F0000FFFFFF000001FFC6
:10063A00FFFF0100000000000000000000000000B1
:10064A00030F3F7F7FFFFFFFFFFFFFFFE7C7C78F54
:10065A008F9FBFFFFFC3C0F0FFFFFFFFFFFCFCFC43
:10066A00FCFCFCFCFCF8F8F0F0E0C000010303031A
:10067A000303010303000000000103030303010154
:10068A000301000000010303030301010303000047
:10069A000003030000000303000000000000000143
:1006AA000303030303010000000103010000000328
:1006BA00030100000000000000000000000000002C
:00000001FF
